{
  "_format": "hh-sol-artifact-1",
  "contractName": "MentorDAO",
  "sourceName": "contracts/MentorDAO.sol",
  "address": "0xB833b576552BfD248BCFE4731CBC38a548c56A87",
  "abi": [
    {
      "inputs": [],
      "stateMutability": "nonpayable",
      "type": "constructor"
    },
    {
      "inputs": [
        {
          "internalType": "address",
          "name": "owner",
          "type": "address"
        }
      ],
      "name": "OwnableInvalidOwner",
      "type": "error"
    },
    {
      "inputs": [
        {
          "internalType": "address",
          "name": "account",
          "type": "address"
        }
      ],
      "name": "OwnableUnauthorizedAccount",
      "type": "error"
    },
    {
      "anonymous": false,
      "inputs": [
        {
          "indexed": true,
          "internalType": "address",
          "name": "mentorAddress",
          "type": "address"
        }
      ],
      "name": "MentorApproved",
      "type": "event"
    },
    {
      "anonymous": false,
      "inputs": [
        {
          "indexed": true,
          "internalType": "address",
          "name": "mentorAddress",
          "type": "address"
        },
        {
          "indexed": false,
          "internalType": "string",
          "name": "name",
          "type": "string"
        },
        {
          "indexed": false,
          "internalType": "string",
          "name": "expertise",
          "type": "string"
        }
      ],
      "name": "MentorRegistered",
      "type": "event"
    },
    {
      "anonymous": false,
      "inputs": [
        {
          "indexed": true,
          "internalType": "address",
          "name": "mentor",
          "type": "address"
        },
        {
          "indexed": true,
          "internalType": "address",
          "name": "student",
          "type": "address"
        }
      ],
      "name": "MentorshipAccepted",
      "type": "event"
    },
    {
      "anonymous": false,
      "inputs": [
        {
          "indexed": true,
          "internalType": "address",
          "name": "student",
          "type": "address"
        },
        {
          "indexed": true,
          "internalType": "address",
          "name": "mentor",
          "type": "address"
        }
      ],
      "name": "MentorshipRequested",
      "type": "event"
    },
    {
      "anonymous": false,
      "inputs": [
        {
          "indexed": true,
          "internalType": "address",
          "name": "previousOwner",
          "type": "address"
        },
        {
          "indexed": true,
          "internalType": "address",
          "name": "newOwner",
          "type": "address"
        }
      ],
      "name": "OwnershipTransferred",
      "type": "event"
    },
    {
      "anonymous": false,
      "inputs": [
        {
          "indexed": true,
          "internalType": "uint256",
          "name": "projectId",
          "type": "uint256"
        },
        {
          "indexed": true,
          "internalType": "address",
          "name": "student",
          "type": "address"
        }
      ],
      "name": "ProjectAssigned",
      "type": "event"
    },
    {
      "anonymous": false,
      "inputs": [
        {
          "indexed": true,
          "internalType": "uint256",
          "name": "projectId",
          "type": "uint256"
        }
      ],
      "name": "ProjectCompleted",
      "type": "event"
    },
    {
      "anonymous": false,
      "inputs": [
        {
          "indexed": true,
          "internalType": "uint256",
          "name": "projectId",
          "type": "uint256"
        },
        {
          "indexed": true,
          "internalType": "address",
          "name": "mentor",
          "type": "address"
        },
        {
          "indexed": false,
          "internalType": "string",
          "name": "projectName",
          "type": "string"
        }
      ],
      "name": "ProjectCreated",
      "type": "event"
    },
    {
      "anonymous": false,
      "inputs": [
        {
          "indexed": true,
          "internalType": "address",
          "name": "studentAddress",
          "type": "address"
        },
        {
          "indexed": false,
          "internalType": "string",
          "name": "name",
          "type": "string"
        }
      ],
      "name": "StudentRegistered",
      "type": "event"
    },
    {
      "inputs": [
        {
          "internalType": "address",
          "name": "_student",
          "type": "address"
        }
      ],
      "name": "acceptMentorship",
      "outputs": [],
      "stateMutability": "nonpayable",
      "type": "function"
    },
    {
      "inputs": [
        {
          "internalType": "address",
          "name": "_mentorAddress",
          "type": "address"
        }
      ],
      "name": "approveMentor",
      "outputs": [],
      "stateMutability": "nonpayable",
      "type": "function"
    },
    {
      "inputs": [
        {
          "internalType": "uint256",
          "name": "",
          "type": "uint256"
        }
      ],
      "name": "approvedMentors",
      "outputs": [
        {
          "internalType": "address",
          "name": "",
          "type": "address"
        }
      ],
      "stateMutability": "view",
      "type": "function"
    },
    {
      "inputs": [
        {
          "internalType": "uint256",
          "name": "_projectId",
          "type": "uint256"
        },
        {
          "internalType": "address",
          "name": "_student",
          "type": "address"
        }
      ],
      "name": "assignProject",
      "outputs": [],
      "stateMutability": "nonpayable",
      "type": "function"
    },
    {
      "inputs": [
        {
          "internalType": "uint256",
          "name": "_projectId",
          "type": "uint256"
        }
      ],
      "name": "completeProject",
      "outputs": [],
      "stateMutability": "nonpayable",
      "type": "function"
    },
    {
      "inputs": [
        {
          "internalType": "string",
          "name": "_projectName",
          "type": "string"
        },
        {
          "internalType": "string",
          "name": "_projectDescription",
          "type": "string"
        },
        {
          "internalType": "string",
          "name": "_skillArea",
          "type": "string"
        }
      ],
      "name": "createProject",
      "outputs": [],
      "stateMutability": "nonpayable",
      "type": "function"
    },
    {
      "inputs": [],
      "name": "getApprovedMentors",
      "outputs": [
        {
          "internalType": "address[]",
          "name": "",
          "type": "address[]"
        },
        {
          "internalType": "string[]",
          "name": "",
          "type": "string[]"
        },
        {
          "internalType": "string[]",
          "name": "",
          "type": "string[]"
        },
        {
          "internalType": "string[]",
          "name": "",
          "type": "string[]"
        },
        {
          "internalType": "uint256[]",
          "name": "",
          "type": "uint256[]"
        },
        {
          "internalType": "uint256[]",
          "name": "",
          "type": "uint256[]"
        }
      ],
      "stateMutability": "view",
      "type": "function"
    },
    {
      "inputs": [
        {
          "internalType": "address",
          "name": "_student",
          "type": "address"
        }
      ],
      "name": "getMyMentors",
      "outputs": [
        {
          "internalType": "address[]",
          "name": "",
          "type": "address[]"
        }
      ],
      "stateMutability": "view",
      "type": "function"
    },
    {
      "inputs": [
        {
          "internalType": "address",
          "name": "_mentor",
          "type": "address"
        }
      ],
      "name": "getMyStudents",
      "outputs": [
        {
          "internalType": "address[]",
          "name": "",
          "type": "address[]"
        }
      ],
      "stateMutability": "view",
      "type": "function"
    },
    {
      "inputs": [],
      "name": "getPendingMentors",
      "outputs": [
        {
          "internalType": "address[]",
          "name": "",
          "type": "address[]"
        }
      ],
      "stateMutability": "view",
      "type": "function"
    },
    {
      "inputs": [],
      "name": "getPendingProjects",
      "outputs": [
        {
          "internalType": "uint256[]",
          "name": "",
          "type": "uint256[]"
        }
      ],
      "stateMutability": "view",
      "type": "function"
    },
    {
      "inputs": [
        {
          "internalType": "address",
          "name": "_mentor",
          "type": "address"
        }
      ],
      "name": "getProjectsByMentor",
      "outputs": [
        {
          "internalType": "uint256[]",
          "name": "",
          "type": "uint256[]"
        },
        {
          "internalType": "string[]",
          "name": "",
          "type": "string[]"
        },
        {
          "internalType": "string[]",
          "name": "",
          "type": "string[]"
        },
        {
          "internalType": "string[]",
          "name": "",
          "type": "string[]"
        },
        {
          "internalType": "bool[]",
          "name": "",
          "type": "bool[]"
        },
        {
          "internalType": "bool[]",
          "name": "",
          "type": "bool[]"
        }
      ],
      "stateMutability": "view",
      "type": "function"
    },
    {
      "inputs": [
        {
          "internalType": "address",
          "name": "_student",
          "type": "address"
        }
      ],
      "name": "getStudentProjects",
      "outputs": [
        {
          "internalType": "uint256[]",
          "name": "",
          "type": "uint256[]"
        }
      ],
      "stateMutability": "view",
      "type": "function"
    },
    {
      "inputs": [
        {
          "internalType": "address",
          "name": "_mentor",
          "type": "address"
        }
      ],
      "name": "isMentorApproved",
      "outputs": [
        {
          "internalType": "bool",
          "name": "",
          "type": "bool"
        }
      ],
      "stateMutability": "view",
      "type": "function"
    },
    {
      "inputs": [],
      "name": "mentorCounter",
      "outputs": [
        {
          "internalType": "uint256",
          "name": "",
          "type": "uint256"
        }
      ],
      "stateMutability": "view",
      "type": "function"
    },
    {
      "inputs": [
        {
          "internalType": "address",
          "name": "",
          "type": "address"
        },
        {
          "internalType": "uint256",
          "name": "",
          "type": "uint256"
        }
      ],
      "name": "mentorProjects",
      "outputs": [
        {
          "internalType": "uint256",
          "name": "",
          "type": "uint256"
        }
      ],
      "stateMutability": "view",
      "type": "function"
    },
    {
      "inputs": [
        {
          "internalType": "address",
          "name": "",
          "type": "address"
        }
      ],
      "name": "mentors",
      "outputs": [
        {
          "internalType": "address",
          "name": "mentorAddress",
          "type": "address"
        },
        {
          "internalType": "string",
          "name": "name",
          "type": "string"
        },
        {
          "internalType": "string",
          "name": "expertise",
          "type": "string"
        },
        {
          "internalType": "string",
          "name": "email",
          "type": "string"
        },
        {
          "internalType": "bool",
          "name": "isApproved",
          "type": "bool"
        },
        {
          "internalType": "uint256",
          "name": "totalProjects",
          "type": "uint256"
        }
      ],
      "stateMutability": "view",
      "type": "function"
    },
    {
      "inputs": [
        {
          "internalType": "address",
          "name": "",
          "type": "address"
        },
        {
          "internalType": "uint256",
          "name": "",
          "type": "uint256"
        }
      ],
      "name": "mentorshipRequests",
      "outputs": [
        {
          "internalType": "address",
          "name": "",
          "type": "address"
        }
      ],
      "stateMutability": "view",
      "type": "function"
    },
    {
      "inputs": [],
      "name": "owner",
      "outputs": [
        {
          "internalType": "address",
          "name": "",
          "type": "address"
        }
      ],
      "stateMutability": "view",
      "type": "function"
    },
    {
      "inputs": [
        {
          "internalType": "uint256",
          "name": "",
          "type": "uint256"
        }
      ],
      "name": "pendingMentors",
      "outputs": [
        {
          "internalType": "address",
          "name": "",
          "type": "address"
        }
      ],
      "stateMutability": "view",
      "type": "function"
    },
    {
      "inputs": [
        {
          "internalType": "uint256",
          "name": "",
          "type": "uint256"
        }
      ],
      "name": "pendingProjects",
      "outputs": [
        {
          "internalType": "uint256",
          "name": "",
          "type": "uint256"
        }
      ],
      "stateMutability": "view",
      "type": "function"
    },
    {
      "inputs": [],
      "name": "projectCounter",
      "outputs": [
        {
          "internalType": "uint256",
          "name": "",
          "type": "uint256"
        }
      ],
      "stateMutability": "view",
      "type": "function"
    },
    {
      "inputs": [
        {
          "internalType": "uint256",
          "name": "",
          "type": "uint256"
        }
      ],
      "name": "projects",
      "outputs": [
        {
          "internalType": "uint256",
          "name": "id",
          "type": "uint256"
        },
        {
          "internalType": "address",
          "name": "mentor",
          "type": "address"
        },
        {
          "internalType": "address",
          "name": "student",
          "type": "address"
        },
        {
          "internalType": "string",
          "name": "projectName",
          "type": "string"
        },
        {
          "internalType": "string",
          "name": "projectDescription",
          "type": "string"
        },
        {
          "internalType": "string",
          "name": "skillArea",
          "type": "string"
        },
        {
          "internalType": "bool",
          "name": "isAssigned",
          "type": "bool"
        },
        {
          "internalType": "bool",
          "name": "isCompleted",
          "type": "bool"
        }
      ],
      "stateMutability": "view",
      "type": "function"
    },
    {
      "inputs": [
        {
          "internalType": "string",
          "name": "_name",
          "type": "string"
        },
        {
          "internalType": "string",
          "name": "_expertise",
          "type": "string"
        },
        {
          "internalType": "string",
          "name": "_email",
          "type": "string"
        }
      ],
      "name": "registerMentor",
      "outputs": [],
      "stateMutability": "nonpayable",
      "type": "function"
    },
    {
      "inputs": [
        {
          "internalType": "string",
          "name": "_name",
          "type": "string"
        },
        {
          "internalType": "string",
          "name": "_email",
          "type": "string"
        },
        {
          "internalType": "string",
          "name": "_skills",
          "type": "string"
        },
        {
          "internalType": "string",
          "name": "_collegeName",
          "type": "string"
        },
        {
          "internalType": "string",
          "name": "_achievements",
          "type": "string"
        }
      ],
      "name": "registerStudent",
      "outputs": [],
      "stateMutability": "nonpayable",
      "type": "function"
    },
    {
      "inputs": [],
      "name": "renounceOwnership",
      "outputs": [],
      "stateMutability": "nonpayable",
      "type": "function"
    },
    {
      "inputs": [
        {
          "internalType": "address",
          "name": "_mentor",
          "type": "address"
        }
      ],
      "name": "requestMentorship",
      "outputs": [],
      "stateMutability": "nonpayable",
      "type": "function"
    },
    {
      "inputs": [],
      "name": "studentCounter",
      "outputs": [
        {
          "internalType": "uint256",
          "name": "",
          "type": "uint256"
        }
      ],
      "stateMutability": "view",
      "type": "function"
    },
    {
      "inputs": [
        {
          "internalType": "address",
          "name": "",
          "type": "address"
        },
        {
          "internalType": "uint256",
          "name": "",
          "type": "uint256"
        }
      ],
      "name": "studentProjects",
      "outputs": [
        {
          "internalType": "uint256",
          "name": "",
          "type": "uint256"
        }
      ],
      "stateMutability": "view",
      "type": "function"
    },
    {
      "inputs": [
        {
          "internalType": "address",
          "name": "",
          "type": "address"
        }
      ],
      "name": "students",
      "outputs": [
        {
          "internalType": "address",
          "name": "studentAddress",
          "type": "address"
        },
        {
          "internalType": "string",
          "name": "name",
          "type": "string"
        },
        {
          "internalType": "string",
          "name": "email",
          "type": "string"
        },
        {
          "internalType": "string",
          "name": "skills",
          "type": "string"
        },
        {
          "internalType": "string",
          "name": "collegeName",
          "type": "string"
        },
        {
          "internalType": "string",
          "name": "achievements",
          "type": "string"
        }
      ],
      "stateMutability": "view",
      "type": "function"
    },
    {
      "inputs": [
        {
          "internalType": "address",
          "name": "newOwner",
          "type": "address"
        }
      ],
      "name": "transferOwnership",
      "outputs": [],
      "stateMutability": "nonpayable",
      "type": "function"
    }
  ],
  "bytecode": "0x60806040523480156200001157600080fd5b5033600073ffffffffffffffffffffffffffffffffffffffff168173ffffffffffffffffffffffffffffffffffffffff1603620000885760006040517f1e4fbdf70000000000000000000000000000000000000000000000000000000081526004016200007f9190620001c1565b60405180910390fd5b6200009981620000b860201b60201c565b506000600a819055506000600b819055506000600c81905550620001de565b60008060009054906101000a900473ffffffffffffffffffffffffffffffffffffffff169050816000806101000a81548173ffffffffffffffffffffffffffffffffffffffff021916908373ffffffffffffffffffffffffffffffffffffffff1602179055508173ffffffffffffffffffffffffffffffffffffffff168173ffffffffffffffffffffffffffffffffffffffff167f8be0079c531659141344cd1fd0a4f28419497f9722a3daafe3b4186f6b6457e060405160405180910390a35050565b600073ffffffffffffffffffffffffffffffffffffffff82169050919050565b6000620001a9826200017c565b9050919050565b620001bb816200019c565b82525050565b6000602082019050620001d86000830184620001b0565b92915050565b614a9680620001ee6000396000f3fe608060405234801561001057600080fd5b50600436106101e55760003560e01c80637f7582e31161010f578063c7af8642116100a2578063e3596cac11610071578063e3596cac146105f0578063eed4ea8f1461060e578063f2fde38b14610643578063f8a518ed1461065f576101e5565b8063c7af864214610556578063cf7be6ec14610574578063d0d1ee2314610590578063d1919258146105c0576101e5565b8063a6c807a9116100de578063a6c807a91461049e578063b9b89297146104d3578063ba023b4114610503578063bb1467f414610526576101e5565b80637f7582e3146104185780638417bce8146104345780638da5cb5b14610464578063981e9c2b14610482576101e5565b80633a1538dc1161018757806367520072116101565780636752007214610390578063715018a6146103ae57806375f7c1dd146103b857806378bcba8d146103e8576101e5565b80633a1538dc146103055780633a5c19cc1461032157806350fe7b901461033f57806352852e5f14610374576101e5565b806328d1bec5116101c357806328d1bec51461026d57806329168359146102895780632c0b8992146102b95780633448e66f146102d5576101e5565b8063107046bd146101ea578063195dcdee146102215780632245f15214610251575b600080fd5b61020460048036038101906101ff91906136f2565b61067d565b60405161021898979695949392919061381a565b60405180910390f35b61023b600480360381019061023691906138d9565b6108b7565b6040516102489190613919565b60405180910390f35b61026b600480360381019061026691906136f2565b6108e8565b005b61028760048036038101906102829190613934565b610ab2565b005b6102a3600480360381019061029e91906138d9565b610c3e565b6040516102b09190613961565b60405180910390f35b6102d360048036038101906102ce9190613934565b610c8c565b005b6102ef60048036038101906102ea91906138d9565b610ebe565b6040516102fc9190613919565b60405180910390f35b61031f600480360381019061031a9190613934565b610eef565b005b6103296111b4565b6040516103369190613919565b60405180910390f35b61035960048036038101906103549190613934565b6111ba565b60405161036b96959493929190613c04565b60405180910390f35b61038e60048036038101906103899190613dc4565b6117c9565b005b610398611b12565b6040516103a59190613f29565b60405180910390f35b6103b6611ba0565b005b6103d260048036038101906103cd91906136f2565b611bb4565b6040516103df9190613961565b60405180910390f35b61040260048036038101906103fd9190613934565b611bf3565b60405161040f9190613f4b565b60405180910390f35b610432600480360381019061042d9190613f6d565b611c8a565b005b61044e600480360381019061044991906136f2565b611fdb565b60405161045b9190613961565b60405180910390f35b61046c61201a565b6040516104799190613961565b60405180910390f35b61049c60048036038101906104979190614074565b612043565b005b6104b860048036038101906104b39190613934565b6123ae565b6040516104ca969594939291906140b4565b60405180910390f35b6104ed60048036038101906104e89190613934565b6126b2565b6040516104fa9190613f29565b60405180910390f35b61050b612782565b60405161051d96959493929190614138565b60405180910390f35b610540600480360381019061053b91906136f2565b612cf8565b60405161054d9190613919565b60405180910390f35b61055e612d1c565b60405161056b9190613f4b565b60405180910390f35b61058e60048036038101906105899190613dc4565b612d74565b005b6105aa60048036038101906105a59190613934565b6130a5565b6040516105b791906141c3565b60405180910390f35b6105da60048036038101906105d59190613934565b6130fe565b6040516105e79190613f29565b60405180910390f35b6105f86131ce565b6040516106059190613919565b60405180910390f35b61062860048036038101906106239190613934565b6131d4565b60405161063a969594939291906141de565b60405180910390f35b61065d60048036038101906106589190613934565b6133d5565b005b61066761345b565b6040516106749190613919565b60405180910390f35b60036020528060005260406000206000915090508060000154908060010160009054906101000a900473ffffffffffffffffffffffffffffffffffffffff16908060020160009054906101000a900473ffffffffffffffffffffffffffffffffffffffff16908060030180546106f290614283565b80601f016020809104026020016040519081016040528092919081815260200182805461071e90614283565b801561076b5780601f106107405761010080835404028352916020019161076b565b820191906000526020600020905b81548152906001019060200180831161074e57829003601f168201915b50505050509080600401805461078090614283565b80601f01602080910402602001604051908101604052809291908181526020018280546107ac90614283565b80156107f95780601f106107ce576101008083540402835291602001916107f9565b820191906000526020600020905b8154815290600101906020018083116107dc57829003601f168201915b50505050509080600501805461080e90614283565b80601f016020809104026020016040519081016040528092919081815260200182805461083a90614283565b80156108875780601f1061085c57610100808354040283529160200191610887565b820191906000526020600020905b81548152906001019060200180831161086a57829003601f168201915b5050505050908060060160009054906101000a900460ff16908060060160019054906101000a900460ff16905088565b600560205281600052604060002081815481106108d357600080fd5b90600052602060002001600091509150505481565b3373ffffffffffffffffffffffffffffffffffffffff166003600083815260200190815260200160002060010160009054906101000a900473ffffffffffffffffffffffffffffffffffffffff1673ffffffffffffffffffffffffffffffffffffffff161461098c576040517f08c379a000000000000000000000000000000000000000000000000000000000815260040161098390614300565b60405180910390fd5b6003600082815260200190815260200160002060060160009054906101000a900460ff166109ef576040517f08c379a00000000000000000000000000000000000000000000000000000000081526004016109e69061436c565b60405180910390fd5b6003600082815260200190815260200160002060060160019054906101000a900460ff1615610a53576040517f08c379a0000000000000000000000000000000000000000000000000000000008152600401610a4a906143d8565b60405180910390fd5b60016003600083815260200190815260200160002060060160016101000a81548160ff021916908315150217905550807f60d8df137e489b6216738e436244ca4700bd6d0c8371d3c8d9c80b54538111b960405160405180910390a250565b600160008273ffffffffffffffffffffffffffffffffffffffff1673ffffffffffffffffffffffffffffffffffffffff16815260200190815260200160002060040160009054906101000a900460ff16610b41576040517f08c379a0000000000000000000000000000000000000000000000000000000008152600401610b3890614444565b60405180910390fd5b600660008273ffffffffffffffffffffffffffffffffffffffff1673ffffffffffffffffffffffffffffffffffffffff168152602001908152602001600020339080600181540180825580915050600190039060005260206000200160009091909190916101000a81548173ffffffffffffffffffffffffffffffffffffffff021916908373ffffffffffffffffffffffffffffffffffffffff1602179055508073ffffffffffffffffffffffffffffffffffffffff163373ffffffffffffffffffffffffffffffffffffffff167fa194c7a12e65a9b09c4268208e7b6e1ff72de3679dae488895b4844f9a66d03e60405160405180910390a350565b60066020528160005260406000208181548110610c5a57600080fd5b906000526020600020016000915091509054906101000a900473ffffffffffffffffffffffffffffffffffffffff1681565b600160003373ffffffffffffffffffffffffffffffffffffffff1673ffffffffffffffffffffffffffffffffffffffff16815260200190815260200160002060040160009054906101000a900460ff16610d1b576040517f08c379a0000000000000000000000000000000000000000000000000000000008152600401610d1290614444565b60405180910390fd5b600160003373ffffffffffffffffffffffffffffffffffffffff1673ffffffffffffffffffffffffffffffffffffffff168152602001908152602001600020600601819080600181540180825580915050600190039060005260206000200160009091909190916101000a81548173ffffffffffffffffffffffffffffffffffffffff021916908373ffffffffffffffffffffffffffffffffffffffff160217905550600260008273ffffffffffffffffffffffffffffffffffffffff1673ffffffffffffffffffffffffffffffffffffffff168152602001908152602001600020600601339080600181540180825580915050600190039060005260206000200160009091909190916101000a81548173ffffffffffffffffffffffffffffffffffffffff021916908373ffffffffffffffffffffffffffffffffffffffff1602179055508073ffffffffffffffffffffffffffffffffffffffff163373ffffffffffffffffffffffffffffffffffffffff167fb0c1b22117be07214762da7d60cde9dd0865c045906312f00009e99723b94b4060405160405180910390a350565b60046020528160005260406000208181548110610eda57600080fd5b90600052602060002001600091509150505481565b610ef7613461565b600160008273ffffffffffffffffffffffffffffffffffffffff1673ffffffffffffffffffffffffffffffffffffffff16815260200190815260200160002060040160009054906101000a900460ff1615610f87576040517f08c379a0000000000000000000000000000000000000000000000000000000008152600401610f7e906144b0565b60405180910390fd5b60018060008373ffffffffffffffffffffffffffffffffffffffff1673ffffffffffffffffffffffffffffffffffffffff16815260200190815260200160002060040160006101000a81548160ff02191690831515021790555060005b60078054905081101561116d578173ffffffffffffffffffffffffffffffffffffffff166007828154811061101c5761101b6144d0565b5b9060005260206000200160009054906101000a900473ffffffffffffffffffffffffffffffffffffffff1673ffffffffffffffffffffffffffffffffffffffff160361115a5760076001600780549050611076919061452e565b81548110611087576110866144d0565b5b9060005260206000200160009054906101000a900473ffffffffffffffffffffffffffffffffffffffff16600782815481106110c6576110c56144d0565b5b9060005260206000200160006101000a81548173ffffffffffffffffffffffffffffffffffffffff021916908373ffffffffffffffffffffffffffffffffffffffff16021790555060078054806111205761111f614562565b5b6001900381819060005260206000200160006101000a81549073ffffffffffffffffffffffffffffffffffffffff0219169055905561116d565b808061116590614591565b915050610fe4565b508073ffffffffffffffffffffffffffffffffffffffff167f08a5d48c91397c761935760849b81a8cb681410df32740fcd32c2e51f21633d560405160405180910390a250565b600a5481565b6060806060806060806000600460008973ffffffffffffffffffffffffffffffffffffffff1673ffffffffffffffffffffffffffffffffffffffff16815260200190815260200160002080548060200260200160405190810160405280929190818152602001828054801561124e57602002820191906000526020600020905b81548152602001906001019080831161123a575b5050505050905060008151905060008167ffffffffffffffff81111561127757611276613c99565b5b6040519080825280602002602001820160405280156112aa57816020015b60608152602001906001900390816112955790505b50905060008267ffffffffffffffff8111156112c9576112c8613c99565b5b6040519080825280602002602001820160405280156112fc57816020015b60608152602001906001900390816112e75790505b50905060008367ffffffffffffffff81111561131b5761131a613c99565b5b60405190808252806020026020018201604052801561134e57816020015b60608152602001906001900390816113395790505b50905060008467ffffffffffffffff81111561136d5761136c613c99565b5b60405190808252806020026020018201604052801561139b5781602001602082028036833780820191505090505b50905060008567ffffffffffffffff8111156113ba576113b9613c99565b5b6040519080825280602002602001820160405280156113e85781602001602082028036833780820191505090505b50905060005b868110156117a6576000600360008a848151811061140f5761140e6144d0565b5b6020026020010151815260200190815260200160002060405180610100016040529081600082015481526020016001820160009054906101000a900473ffffffffffffffffffffffffffffffffffffffff1673ffffffffffffffffffffffffffffffffffffffff1673ffffffffffffffffffffffffffffffffffffffff1681526020016002820160009054906101000a900473ffffffffffffffffffffffffffffffffffffffff1673ffffffffffffffffffffffffffffffffffffffff1673ffffffffffffffffffffffffffffffffffffffff1681526020016003820180546114f790614283565b80601f016020809104026020016040519081016040528092919081815260200182805461152390614283565b80156115705780601f1061154557610100808354040283529160200191611570565b820191906000526020600020905b81548152906001019060200180831161155357829003601f168201915b5050505050815260200160048201805461158990614283565b80601f01602080910402602001604051908101604052809291908181526020018280546115b590614283565b80156116025780601f106115d757610100808354040283529160200191611602565b820191906000526020600020905b8154815290600101906020018083116115e557829003601f168201915b5050505050815260200160058201805461161b90614283565b80601f016020809104026020016040519081016040528092919081815260200182805461164790614283565b80156116945780601f1061166957610100808354040283529160200191611694565b820191906000526020600020905b81548152906001019060200180831161167757829003601f168201915b505050505081526020016006820160009054906101000a900460ff161515151581526020016006820160019054906101000a900460ff161515151581525050905080606001518783815181106116ed576116ec6144d0565b5b602002602001018190525080608001518683815181106117105761170f6144d0565b5b60200260200101819052508060a00151858381518110611733576117326144d0565b5b60200260200101819052508060c00151848381518110611756576117556144d0565b5b6020026020010190151590811515815250508060e001518383815181106117805761177f6144d0565b5b60200260200101901515908115158152505050808061179e90614591565b9150506113ee565b508685858585859c509c509c509c509c509c505050505050505091939550919395565b600073ffffffffffffffffffffffffffffffffffffffff16600160003373ffffffffffffffffffffffffffffffffffffffff1673ffffffffffffffffffffffffffffffffffffffff16815260200190815260200160002060000160009054906101000a900473ffffffffffffffffffffffffffffffffffffffff1673ffffffffffffffffffffffffffffffffffffffff161461189a576040517f08c379a000000000000000000000000000000000000000000000000000000000815260040161189190614625565b60405180910390fd5b6040518060e001604052803373ffffffffffffffffffffffffffffffffffffffff16815260200184815260200183815260200182815260200160001515815260200160008152602001600067ffffffffffffffff8111156118fe576118fd613c99565b5b60405190808252806020026020018201604052801561192c5781602001602082028036833780820191505090505b50815250600160003373ffffffffffffffffffffffffffffffffffffffff1673ffffffffffffffffffffffffffffffffffffffff16815260200190815260200160002060008201518160000160006101000a81548173ffffffffffffffffffffffffffffffffffffffff021916908373ffffffffffffffffffffffffffffffffffffffff16021790555060208201518160010190816119cb91906147f1565b5060408201518160020190816119e191906147f1565b5060608201518160030190816119f791906147f1565b5060808201518160040160006101000a81548160ff02191690831515021790555060a0820151816005015560c0820151816006019080519060200190611a3e9291906135b4565b509050506007339080600181540180825580915050600190039060005260206000200160009091909190916101000a81548173ffffffffffffffffffffffffffffffffffffffff021916908373ffffffffffffffffffffffffffffffffffffffff160217905550600a6000815480929190611ab890614591565b91905055503373ffffffffffffffffffffffffffffffffffffffff167fc14e42bf83a73674998a153215f928d3b78dd41101d83cac9ca5ea8f8844ff638484604051611b059291906148c3565b60405180910390a2505050565b60606007805480602002602001604051908101604052809291908181526020018280548015611b9657602002820191906000526020600020905b8160009054906101000a900473ffffffffffffffffffffffffffffffffffffffff1673ffffffffffffffffffffffffffffffffffffffff1681526020019060010190808311611b4c575b5050505050905090565b611ba8613461565b611bb260006134e8565b565b60078181548110611bc457600080fd5b906000526020600020016000915054906101000a900473ffffffffffffffffffffffffffffffffffffffff1681565b6060600560008373ffffffffffffffffffffffffffffffffffffffff1673ffffffffffffffffffffffffffffffffffffffff168152602001908152602001600020805480602002602001604051908101604052809291908181526020018280548015611c7e57602002820191906000526020600020905b815481526020019060010190808311611c6a575b50505050509050919050565b600073ffffffffffffffffffffffffffffffffffffffff16600260003373ffffffffffffffffffffffffffffffffffffffff1673ffffffffffffffffffffffffffffffffffffffff16815260200190815260200160002060000160009054906101000a900473ffffffffffffffffffffffffffffffffffffffff1673ffffffffffffffffffffffffffffffffffffffff1614611d5b576040517f08c379a0000000000000000000000000000000000000000000000000000000008152600401611d5290614946565b60405180910390fd5b6040518061010001604052803373ffffffffffffffffffffffffffffffffffffffff168152602001868152602001858152602001848152602001838152602001828152602001600067ffffffffffffffff811115611dbc57611dbb613c99565b5b604051908082528060200260200182016040528015611dea5781602001602082028036833780820191505090505b508152602001600067ffffffffffffffff811115611e0b57611e0a613c99565b5b604051908082528060200260200182016040528015611e395781602001602082028036833780820191505090505b50815250600260003373ffffffffffffffffffffffffffffffffffffffff1673ffffffffffffffffffffffffffffffffffffffff16815260200190815260200160002060008201518160000160006101000a81548173ffffffffffffffffffffffffffffffffffffffff021916908373ffffffffffffffffffffffffffffffffffffffff1602179055506020820151816001019081611ed891906147f1565b506040820151816002019081611eee91906147f1565b506060820151816003019081611f0491906147f1565b506080820151816004019081611f1a91906147f1565b5060a0820151816005019081611f3091906147f1565b5060c0820151816006019080519060200190611f4d9291906135b4565b5060e0820151816007019080519060200190611f6a92919061363e565b50905050600b6000815480929190611f8190614591565b91905055503373ffffffffffffffffffffffffffffffffffffffff167fc1b20826100814ba286ac576fe980df1dbbcef3d904bb81f3d69a0e8280dc11486604051611fcc9190614966565b60405180910390a25050505050565b60088181548110611feb57600080fd5b906000526020600020016000915054906101000a900473ffffffffffffffffffffffffffffffffffffffff1681565b60008060009054906101000a900473ffffffffffffffffffffffffffffffffffffffff16905090565b3373ffffffffffffffffffffffffffffffffffffffff166003600084815260200190815260200160002060010160009054906101000a900473ffffffffffffffffffffffffffffffffffffffff1673ffffffffffffffffffffffffffffffffffffffff16146120e7576040517f08c379a00000000000000000000000000000000000000000000000000000000081526004016120de906149d4565b60405180910390fd5b6003600083815260200190815260200160002060060160009054906101000a900460ff161561214b576040517f08c379a000000000000000000000000000000000000000000000000000000000815260040161214290614a40565b60405180910390fd5b806003600084815260200190815260200160002060020160006101000a81548173ffffffffffffffffffffffffffffffffffffffff021916908373ffffffffffffffffffffffffffffffffffffffff16021790555060016003600084815260200190815260200160002060060160006101000a81548160ff021916908315150217905550600260008273ffffffffffffffffffffffffffffffffffffffff1673ffffffffffffffffffffffffffffffffffffffff168152602001908152602001600020600701829080600181540180825580915050600190039060005260206000200160009091909190915055600560008273ffffffffffffffffffffffffffffffffffffffff1673ffffffffffffffffffffffffffffffffffffffff16815260200190815260200160002082908060018154018082558091505060019003906000526020600020016000909190919091505560005b6009805490508110156123655782600982815481106122c3576122c26144d0565b5b90600052602060002001540361235257600960016009805490506122e7919061452e565b815481106122f8576122f76144d0565b5b906000526020600020015460098281548110612317576123166144d0565b5b9060005260206000200181905550600980548061233757612336614562565b5b60019003818190600052602060002001600090559055612365565b808061235d90614591565b9150506122a1565b508073ffffffffffffffffffffffffffffffffffffffff16827fcf346ab23a9abaabaa0eb4683b99ec1de094de5e7255af7623cbe740d4c0f16260405160405180910390a35050565b60026020528060005260406000206000915090508060000160009054906101000a900473ffffffffffffffffffffffffffffffffffffffff16908060010180546123f790614283565b80601f016020809104026020016040519081016040528092919081815260200182805461242390614283565b80156124705780601f1061244557610100808354040283529160200191612470565b820191906000526020600020905b81548152906001019060200180831161245357829003601f168201915b50505050509080600201805461248590614283565b80601f01602080910402602001604051908101604052809291908181526020018280546124b190614283565b80156124fe5780601f106124d3576101008083540402835291602001916124fe565b820191906000526020600020905b8154815290600101906020018083116124e157829003601f168201915b50505050509080600301805461251390614283565b80601f016020809104026020016040519081016040528092919081815260200182805461253f90614283565b801561258c5780601f106125615761010080835404028352916020019161258c565b820191906000526020600020905b81548152906001019060200180831161256f57829003601f168201915b5050505050908060040180546125a190614283565b80601f01602080910402602001604051908101604052809291908181526020018280546125cd90614283565b801561261a5780601f106125ef5761010080835404028352916020019161261a565b820191906000526020600020905b8154815290600101906020018083116125fd57829003601f168201915b50505050509080600501805461262f90614283565b80601f016020809104026020016040519081016040528092919081815260200182805461265b90614283565b80156126a85780601f1061267d576101008083540402835291602001916126a8565b820191906000526020600020905b81548152906001019060200180831161268b57829003601f168201915b5050505050905086565b6060600160008373ffffffffffffffffffffffffffffffffffffffff1673ffffffffffffffffffffffffffffffffffffffff16815260200190815260200160002060060180548060200260200160405190810160405280929190818152602001828054801561277657602002820191906000526020600020905b8160009054906101000a900473ffffffffffffffffffffffffffffffffffffffff1673ffffffffffffffffffffffffffffffffffffffff168152602001906001019080831161272c575b50505050509050919050565b6060806060806060806000600880549050905060008167ffffffffffffffff8111156127b1576127b0613c99565b5b6040519080825280602002602001820160405280156127df5781602001602082028036833780820191505090505b50905060008267ffffffffffffffff8111156127fe576127fd613c99565b5b60405190808252806020026020018201604052801561283157816020015b606081526020019060019003908161281c5790505b50905060008367ffffffffffffffff8111156128505761284f613c99565b5b60405190808252806020026020018201604052801561288357816020015b606081526020019060019003908161286e5790505b50905060008467ffffffffffffffff8111156128a2576128a1613c99565b5b6040519080825280602002602001820160405280156128d557816020015b60608152602001906001900390816128c05790505b50905060008567ffffffffffffffff8111156128f4576128f3613c99565b5b6040519080825280602002602001820160405280156129225781602001602082028036833780820191505090505b50905060008667ffffffffffffffff81111561294157612940613c99565b5b60405190808252806020026020018201604052801561296f5781602001602082028036833780820191505090505b50905060005b87811015612cd657600060088281548110612993576129926144d0565b5b9060005260206000200160009054906101000a900473ffffffffffffffffffffffffffffffffffffffff1690506000600160008373ffffffffffffffffffffffffffffffffffffffff1673ffffffffffffffffffffffffffffffffffffffff16815260200190815260200160002090508060000160009054906101000a900473ffffffffffffffffffffffffffffffffffffffff16898481518110612a3b57612a3a6144d0565b5b602002602001019073ffffffffffffffffffffffffffffffffffffffff16908173ffffffffffffffffffffffffffffffffffffffff1681525050806001018054612a8490614283565b80601f0160208091040260200160405190810160405280929190818152602001828054612ab090614283565b8015612afd5780601f10612ad257610100808354040283529160200191612afd565b820191906000526020600020905b815481529060010190602001808311612ae057829003601f168201915b5050505050888481518110612b1557612b146144d0565b5b6020026020010181905250806002018054612b2f90614283565b80601f0160208091040260200160405190810160405280929190818152602001828054612b5b90614283565b8015612ba85780601f10612b7d57610100808354040283529160200191612ba8565b820191906000526020600020905b815481529060010190602001808311612b8b57829003601f168201915b5050505050878481518110612bc057612bbf6144d0565b5b6020026020010181905250806003018054612bda90614283565b80601f0160208091040260200160405190810160405280929190818152602001828054612c0690614283565b8015612c535780601f10612c2857610100808354040283529160200191612c53565b820191906000526020600020905b815481529060010190602001808311612c3657829003601f168201915b5050505050868481518110612c6b57612c6a6144d0565b5b60200260200101819052508060050154858481518110612c8e57612c8d6144d0565b5b6020026020010181815250508060060180549050848481518110612cb557612cb46144d0565b5b60200260200101818152505050508080612cce90614591565b915050612975565b508585858585859c509c509c509c509c509c5050505050505050909192939495565b60098181548110612d0857600080fd5b906000526020600020016000915090505481565b60606009805480602002602001604051908101604052809291908181526020018280548015612d6a57602002820191906000526020600020905b815481526020019060010190808311612d56575b5050505050905090565b600160003373ffffffffffffffffffffffffffffffffffffffff1673ffffffffffffffffffffffffffffffffffffffff16815260200190815260200160002060040160009054906101000a900460ff16612e03576040517f08c379a0000000000000000000000000000000000000000000000000000000008152600401612dfa90614444565b60405180910390fd5b600c6000815480929190612e1690614591565b9190505550604051806101000160405280600c5481526020013373ffffffffffffffffffffffffffffffffffffffff168152602001600073ffffffffffffffffffffffffffffffffffffffff1681526020018481526020018381526020018281526020016000151581526020016000151581525060036000600c5481526020019081526020016000206000820151816000015560208201518160010160006101000a81548173ffffffffffffffffffffffffffffffffffffffff021916908373ffffffffffffffffffffffffffffffffffffffff16021790555060408201518160020160006101000a81548173ffffffffffffffffffffffffffffffffffffffff021916908373ffffffffffffffffffffffffffffffffffffffff1602179055506060820151816003019081612f4c91906147f1565b506080820151816004019081612f6291906147f1565b5060a0820151816005019081612f7891906147f1565b5060c08201518160060160006101000a81548160ff02191690831515021790555060e08201518160060160016101000a81548160ff021916908315150217905550905050600460003373ffffffffffffffffffffffffffffffffffffffff1673ffffffffffffffffffffffffffffffffffffffff168152602001908152602001600020600c5490806001815401808255809150506001900390600052602060002001600090919091909150556009600c5490806001815401808255809150506001900390600052602060002001600090919091909150553373ffffffffffffffffffffffffffffffffffffffff16600c547f9d9ec461f162f3f4fdb9f6d189bfe13c59e48d8acd23a4c3bfcf7cc0fe4e84ed856040516130989190614966565b60405180910390a3505050565b6000600160008373ffffffffffffffffffffffffffffffffffffffff1673ffffffffffffffffffffffffffffffffffffffff16815260200190815260200160002060040160009054906101000a900460ff169050919050565b6060600260008373ffffffffffffffffffffffffffffffffffffffff1673ffffffffffffffffffffffffffffffffffffffff1681526020019081526020016000206006018054806020026020016040519081016040528092919081815260200182805480156131c257602002820191906000526020600020905b8160009054906101000a900473ffffffffffffffffffffffffffffffffffffffff1673ffffffffffffffffffffffffffffffffffffffff1681526020019060010190808311613178575b50505050509050919050565b600b5481565b60016020528060005260406000206000915090508060000160009054906101000a900473ffffffffffffffffffffffffffffffffffffffff169080600101805461321d90614283565b80601f016020809104026020016040519081016040528092919081815260200182805461324990614283565b80156132965780601f1061326b57610100808354040283529160200191613296565b820191906000526020600020905b81548152906001019060200180831161327957829003601f168201915b5050505050908060020180546132ab90614283565b80601f01602080910402602001604051908101604052809291908181526020018280546132d790614283565b80156133245780601f106132f957610100808354040283529160200191613324565b820191906000526020600020905b81548152906001019060200180831161330757829003601f168201915b50505050509080600301805461333990614283565b80601f016020809104026020016040519081016040528092919081815260200182805461336590614283565b80156133b25780601f10613387576101008083540402835291602001916133b2565b820191906000526020600020905b81548152906001019060200180831161339557829003601f168201915b5050505050908060040160009054906101000a900460ff16908060050154905086565b6133dd613461565b600073ffffffffffffffffffffffffffffffffffffffff168173ffffffffffffffffffffffffffffffffffffffff160361344f5760006040517f1e4fbdf70000000000000000000000000000000000000000000000000000000081526004016134469190613961565b60405180910390fd5b613458816134e8565b50565b600c5481565b6134696135ac565b73ffffffffffffffffffffffffffffffffffffffff1661348761201a565b73ffffffffffffffffffffffffffffffffffffffff16146134e6576134aa6135ac565b6040517f118cdaa70000000000000000000000000000000000000000000000000000000081526004016134dd9190613961565b60405180910390fd5b565b60008060009054906101000a900473ffffffffffffffffffffffffffffffffffffffff169050816000806101000a81548173ffffffffffffffffffffffffffffffffffffffff021916908373ffffffffffffffffffffffffffffffffffffffff1602179055508173ffffffffffffffffffffffffffffffffffffffff168173ffffffffffffffffffffffffffffffffffffffff167f8be0079c531659141344cd1fd0a4f28419497f9722a3daafe3b4186f6b6457e060405160405180910390a35050565b600033905090565b82805482825590600052602060002090810192821561362d579160200282015b8281111561362c5782518260006101000a81548173ffffffffffffffffffffffffffffffffffffffff021916908373ffffffffffffffffffffffffffffffffffffffff160217905550916020019190600101906135d4565b5b50905061363a919061368b565b5090565b82805482825590600052602060002090810192821561367a579160200282015b8281111561367957825182559160200191906001019061365e565b5b509050613687919061368b565b5090565b5b808211156136a457600081600090555060010161368c565b5090565b6000604051905090565b600080fd5b600080fd5b6000819050919050565b6136cf816136bc565b81146136da57600080fd5b50565b6000813590506136ec816136c6565b92915050565b600060208284031215613708576137076136b2565b5b6000613716848285016136dd565b91505092915050565b613728816136bc565b82525050565b600073ffffffffffffffffffffffffffffffffffffffff82169050919050565b60006137598261372e565b9050919050565b6137698161374e565b82525050565b600081519050919050565b600082825260208201905092915050565b60005b838110156137a957808201518184015260208101905061378e565b60008484015250505050565b6000601f19601f8301169050919050565b60006137d18261376f565b6137db818561377a565b93506137eb81856020860161378b565b6137f4816137b5565b840191505092915050565b60008115159050919050565b613814816137ff565b82525050565b600061010082019050613830600083018b61371f565b61383d602083018a613760565b61384a6040830189613760565b818103606083015261385c81886137c6565b9050818103608083015261387081876137c6565b905081810360a083015261388481866137c6565b905061389360c083018561380b565b6138a060e083018461380b565b9998505050505050505050565b6138b68161374e565b81146138c157600080fd5b50565b6000813590506138d3816138ad565b92915050565b600080604083850312156138f0576138ef6136b2565b5b60006138fe858286016138c4565b925050602061390f858286016136dd565b9150509250929050565b600060208201905061392e600083018461371f565b92915050565b60006020828403121561394a576139496136b2565b5b6000613958848285016138c4565b91505092915050565b60006020820190506139766000830184613760565b92915050565b600081519050919050565b600082825260208201905092915050565b6000819050602082019050919050565b6139b1816136bc565b82525050565b60006139c383836139a8565b60208301905092915050565b6000602082019050919050565b60006139e78261397c565b6139f18185613987565b93506139fc83613998565b8060005b83811015613a2d578151613a1488826139b7565b9750613a1f836139cf565b925050600181019050613a00565b5085935050505092915050565b600081519050919050565b600082825260208201905092915050565b6000819050602082019050919050565b600082825260208201905092915050565b6000613a828261376f565b613a8c8185613a66565b9350613a9c81856020860161378b565b613aa5816137b5565b840191505092915050565b6000613abc8383613a77565b905092915050565b6000602082019050919050565b6000613adc82613a3a565b613ae68185613a45565b935083602082028501613af885613a56565b8060005b85811015613b345784840389528151613b158582613ab0565b9450613b2083613ac4565b925060208a01995050600181019050613afc565b50829750879550505050505092915050565b600081519050919050565b600082825260208201905092915050565b6000819050602082019050919050565b613b7b816137ff565b82525050565b6000613b8d8383613b72565b60208301905092915050565b6000602082019050919050565b6000613bb182613b46565b613bbb8185613b51565b9350613bc683613b62565b8060005b83811015613bf7578151613bde8882613b81565b9750613be983613b99565b925050600181019050613bca565b5085935050505092915050565b600060c0820190508181036000830152613c1e81896139dc565b90508181036020830152613c328188613ad1565b90508181036040830152613c468187613ad1565b90508181036060830152613c5a8186613ad1565b90508181036080830152613c6e8185613ba6565b905081810360a0830152613c828184613ba6565b9050979650505050505050565b600080fd5b600080fd5b7f4e487b7100000000000000000000000000000000000000000000000000000000600052604160045260246000fd5b613cd1826137b5565b810181811067ffffffffffffffff82111715613cf057613cef613c99565b5b80604052505050565b6000613d036136a8565b9050613d0f8282613cc8565b919050565b600067ffffffffffffffff821115613d2f57613d2e613c99565b5b613d38826137b5565b9050602081019050919050565b82818337600083830152505050565b6000613d67613d6284613d14565b613cf9565b905082815260208101848484011115613d8357613d82613c94565b5b613d8e848285613d45565b509392505050565b600082601f830112613dab57613daa613c8f565b5b8135613dbb848260208601613d54565b91505092915050565b600080600060608486031215613ddd57613ddc6136b2565b5b600084013567ffffffffffffffff811115613dfb57613dfa6136b7565b5b613e0786828701613d96565b935050602084013567ffffffffffffffff811115613e2857613e276136b7565b5b613e3486828701613d96565b925050604084013567ffffffffffffffff811115613e5557613e546136b7565b5b613e6186828701613d96565b9150509250925092565b600081519050919050565b600082825260208201905092915050565b6000819050602082019050919050565b613ea08161374e565b82525050565b6000613eb28383613e97565b60208301905092915050565b6000602082019050919050565b6000613ed682613e6b565b613ee08185613e76565b9350613eeb83613e87565b8060005b83811015613f1c578151613f038882613ea6565b9750613f0e83613ebe565b925050600181019050613eef565b5085935050505092915050565b60006020820190508181036000830152613f438184613ecb565b905092915050565b60006020820190508181036000830152613f6581846139dc565b905092915050565b600080600080600060a08688031215613f8957613f886136b2565b5b600086013567ffffffffffffffff811115613fa757613fa66136b7565b5b613fb388828901613d96565b955050602086013567ffffffffffffffff811115613fd457613fd36136b7565b5b613fe088828901613d96565b945050604086013567ffffffffffffffff811115614001576140006136b7565b5b61400d88828901613d96565b935050606086013567ffffffffffffffff81111561402e5761402d6136b7565b5b61403a88828901613d96565b925050608086013567ffffffffffffffff81111561405b5761405a6136b7565b5b61406788828901613d96565b9150509295509295909350565b6000806040838503121561408b5761408a6136b2565b5b6000614099858286016136dd565b92505060206140aa858286016138c4565b9150509250929050565b600060c0820190506140c96000830189613760565b81810360208301526140db81886137c6565b905081810360408301526140ef81876137c6565b9050818103606083015261410381866137c6565b9050818103608083015261411781856137c6565b905081810360a083015261412b81846137c6565b9050979650505050505050565b600060c08201905081810360008301526141528189613ecb565b905081810360208301526141668188613ad1565b9050818103604083015261417a8187613ad1565b9050818103606083015261418e8186613ad1565b905081810360808301526141a281856139dc565b905081810360a08301526141b681846139dc565b9050979650505050505050565b60006020820190506141d8600083018461380b565b92915050565b600060c0820190506141f36000830189613760565b818103602083015261420581886137c6565b9050818103604083015261421981876137c6565b9050818103606083015261422d81866137c6565b905061423c608083018561380b565b61424960a083018461371f565b979650505050505050565b7f4e487b7100000000000000000000000000000000000000000000000000000000600052602260045260246000fd5b6000600282049050600182168061429b57607f821691505b6020821081036142ae576142ad614254565b5b50919050565b7f4f6e6c79206d656e746f722063616e20636f6d706c6574652070726f6a656374600082015250565b60006142ea60208361377a565b91506142f5826142b4565b602082019050919050565b60006020820190508181036000830152614319816142dd565b9050919050565b7f50726f6a656374206e6f742061737369676e6564000000000000000000000000600082015250565b600061435660148361377a565b915061436182614320565b602082019050919050565b6000602082019050818103600083015261438581614349565b9050919050565b7f50726f6a65637420616c726561647920636f6d706c6574656400000000000000600082015250565b60006143c260198361377a565b91506143cd8261438c565b602082019050919050565b600060208201905081810360008301526143f1816143b5565b9050919050565b7f4d656e746f72206e6f7420617070726f76656400000000000000000000000000600082015250565b600061442e60138361377a565b9150614439826143f8565b602082019050919050565b6000602082019050818103600083015261445d81614421565b9050919050565b7f4d656e746f7220616c726561647920617070726f766564000000000000000000600082015250565b600061449a60178361377a565b91506144a582614464565b602082019050919050565b600060208201905081810360008301526144c98161448d565b9050919050565b7f4e487b7100000000000000000000000000000000000000000000000000000000600052603260045260246000fd5b7f4e487b7100000000000000000000000000000000000000000000000000000000600052601160045260246000fd5b6000614539826136bc565b9150614544836136bc565b925082820390508181111561455c5761455b6144ff565b5b92915050565b7f4e487b7100000000000000000000000000000000000000000000000000000000600052603160045260246000fd5b600061459c826136bc565b91507fffffffffffffffffffffffffffffffffffffffffffffffffffffffffffffffff82036145ce576145cd6144ff565b5b600182019050919050565b7f4d656e746f7220616c7265616479207265676973746572656400000000000000600082015250565b600061460f60198361377a565b915061461a826145d9565b602082019050919050565b6000602082019050818103600083015261463e81614602565b9050919050565b60008190508160005260206000209050919050565b60006020601f8301049050919050565b600082821b905092915050565b6000600883026146a77fffffffffffffffffffffffffffffffffffffffffffffffffffffffffffffffff8261466a565b6146b1868361466a565b95508019841693508086168417925050509392505050565b6000819050919050565b60006146ee6146e96146e4846136bc565b6146c9565b6136bc565b9050919050565b6000819050919050565b614708836146d3565b61471c614714826146f5565b848454614677565b825550505050565b600090565b614731614724565b61473c8184846146ff565b505050565b5b8181101561476057614755600082614729565b600181019050614742565b5050565b601f8211156147a55761477681614645565b61477f8461465a565b8101602085101561478e578190505b6147a261479a8561465a565b830182614741565b50505b505050565b600082821c905092915050565b60006147c8600019846008026147aa565b1980831691505092915050565b60006147e183836147b7565b9150826002028217905092915050565b6147fa8261376f565b67ffffffffffffffff81111561481357614812613c99565b5b61481d8254614283565b614828828285614764565b600060209050601f83116001811461485b5760008415614849578287015190505b61485385826147d5565b8655506148bb565b601f19841661486986614645565b60005b828110156148915784890151825560018201915060208501945060208101905061486c565b868310156148ae57848901516148aa601f8916826147b7565b8355505b6001600288020188555050505b505050505050565b600060408201905081810360008301526148dd81856137c6565b905081810360208301526148f181846137c6565b90509392505050565b7f53747564656e7420616c72656164792072656769737465726564000000000000600082015250565b6000614930601a8361377a565b915061493b826148fa565b602082019050919050565b6000602082019050818103600083015261495f81614923565b9050919050565b6000602082019050818103600083015261498081846137c6565b905092915050565b7f4f6e6c79206d656e746f722063616e2061737369676e2070726f6a6563740000600082015250565b60006149be601e8361377a565b91506149c982614988565b602082019050919050565b600060208201905081810360008301526149ed816149b1565b9050919050565b7f50726f6a65637420616c72656164792061737369676e65640000000000000000600082015250565b6000614a2a60188361377a565b9150614a35826149f4565b602082019050919050565b60006020820190508181036000830152614a5981614a1d565b905091905056fea2646970667358221220e62ec834abbe7b8067b0005743426bb3a94c603ef7e5af95d13b227e5b47151564736f6c63430008140033",
  "linkReferences": {},
  "deployedLinkReferences": {}
}