{
  "_format": "hh-sol-artifact-1",
  "contractName": "MentorDAO",
  "sourceName": "contracts/MentorDAO.sol",
  "address": "0xC063D5f827192C71fDA940AbAaae3df3b7Fb747C",
  "abi": [
    {
      "inputs": [],
      "stateMutability": "nonpayable",
      "type": "constructor"
    },
    {
      "inputs": [
        {
          "internalType": "address",
          "name": "sender",
          "type": "address"
        },
        {
          "internalType": "uint256",
          "name": "tokenId",
          "type": "uint256"
        },
        {
          "internalType": "address",
          "name": "owner",
          "type": "address"
        }
      ],
      "name": "ERC721IncorrectOwner",
      "type": "error"
    },
    {
      "inputs": [
        {
          "internalType": "address",
          "name": "operator",
          "type": "address"
        },
        {
          "internalType": "uint256",
          "name": "tokenId",
          "type": "uint256"
        }
      ],
      "name": "ERC721InsufficientApproval",
      "type": "error"
    },
    {
      "inputs": [
        {
          "internalType": "address",
          "name": "approver",
          "type": "address"
        }
      ],
      "name": "ERC721InvalidApprover",
      "type": "error"
    },
    {
      "inputs": [
        {
          "internalType": "address",
          "name": "operator",
          "type": "address"
        }
      ],
      "name": "ERC721InvalidOperator",
      "type": "error"
    },
    {
      "inputs": [
        {
          "internalType": "address",
          "name": "owner",
          "type": "address"
        }
      ],
      "name": "ERC721InvalidOwner",
      "type": "error"
    },
    {
      "inputs": [
        {
          "internalType": "address",
          "name": "receiver",
          "type": "address"
        }
      ],
      "name": "ERC721InvalidReceiver",
      "type": "error"
    },
    {
      "inputs": [
        {
          "internalType": "address",
          "name": "sender",
          "type": "address"
        }
      ],
      "name": "ERC721InvalidSender",
      "type": "error"
    },
    {
      "inputs": [
        {
          "internalType": "uint256",
          "name": "tokenId",
          "type": "uint256"
        }
      ],
      "name": "ERC721NonexistentToken",
      "type": "error"
    },
    {
      "inputs": [
        {
          "internalType": "address",
          "name": "owner",
          "type": "address"
        }
      ],
      "name": "OwnableInvalidOwner",
      "type": "error"
    },
    {
      "inputs": [
        {
          "internalType": "address",
          "name": "account",
          "type": "address"
        }
      ],
      "name": "OwnableUnauthorizedAccount",
      "type": "error"
    },
    {
      "anonymous": false,
      "inputs": [
        {
          "indexed": true,
          "internalType": "address",
          "name": "owner",
          "type": "address"
        },
        {
          "indexed": true,
          "internalType": "address",
          "name": "approved",
          "type": "address"
        },
        {
          "indexed": true,
          "internalType": "uint256",
          "name": "tokenId",
          "type": "uint256"
        }
      ],
      "name": "Approval",
      "type": "event"
    },
    {
      "anonymous": false,
      "inputs": [
        {
          "indexed": true,
          "internalType": "address",
          "name": "owner",
          "type": "address"
        },
        {
          "indexed": true,
          "internalType": "address",
          "name": "operator",
          "type": "address"
        },
        {
          "indexed": false,
          "internalType": "bool",
          "name": "approved",
          "type": "bool"
        }
      ],
      "name": "ApprovalForAll",
      "type": "event"
    },
    {
      "anonymous": false,
      "inputs": [
        {
          "indexed": false,
          "internalType": "uint256",
          "name": "_fromTokenId",
          "type": "uint256"
        },
        {
          "indexed": false,
          "internalType": "uint256",
          "name": "_toTokenId",
          "type": "uint256"
        }
      ],
      "name": "BatchMetadataUpdate",
      "type": "event"
    },
    {
      "anonymous": false,
      "inputs": [
        {
          "indexed": true,
          "internalType": "uint256",
          "name": "certificateId",
          "type": "uint256"
        },
        {
          "indexed": true,
          "internalType": "address",
          "name": "mentor",
          "type": "address"
        },
        {
          "indexed": true,
          "internalType": "address",
          "name": "student",
          "type": "address"
        },
        {
          "indexed": false,
          "internalType": "string",
          "name": "uri",
          "type": "string"
        }
      ],
      "name": "CertificateIssued",
      "type": "event"
    },
    {
      "anonymous": false,
      "inputs": [
        {
          "indexed": true,
          "internalType": "address",
          "name": "mentorAddress",
          "type": "address"
        }
      ],
      "name": "MentorApproved",
      "type": "event"
    },
    {
      "anonymous": false,
      "inputs": [
        {
          "indexed": true,
          "internalType": "address",
          "name": "mentorAddress",
          "type": "address"
        },
        {
          "indexed": false,
          "internalType": "string",
          "name": "name",
          "type": "string"
        },
        {
          "indexed": false,
          "internalType": "string",
          "name": "expertise",
          "type": "string"
        }
      ],
      "name": "MentorRegistered",
      "type": "event"
    },
    {
      "anonymous": false,
      "inputs": [
        {
          "indexed": true,
          "internalType": "address",
          "name": "mentor",
          "type": "address"
        },
        {
          "indexed": true,
          "internalType": "address",
          "name": "student",
          "type": "address"
        }
      ],
      "name": "MentorshipAccepted",
      "type": "event"
    },
    {
      "anonymous": false,
      "inputs": [
        {
          "indexed": true,
          "internalType": "address",
          "name": "student",
          "type": "address"
        },
        {
          "indexed": true,
          "internalType": "address",
          "name": "mentor",
          "type": "address"
        }
      ],
      "name": "MentorshipRequested",
      "type": "event"
    },
    {
      "anonymous": false,
      "inputs": [
        {
          "indexed": false,
          "internalType": "uint256",
          "name": "_tokenId",
          "type": "uint256"
        }
      ],
      "name": "MetadataUpdate",
      "type": "event"
    },
    {
      "anonymous": false,
      "inputs": [
        {
          "indexed": true,
          "internalType": "address",
          "name": "previousOwner",
          "type": "address"
        },
        {
          "indexed": true,
          "internalType": "address",
          "name": "newOwner",
          "type": "address"
        }
      ],
      "name": "OwnershipTransferred",
      "type": "event"
    },
    {
      "anonymous": false,
      "inputs": [
        {
          "indexed": true,
          "internalType": "uint256",
          "name": "projectId",
          "type": "uint256"
        },
        {
          "indexed": true,
          "internalType": "address",
          "name": "student",
          "type": "address"
        }
      ],
      "name": "ProjectAssigned",
      "type": "event"
    },
    {
      "anonymous": false,
      "inputs": [
        {
          "indexed": true,
          "internalType": "uint256",
          "name": "projectId",
          "type": "uint256"
        }
      ],
      "name": "ProjectCompleted",
      "type": "event"
    },
    {
      "anonymous": false,
      "inputs": [
        {
          "indexed": true,
          "internalType": "uint256",
          "name": "projectId",
          "type": "uint256"
        },
        {
          "indexed": true,
          "internalType": "address",
          "name": "mentor",
          "type": "address"
        },
        {
          "indexed": false,
          "internalType": "string",
          "name": "projectName",
          "type": "string"
        }
      ],
      "name": "ProjectCreated",
      "type": "event"
    },
    {
      "anonymous": false,
      "inputs": [
        {
          "indexed": true,
          "internalType": "address",
          "name": "studentAddress",
          "type": "address"
        },
        {
          "indexed": false,
          "internalType": "string",
          "name": "name",
          "type": "string"
        }
      ],
      "name": "StudentRegistered",
      "type": "event"
    },
    {
      "anonymous": false,
      "inputs": [
        {
          "indexed": true,
          "internalType": "address",
          "name": "from",
          "type": "address"
        },
        {
          "indexed": true,
          "internalType": "address",
          "name": "to",
          "type": "address"
        },
        {
          "indexed": true,
          "internalType": "uint256",
          "name": "tokenId",
          "type": "uint256"
        }
      ],
      "name": "Transfer",
      "type": "event"
    },
    {
      "inputs": [
        {
          "internalType": "address",
          "name": "_student",
          "type": "address"
        }
      ],
      "name": "acceptMentorship",
      "outputs": [],
      "stateMutability": "nonpayable",
      "type": "function"
    },
    {
      "inputs": [
        {
          "internalType": "address",
          "name": "to",
          "type": "address"
        },
        {
          "internalType": "uint256",
          "name": "tokenId",
          "type": "uint256"
        }
      ],
      "name": "approve",
      "outputs": [],
      "stateMutability": "nonpayable",
      "type": "function"
    },
    {
      "inputs": [
        {
          "internalType": "address",
          "name": "_mentorAddress",
          "type": "address"
        }
      ],
      "name": "approveMentor",
      "outputs": [],
      "stateMutability": "nonpayable",
      "type": "function"
    },
    {
      "inputs": [
        {
          "internalType": "uint256",
          "name": "",
          "type": "uint256"
        }
      ],
      "name": "approvedMentors",
      "outputs": [
        {
          "internalType": "address",
          "name": "",
          "type": "address"
        }
      ],
      "stateMutability": "view",
      "type": "function"
    },
    {
      "inputs": [
        {
          "internalType": "uint256",
          "name": "_projectId",
          "type": "uint256"
        },
        {
          "internalType": "address",
          "name": "_student",
          "type": "address"
        }
      ],
      "name": "assignProject",
      "outputs": [],
      "stateMutability": "nonpayable",
      "type": "function"
    },
    {
      "inputs": [
        {
          "internalType": "address",
          "name": "owner",
          "type": "address"
        }
      ],
      "name": "balanceOf",
      "outputs": [
        {
          "internalType": "uint256",
          "name": "",
          "type": "uint256"
        }
      ],
      "stateMutability": "view",
      "type": "function"
    },
    {
      "inputs": [],
      "name": "certificateCounter",
      "outputs": [
        {
          "internalType": "uint256",
          "name": "",
          "type": "uint256"
        }
      ],
      "stateMutability": "view",
      "type": "function"
    },
    {
      "inputs": [
        {
          "internalType": "uint256",
          "name": "_projectId",
          "type": "uint256"
        }
      ],
      "name": "completeProject",
      "outputs": [],
      "stateMutability": "nonpayable",
      "type": "function"
    },
    {
      "inputs": [
        {
          "internalType": "string",
          "name": "_projectName",
          "type": "string"
        },
        {
          "internalType": "string",
          "name": "_projectDescription",
          "type": "string"
        },
        {
          "internalType": "string",
          "name": "_skillArea",
          "type": "string"
        }
      ],
      "name": "createProject",
      "outputs": [],
      "stateMutability": "nonpayable",
      "type": "function"
    },
    {
      "inputs": [
        {
          "internalType": "uint256",
          "name": "tokenId",
          "type": "uint256"
        }
      ],
      "name": "getApproved",
      "outputs": [
        {
          "internalType": "address",
          "name": "",
          "type": "address"
        }
      ],
      "stateMutability": "view",
      "type": "function"
    },
    {
      "inputs": [],
      "name": "getApprovedMentors",
      "outputs": [
        {
          "internalType": "address[]",
          "name": "",
          "type": "address[]"
        },
        {
          "internalType": "string[]",
          "name": "",
          "type": "string[]"
        },
        {
          "internalType": "string[]",
          "name": "",
          "type": "string[]"
        },
        {
          "internalType": "string[]",
          "name": "",
          "type": "string[]"
        },
        {
          "internalType": "uint256[]",
          "name": "",
          "type": "uint256[]"
        },
        {
          "internalType": "uint256[]",
          "name": "",
          "type": "uint256[]"
        }
      ],
      "stateMutability": "view",
      "type": "function"
    },
    {
      "inputs": [
        {
          "internalType": "address",
          "name": "_student",
          "type": "address"
        }
      ],
      "name": "getMyMentors",
      "outputs": [
        {
          "internalType": "address[]",
          "name": "",
          "type": "address[]"
        }
      ],
      "stateMutability": "view",
      "type": "function"
    },
    {
      "inputs": [
        {
          "internalType": "address",
          "name": "_mentor",
          "type": "address"
        }
      ],
      "name": "getMyStudents",
      "outputs": [
        {
          "internalType": "address[]",
          "name": "",
          "type": "address[]"
        }
      ],
      "stateMutability": "view",
      "type": "function"
    },
    {
      "inputs": [],
      "name": "getPendingMentors",
      "outputs": [
        {
          "internalType": "address[]",
          "name": "",
          "type": "address[]"
        }
      ],
      "stateMutability": "view",
      "type": "function"
    },
    {
      "inputs": [],
      "name": "getPendingProjects",
      "outputs": [
        {
          "internalType": "uint256[]",
          "name": "",
          "type": "uint256[]"
        }
      ],
      "stateMutability": "view",
      "type": "function"
    },
    {
      "inputs": [
        {
          "internalType": "address",
          "name": "_mentor",
          "type": "address"
        }
      ],
      "name": "getProjectsByMentor",
      "outputs": [
        {
          "internalType": "uint256[]",
          "name": "",
          "type": "uint256[]"
        },
        {
          "internalType": "string[]",
          "name": "",
          "type": "string[]"
        },
        {
          "internalType": "string[]",
          "name": "",
          "type": "string[]"
        },
        {
          "internalType": "string[]",
          "name": "",
          "type": "string[]"
        },
        {
          "internalType": "bool[]",
          "name": "",
          "type": "bool[]"
        },
        {
          "internalType": "bool[]",
          "name": "",
          "type": "bool[]"
        }
      ],
      "stateMutability": "view",
      "type": "function"
    },
    {
      "inputs": [
        {
          "internalType": "address",
          "name": "_student",
          "type": "address"
        }
      ],
      "name": "getStudentProjects",
      "outputs": [
        {
          "internalType": "uint256[]",
          "name": "",
          "type": "uint256[]"
        }
      ],
      "stateMutability": "view",
      "type": "function"
    },
    {
      "inputs": [
        {
          "internalType": "address",
          "name": "owner",
          "type": "address"
        },
        {
          "internalType": "address",
          "name": "operator",
          "type": "address"
        }
      ],
      "name": "isApprovedForAll",
      "outputs": [
        {
          "internalType": "bool",
          "name": "",
          "type": "bool"
        }
      ],
      "stateMutability": "view",
      "type": "function"
    },
    {
      "inputs": [
        {
          "internalType": "address",
          "name": "_mentor",
          "type": "address"
        }
      ],
      "name": "isMentorApproved",
      "outputs": [
        {
          "internalType": "bool",
          "name": "",
          "type": "bool"
        }
      ],
      "stateMutability": "view",
      "type": "function"
    },
    {
      "inputs": [
        {
          "internalType": "address",
          "name": "_student",
          "type": "address"
        },
        {
          "internalType": "string",
          "name": "_tokenURI",
          "type": "string"
        }
      ],
      "name": "issueCertificate",
      "outputs": [],
      "stateMutability": "nonpayable",
      "type": "function"
    },
    {
      "inputs": [],
      "name": "mentorCounter",
      "outputs": [
        {
          "internalType": "uint256",
          "name": "",
          "type": "uint256"
        }
      ],
      "stateMutability": "view",
      "type": "function"
    },
    {
      "inputs": [
        {
          "internalType": "address",
          "name": "",
          "type": "address"
        },
        {
          "internalType": "uint256",
          "name": "",
          "type": "uint256"
        }
      ],
      "name": "mentorProjects",
      "outputs": [
        {
          "internalType": "uint256",
          "name": "",
          "type": "uint256"
        }
      ],
      "stateMutability": "view",
      "type": "function"
    },
    {
      "inputs": [
        {
          "internalType": "address",
          "name": "",
          "type": "address"
        }
      ],
      "name": "mentors",
      "outputs": [
        {
          "internalType": "address",
          "name": "mentorAddress",
          "type": "address"
        },
        {
          "internalType": "string",
          "name": "name",
          "type": "string"
        },
        {
          "internalType": "string",
          "name": "expertise",
          "type": "string"
        },
        {
          "internalType": "string",
          "name": "email",
          "type": "string"
        },
        {
          "internalType": "bool",
          "name": "isApproved",
          "type": "bool"
        },
        {
          "internalType": "uint256",
          "name": "totalProjects",
          "type": "uint256"
        }
      ],
      "stateMutability": "view",
      "type": "function"
    },
    {
      "inputs": [
        {
          "internalType": "address",
          "name": "",
          "type": "address"
        },
        {
          "internalType": "uint256",
          "name": "",
          "type": "uint256"
        }
      ],
      "name": "mentorshipRequests",
      "outputs": [
        {
          "internalType": "address",
          "name": "",
          "type": "address"
        }
      ],
      "stateMutability": "view",
      "type": "function"
    },
    {
      "inputs": [],
      "name": "name",
      "outputs": [
        {
          "internalType": "string",
          "name": "",
          "type": "string"
        }
      ],
      "stateMutability": "view",
      "type": "function"
    },
    {
      "inputs": [],
      "name": "owner",
      "outputs": [
        {
          "internalType": "address",
          "name": "",
          "type": "address"
        }
      ],
      "stateMutability": "view",
      "type": "function"
    },
    {
      "inputs": [
        {
          "internalType": "uint256",
          "name": "tokenId",
          "type": "uint256"
        }
      ],
      "name": "ownerOf",
      "outputs": [
        {
          "internalType": "address",
          "name": "",
          "type": "address"
        }
      ],
      "stateMutability": "view",
      "type": "function"
    },
    {
      "inputs": [
        {
          "internalType": "uint256",
          "name": "",
          "type": "uint256"
        }
      ],
      "name": "pendingMentors",
      "outputs": [
        {
          "internalType": "address",
          "name": "",
          "type": "address"
        }
      ],
      "stateMutability": "view",
      "type": "function"
    },
    {
      "inputs": [
        {
          "internalType": "uint256",
          "name": "",
          "type": "uint256"
        }
      ],
      "name": "pendingProjects",
      "outputs": [
        {
          "internalType": "uint256",
          "name": "",
          "type": "uint256"
        }
      ],
      "stateMutability": "view",
      "type": "function"
    },
    {
      "inputs": [],
      "name": "projectCounter",
      "outputs": [
        {
          "internalType": "uint256",
          "name": "",
          "type": "uint256"
        }
      ],
      "stateMutability": "view",
      "type": "function"
    },
    {
      "inputs": [
        {
          "internalType": "uint256",
          "name": "",
          "type": "uint256"
        }
      ],
      "name": "projects",
      "outputs": [
        {
          "internalType": "uint256",
          "name": "id",
          "type": "uint256"
        },
        {
          "internalType": "address",
          "name": "mentor",
          "type": "address"
        },
        {
          "internalType": "address",
          "name": "student",
          "type": "address"
        },
        {
          "internalType": "string",
          "name": "projectName",
          "type": "string"
        },
        {
          "internalType": "string",
          "name": "projectDescription",
          "type": "string"
        },
        {
          "internalType": "string",
          "name": "skillArea",
          "type": "string"
        },
        {
          "internalType": "bool",
          "name": "isAssigned",
          "type": "bool"
        },
        {
          "internalType": "bool",
          "name": "isCompleted",
          "type": "bool"
        }
      ],
      "stateMutability": "view",
      "type": "function"
    },
    {
      "inputs": [
        {
          "internalType": "string",
          "name": "_name",
          "type": "string"
        },
        {
          "internalType": "string",
          "name": "_expertise",
          "type": "string"
        },
        {
          "internalType": "string",
          "name": "_email",
          "type": "string"
        }
      ],
      "name": "registerMentor",
      "outputs": [],
      "stateMutability": "nonpayable",
      "type": "function"
    },
    {
      "inputs": [
        {
          "internalType": "string",
          "name": "_name",
          "type": "string"
        },
        {
          "internalType": "string",
          "name": "_email",
          "type": "string"
        },
        {
          "internalType": "string",
          "name": "_skills",
          "type": "string"
        },
        {
          "internalType": "string",
          "name": "_collegeName",
          "type": "string"
        },
        {
          "internalType": "string",
          "name": "_achievements",
          "type": "string"
        }
      ],
      "name": "registerStudent",
      "outputs": [],
      "stateMutability": "nonpayable",
      "type": "function"
    },
    {
      "inputs": [],
      "name": "renounceOwnership",
      "outputs": [],
      "stateMutability": "nonpayable",
      "type": "function"
    },
    {
      "inputs": [
        {
          "internalType": "address",
          "name": "_mentor",
          "type": "address"
        }
      ],
      "name": "requestMentorship",
      "outputs": [],
      "stateMutability": "nonpayable",
      "type": "function"
    },
    {
      "inputs": [
        {
          "internalType": "address",
          "name": "from",
          "type": "address"
        },
        {
          "internalType": "address",
          "name": "to",
          "type": "address"
        },
        {
          "internalType": "uint256",
          "name": "tokenId",
          "type": "uint256"
        }
      ],
      "name": "safeTransferFrom",
      "outputs": [],
      "stateMutability": "nonpayable",
      "type": "function"
    },
    {
      "inputs": [
        {
          "internalType": "address",
          "name": "from",
          "type": "address"
        },
        {
          "internalType": "address",
          "name": "to",
          "type": "address"
        },
        {
          "internalType": "uint256",
          "name": "tokenId",
          "type": "uint256"
        },
        {
          "internalType": "bytes",
          "name": "data",
          "type": "bytes"
        }
      ],
      "name": "safeTransferFrom",
      "outputs": [],
      "stateMutability": "nonpayable",
      "type": "function"
    },
    {
      "inputs": [
        {
          "internalType": "address",
          "name": "operator",
          "type": "address"
        },
        {
          "internalType": "bool",
          "name": "approved",
          "type": "bool"
        }
      ],
      "name": "setApprovalForAll",
      "outputs": [],
      "stateMutability": "nonpayable",
      "type": "function"
    },
    {
      "inputs": [],
      "name": "studentCounter",
      "outputs": [
        {
          "internalType": "uint256",
          "name": "",
          "type": "uint256"
        }
      ],
      "stateMutability": "view",
      "type": "function"
    },
    {
      "inputs": [
        {
          "internalType": "address",
          "name": "",
          "type": "address"
        },
        {
          "internalType": "uint256",
          "name": "",
          "type": "uint256"
        }
      ],
      "name": "studentProjects",
      "outputs": [
        {
          "internalType": "uint256",
          "name": "",
          "type": "uint256"
        }
      ],
      "stateMutability": "view",
      "type": "function"
    },
    {
      "inputs": [
        {
          "internalType": "address",
          "name": "",
          "type": "address"
        }
      ],
      "name": "students",
      "outputs": [
        {
          "internalType": "address",
          "name": "studentAddress",
          "type": "address"
        },
        {
          "internalType": "string",
          "name": "name",
          "type": "string"
        },
        {
          "internalType": "string",
          "name": "email",
          "type": "string"
        },
        {
          "internalType": "string",
          "name": "skills",
          "type": "string"
        },
        {
          "internalType": "string",
          "name": "collegeName",
          "type": "string"
        },
        {
          "internalType": "string",
          "name": "achievements",
          "type": "string"
        }
      ],
      "stateMutability": "view",
      "type": "function"
    },
    {
      "inputs": [
        {
          "internalType": "bytes4",
          "name": "interfaceId",
          "type": "bytes4"
        }
      ],
      "name": "supportsInterface",
      "outputs": [
        {
          "internalType": "bool",
          "name": "",
          "type": "bool"
        }
      ],
      "stateMutability": "view",
      "type": "function"
    },
    {
      "inputs": [],
      "name": "symbol",
      "outputs": [
        {
          "internalType": "string",
          "name": "",
          "type": "string"
        }
      ],
      "stateMutability": "view",
      "type": "function"
    },
    {
      "inputs": [
        {
          "internalType": "uint256",
          "name": "tokenId",
          "type": "uint256"
        }
      ],
      "name": "tokenURI",
      "outputs": [
        {
          "internalType": "string",
          "name": "",
          "type": "string"
        }
      ],
      "stateMutability": "view",
      "type": "function"
    },
    {
      "inputs": [
        {
          "internalType": "address",
          "name": "from",
          "type": "address"
        },
        {
          "internalType": "address",
          "name": "to",
          "type": "address"
        },
        {
          "internalType": "uint256",
          "name": "tokenId",
          "type": "uint256"
        }
      ],
      "name": "transferFrom",
      "outputs": [],
      "stateMutability": "nonpayable",
      "type": "function"
    },
    {
      "inputs": [
        {
          "internalType": "address",
          "name": "newOwner",
          "type": "address"
        }
      ],
      "name": "transferOwnership",
      "outputs": [],
      "stateMutability": "nonpayable",
      "type": "function"
    }
  ],
  "bytecode": "0x60806040523480156200001157600080fd5b506040518060400160405280601181526020017f4d656e746f7243657274696669636174650000000000000000000000000000008152506040518060400160405280600581526020017f4d4345525400000000000000000000000000000000000000000000000000000081525033600073ffffffffffffffffffffffffffffffffffffffff168173ffffffffffffffffffffffffffffffffffffffff1603620000f45760006040517f1e4fbdf7000000000000000000000000000000000000000000000000000000008152600401620000eb91906200025b565b60405180910390fd5b62000105816200015260201b60201c565b508160019081620001179190620004f2565b508060029081620001299190620004f2565b5050506000601181905550600060128190555060006013819055506000601481905550620005d9565b60008060009054906101000a900473ffffffffffffffffffffffffffffffffffffffff169050816000806101000a81548173ffffffffffffffffffffffffffffffffffffffff021916908373ffffffffffffffffffffffffffffffffffffffff1602179055508173ffffffffffffffffffffffffffffffffffffffff168173ffffffffffffffffffffffffffffffffffffffff167f8be0079c531659141344cd1fd0a4f28419497f9722a3daafe3b4186f6b6457e060405160405180910390a35050565b600073ffffffffffffffffffffffffffffffffffffffff82169050919050565b6000620002438262000216565b9050919050565b620002558162000236565b82525050565b60006020820190506200027260008301846200024a565b92915050565b600081519050919050565b7f4e487b7100000000000000000000000000000000000000000000000000000000600052604160045260246000fd5b7f4e487b7100000000000000000000000000000000000000000000000000000000600052602260045260246000fd5b60006002820490506001821680620002fa57607f821691505b60208210810362000310576200030f620002b2565b5b50919050565b60008190508160005260206000209050919050565b60006020601f8301049050919050565b600082821b905092915050565b6000600883026200037a7fffffffffffffffffffffffffffffffffffffffffffffffffffffffffffffffff826200033b565b6200038686836200033b565b95508019841693508086168417925050509392505050565b6000819050919050565b6000819050919050565b6000620003d3620003cd620003c7846200039e565b620003a8565b6200039e565b9050919050565b6000819050919050565b620003ef83620003b2565b62000407620003fe82620003da565b84845462000348565b825550505050565b600090565b6200041e6200040f565b6200042b818484620003e4565b505050565b5b8181101562000453576200044760008262000414565b60018101905062000431565b5050565b601f821115620004a2576200046c8162000316565b62000477846200032b565b8101602085101562000487578190505b6200049f62000496856200032b565b83018262000430565b50505b505050565b600082821c905092915050565b6000620004c760001984600802620004a7565b1980831691505092915050565b6000620004e28383620004b4565b9150826002028217905092915050565b620004fd8262000278565b67ffffffffffffffff81111562000519576200051862000283565b5b620005258254620002e1565b6200053282828562000457565b600060209050601f8311600181146200056a576000841562000555578287015190505b620005618582620004d4565b865550620005d1565b601f1984166200057a8662000316565b60005b82811015620005a4578489015182556001820191506020850194506020810190506200057d565b86831015620005c45784890151620005c0601f891682620004b4565b8355505b6001600288020188555050505b505050505050565b61685880620005e96000396000f3fe608060405234801561001057600080fd5b506004361061028a5760003560e01c806378bcba8d1161015c578063bb1467f4116100ce578063d191925811610087578063d191925814610857578063e3596cac14610887578063e985e9c5146108a5578063eed4ea8f146108d5578063f2fde38b1461090a578063f8a518ed146109265761028a565b8063bb1467f414610771578063bb721aab146107a1578063c7af8642146107bd578063c87b56dd146107db578063cf7be6ec1461080b578063d0d1ee23146108275761028a565b8063981e9c2b11610120578063981e9c2b14610695578063a22cb465146106b1578063a6c807a9146106cd578063b88d4fde14610702578063b9b892971461071e578063ba023b411461074e5761028a565b806378bcba8d146105dd5780637f7582e31461060d5780638417bce8146106295780638da5cb5b1461065957806395d89b41146106775761028a565b80633448e66f116102005780636352211e116101b95780636352211e14610507578063675200721461053757806367764b261461055557806370a0823114610573578063715018a6146105a357806375f7c1dd146105ad5761028a565b80633448e66f146104305780633a1538dc146104605780633a5c19cc1461047c57806342842e0e1461049a57806350fe7b90146104b657806352852e5f146104eb5761028a565b8063195dcdee11610252578063195dcdee146103605780632245f1521461039057806323b872dd146103ac57806328d1bec5146103c857806329168359146103e45780632c0b8992146104145761028a565b806301ffc9a71461028f57806306fdde03146102bf578063081812fc146102dd578063095ea7b31461030d578063107046bd14610329575b600080fd5b6102a960048036038101906102a49190614f6e565b610944565b6040516102b69190614fb6565b60405180910390f35b6102c76109a5565b6040516102d49190615061565b60405180910390f35b6102f760048036038101906102f291906150b9565b610a37565b6040516103049190615127565b60405180910390f35b6103276004803603810190610322919061516e565b610a53565b005b610343600480360381019061033e91906150b9565b610a69565b6040516103579897969594939291906151bd565b60405180910390f35b61037a6004803603810190610375919061516e565b610ca3565b6040516103879190615250565b60405180910390f35b6103aa60048036038101906103a591906150b9565b610cd4565b005b6103c660048036038101906103c1919061526b565b610e9e565b005b6103e260048036038101906103dd91906152be565b610fa0565b005b6103fe60048036038101906103f9919061516e565b61112c565b60405161040b9190615127565b60405180910390f35b61042e600480360381019061042991906152be565b61117a565b005b61044a6004803603810190610445919061516e565b6113ac565b6040516104579190615250565b60405180910390f35b61047a600480360381019061047591906152be565b6113dd565b005b6104846116a3565b6040516104919190615250565b60405180910390f35b6104b460048036038101906104af919061526b565b6116a9565b005b6104d060048036038101906104cb91906152be565b6116c9565b6040516104e296959493929190615573565b60405180910390f35b61050560048036038101906105009190615733565b611cd8565b005b610521600480360381019061051c91906150b9565b612021565b60405161052e9190615127565b60405180910390f35b61053f612033565b60405161054c9190615898565b60405180910390f35b61055d6120c1565b60405161056a9190615250565b60405180910390f35b61058d600480360381019061058891906152be565b6120c7565b60405161059a9190615250565b60405180910390f35b6105ab612181565b005b6105c760048036038101906105c291906150b9565b612195565b6040516105d49190615127565b60405180910390f35b6105f760048036038101906105f291906152be565b6121d4565b60405161060491906158ba565b60405180910390f35b610627600480360381019061062291906158dc565b61226b565b005b610643600480360381019061063e91906150b9565b6125bc565b6040516106509190615127565b60405180910390f35b6106616125fb565b60405161066e9190615127565b60405180910390f35b61067f612624565b60405161068c9190615061565b60405180910390f35b6106af60048036038101906106aa91906159e3565b6126b6565b005b6106cb60048036038101906106c69190615a4f565b612a21565b005b6106e760048036038101906106e291906152be565b612a37565b6040516106f996959493929190615a8f565b60405180910390f35b61071c60048036038101906107179190615bb4565b612d3b565b005b610738600480360381019061073391906152be565b612d60565b6040516107459190615898565b60405180910390f35b610756612e30565b60405161076896959493929190615c37565b60405180910390f35b61078b600480360381019061078691906150b9565b6133a6565b6040516107989190615250565b60405180910390f35b6107bb60048036038101906107b69190615cc2565b6133ca565b005b6107c56134f5565b6040516107d291906158ba565b60405180910390f35b6107f560048036038101906107f091906150b9565b61354d565b6040516108029190615061565b60405180910390f35b61082560048036038101906108209190615733565b613660565b005b610841600480360381019061083c91906152be565b613991565b60405161084e9190614fb6565b60405180910390f35b610871600480360381019061086c91906152be565b6139ea565b60405161087e9190615898565b60405180910390f35b61088f613aba565b60405161089c9190615250565b60405180910390f35b6108bf60048036038101906108ba9190615d1e565b613ac0565b6040516108cc9190614fb6565b60405180910390f35b6108ef60048036038101906108ea91906152be565b613b54565b60405161090196959493929190615d5e565b60405180910390f35b610924600480360381019061091f91906152be565b613d55565b005b61092e613ddb565b60405161093b9190615250565b60405180910390f35b6000634906490660e01b7bffffffffffffffffffffffffffffffffffffffffffffffffffffffff1916827bffffffffffffffffffffffffffffffffffffffffffffffffffffffff1916148061099e575061099d82613de1565b5b9050919050565b6060600180546109b490615e03565b80601f01602080910402602001604051908101604052809291908181526020018280546109e090615e03565b8015610a2d5780601f10610a0257610100808354040283529160200191610a2d565b820191906000526020600020905b815481529060010190602001808311610a1057829003601f168201915b5050505050905090565b6000610a4282613ec3565b50610a4c82613f4b565b9050919050565b610a658282610a60613f88565b613f90565b5050565b600a6020528060005260406000206000915090508060000154908060010160009054906101000a900473ffffffffffffffffffffffffffffffffffffffff16908060020160009054906101000a900473ffffffffffffffffffffffffffffffffffffffff1690806003018054610ade90615e03565b80601f0160208091040260200160405190810160405280929190818152602001828054610b0a90615e03565b8015610b575780601f10610b2c57610100808354040283529160200191610b57565b820191906000526020600020905b815481529060010190602001808311610b3a57829003601f168201915b505050505090806004018054610b6c90615e03565b80601f0160208091040260200160405190810160405280929190818152602001828054610b9890615e03565b8015610be55780601f10610bba57610100808354040283529160200191610be5565b820191906000526020600020905b815481529060010190602001808311610bc857829003601f168201915b505050505090806005018054610bfa90615e03565b80601f0160208091040260200160405190810160405280929190818152602001828054610c2690615e03565b8015610c735780601f10610c4857610100808354040283529160200191610c73565b820191906000526020600020905b815481529060010190602001808311610c5657829003601f168201915b5050505050908060060160009054906101000a900460ff16908060060160019054906101000a900460ff16905088565b600c6020528160005260406000208181548110610cbf57600080fd5b90600052602060002001600091509150505481565b3373ffffffffffffffffffffffffffffffffffffffff16600a600083815260200190815260200160002060010160009054906101000a900473ffffffffffffffffffffffffffffffffffffffff1673ffffffffffffffffffffffffffffffffffffffff1614610d78576040517f08c379a0000000000000000000000000000000000000000000000000000000008152600401610d6f90615e80565b60405180910390fd5b600a600082815260200190815260200160002060060160009054906101000a900460ff16610ddb576040517f08c379a0000000000000000000000000000000000000000000000000000000008152600401610dd290615eec565b60405180910390fd5b600a600082815260200190815260200160002060060160019054906101000a900460ff1615610e3f576040517f08c379a0000000000000000000000000000000000000000000000000000000008152600401610e3690615f58565b60405180910390fd5b6001600a600083815260200190815260200160002060060160016101000a81548160ff021916908315150217905550807f60d8df137e489b6216738e436244ca4700bd6d0c8371d3c8d9c80b54538111b960405160405180910390a250565b600073ffffffffffffffffffffffffffffffffffffffff168273ffffffffffffffffffffffffffffffffffffffff1603610f105760006040517f64a0ae92000000000000000000000000000000000000000000000000000000008152600401610f079190615127565b60405180910390fd5b6000610f248383610f1f613f88565b613fa2565b90508373ffffffffffffffffffffffffffffffffffffffff168173ffffffffffffffffffffffffffffffffffffffff1614610f9a578382826040517f64283d7b000000000000000000000000000000000000000000000000000000008152600401610f9193929190615f78565b60405180910390fd5b50505050565b600860008273ffffffffffffffffffffffffffffffffffffffff1673ffffffffffffffffffffffffffffffffffffffff16815260200190815260200160002060040160009054906101000a900460ff1661102f576040517f08c379a000000000000000000000000000000000000000000000000000000000815260040161102690615ffb565b60405180910390fd5b600d60008273ffffffffffffffffffffffffffffffffffffffff1673ffffffffffffffffffffffffffffffffffffffff168152602001908152602001600020339080600181540180825580915050600190039060005260206000200160009091909190916101000a81548173ffffffffffffffffffffffffffffffffffffffff021916908373ffffffffffffffffffffffffffffffffffffffff1602179055508073ffffffffffffffffffffffffffffffffffffffff163373ffffffffffffffffffffffffffffffffffffffff167fa194c7a12e65a9b09c4268208e7b6e1ff72de3679dae488895b4844f9a66d03e60405160405180910390a350565b600d602052816000526040600020818154811061114857600080fd5b906000526020600020016000915091509054906101000a900473ffffffffffffffffffffffffffffffffffffffff1681565b600860003373ffffffffffffffffffffffffffffffffffffffff1673ffffffffffffffffffffffffffffffffffffffff16815260200190815260200160002060040160009054906101000a900460ff16611209576040517f08c379a000000000000000000000000000000000000000000000000000000000815260040161120090615ffb565b60405180910390fd5b600860003373ffffffffffffffffffffffffffffffffffffffff1673ffffffffffffffffffffffffffffffffffffffff168152602001908152602001600020600601819080600181540180825580915050600190039060005260206000200160009091909190916101000a81548173ffffffffffffffffffffffffffffffffffffffff021916908373ffffffffffffffffffffffffffffffffffffffff160217905550600960008273ffffffffffffffffffffffffffffffffffffffff1673ffffffffffffffffffffffffffffffffffffffff168152602001908152602001600020600601339080600181540180825580915050600190039060005260206000200160009091909190916101000a81548173ffffffffffffffffffffffffffffffffffffffff021916908373ffffffffffffffffffffffffffffffffffffffff1602179055508073ffffffffffffffffffffffffffffffffffffffff163373ffffffffffffffffffffffffffffffffffffffff167fb0c1b22117be07214762da7d60cde9dd0865c045906312f00009e99723b94b4060405160405180910390a350565b600b60205281600052604060002081815481106113c857600080fd5b90600052602060002001600091509150505481565b6113e56141bc565b600860008273ffffffffffffffffffffffffffffffffffffffff1673ffffffffffffffffffffffffffffffffffffffff16815260200190815260200160002060040160009054906101000a900460ff1615611475576040517f08c379a000000000000000000000000000000000000000000000000000000000815260040161146c90616067565b60405180910390fd5b6001600860008373ffffffffffffffffffffffffffffffffffffffff1673ffffffffffffffffffffffffffffffffffffffff16815260200190815260200160002060040160006101000a81548160ff02191690831515021790555060005b600e8054905081101561165c578173ffffffffffffffffffffffffffffffffffffffff16600e828154811061150b5761150a616087565b5b9060005260206000200160009054906101000a900473ffffffffffffffffffffffffffffffffffffffff1673ffffffffffffffffffffffffffffffffffffffff160361164957600e6001600e8054905061156591906160e5565b8154811061157657611575616087565b5b9060005260206000200160009054906101000a900473ffffffffffffffffffffffffffffffffffffffff16600e82815481106115b5576115b4616087565b5b9060005260206000200160006101000a81548173ffffffffffffffffffffffffffffffffffffffff021916908373ffffffffffffffffffffffffffffffffffffffff160217905550600e80548061160f5761160e616119565b5b6001900381819060005260206000200160006101000a81549073ffffffffffffffffffffffffffffffffffffffff0219169055905561165c565b808061165490616148565b9150506114d3565b508073ffffffffffffffffffffffffffffffffffffffff167f08a5d48c91397c761935760849b81a8cb681410df32740fcd32c2e51f21633d560405160405180910390a250565b60115481565b6116c483838360405180602001604052806000815250612d3b565b505050565b6060806060806060806000600b60008973ffffffffffffffffffffffffffffffffffffffff1673ffffffffffffffffffffffffffffffffffffffff16815260200190815260200160002080548060200260200160405190810160405280929190818152602001828054801561175d57602002820191906000526020600020905b815481526020019060010190808311611749575b5050505050905060008151905060008167ffffffffffffffff81111561178657611785615608565b5b6040519080825280602002602001820160405280156117b957816020015b60608152602001906001900390816117a45790505b50905060008267ffffffffffffffff8111156117d8576117d7615608565b5b60405190808252806020026020018201604052801561180b57816020015b60608152602001906001900390816117f65790505b50905060008367ffffffffffffffff81111561182a57611829615608565b5b60405190808252806020026020018201604052801561185d57816020015b60608152602001906001900390816118485790505b50905060008467ffffffffffffffff81111561187c5761187b615608565b5b6040519080825280602002602001820160405280156118aa5781602001602082028036833780820191505090505b50905060008567ffffffffffffffff8111156118c9576118c8615608565b5b6040519080825280602002602001820160405280156118f75781602001602082028036833780820191505090505b50905060005b86811015611cb5576000600a60008a848151811061191e5761191d616087565b5b6020026020010151815260200190815260200160002060405180610100016040529081600082015481526020016001820160009054906101000a900473ffffffffffffffffffffffffffffffffffffffff1673ffffffffffffffffffffffffffffffffffffffff1673ffffffffffffffffffffffffffffffffffffffff1681526020016002820160009054906101000a900473ffffffffffffffffffffffffffffffffffffffff1673ffffffffffffffffffffffffffffffffffffffff1673ffffffffffffffffffffffffffffffffffffffff168152602001600382018054611a0690615e03565b80601f0160208091040260200160405190810160405280929190818152602001828054611a3290615e03565b8015611a7f5780601f10611a5457610100808354040283529160200191611a7f565b820191906000526020600020905b815481529060010190602001808311611a6257829003601f168201915b50505050508152602001600482018054611a9890615e03565b80601f0160208091040260200160405190810160405280929190818152602001828054611ac490615e03565b8015611b115780601f10611ae657610100808354040283529160200191611b11565b820191906000526020600020905b815481529060010190602001808311611af457829003601f168201915b50505050508152602001600582018054611b2a90615e03565b80601f0160208091040260200160405190810160405280929190818152602001828054611b5690615e03565b8015611ba35780601f10611b7857610100808354040283529160200191611ba3565b820191906000526020600020905b815481529060010190602001808311611b8657829003601f168201915b505050505081526020016006820160009054906101000a900460ff161515151581526020016006820160019054906101000a900460ff16151515158152505090508060600151878381518110611bfc57611bfb616087565b5b60200260200101819052508060800151868381518110611c1f57611c1e616087565b5b60200260200101819052508060a00151858381518110611c4257611c41616087565b5b60200260200101819052508060c00151848381518110611c6557611c64616087565b5b6020026020010190151590811515815250508060e00151838381518110611c8f57611c8e616087565b5b602002602001019015159081151581525050508080611cad90616148565b9150506118fd565b508685858585859c509c509c509c509c509c505050505050505091939550919395565b600073ffffffffffffffffffffffffffffffffffffffff16600860003373ffffffffffffffffffffffffffffffffffffffff1673ffffffffffffffffffffffffffffffffffffffff16815260200190815260200160002060000160009054906101000a900473ffffffffffffffffffffffffffffffffffffffff1673ffffffffffffffffffffffffffffffffffffffff1614611da9576040517f08c379a0000000000000000000000000000000000000000000000000000000008152600401611da0906161dc565b60405180910390fd5b6040518060e001604052803373ffffffffffffffffffffffffffffffffffffffff16815260200184815260200183815260200182815260200160001515815260200160008152602001600067ffffffffffffffff811115611e0d57611e0c615608565b5b604051908082528060200260200182016040528015611e3b5781602001602082028036833780820191505090505b50815250600860003373ffffffffffffffffffffffffffffffffffffffff1673ffffffffffffffffffffffffffffffffffffffff16815260200190815260200160002060008201518160000160006101000a81548173ffffffffffffffffffffffffffffffffffffffff021916908373ffffffffffffffffffffffffffffffffffffffff1602179055506020820151816001019081611eda91906163a8565b506040820151816002019081611ef091906163a8565b506060820151816003019081611f0691906163a8565b5060808201518160040160006101000a81548160ff02191690831515021790555060a0820151816005015560c0820151816006019080519060200190611f4d929190614e0e565b50905050600e339080600181540180825580915050600190039060005260206000200160009091909190916101000a81548173ffffffffffffffffffffffffffffffffffffffff021916908373ffffffffffffffffffffffffffffffffffffffff16021790555060116000815480929190611fc790616148565b91905055503373ffffffffffffffffffffffffffffffffffffffff167fc14e42bf83a73674998a153215f928d3b78dd41101d83cac9ca5ea8f8844ff63848460405161201492919061647a565b60405180910390a2505050565b600061202c82613ec3565b9050919050565b6060600e8054806020026020016040519081016040528092919081815260200182805480156120b757602002820191906000526020600020905b8160009054906101000a900473ffffffffffffffffffffffffffffffffffffffff1673ffffffffffffffffffffffffffffffffffffffff168152602001906001019080831161206d575b5050505050905090565b60145481565b60008073ffffffffffffffffffffffffffffffffffffffff168273ffffffffffffffffffffffffffffffffffffffff160361213a5760006040517f89c62b640000000000000000000000000000000000000000000000000000000081526004016121319190615127565b60405180910390fd5b600460008373ffffffffffffffffffffffffffffffffffffffff1673ffffffffffffffffffffffffffffffffffffffff168152602001908152602001600020549050919050565b6121896141bc565b6121936000614243565b565b600e81815481106121a557600080fd5b906000526020600020016000915054906101000a900473ffffffffffffffffffffffffffffffffffffffff1681565b6060600c60008373ffffffffffffffffffffffffffffffffffffffff1673ffffffffffffffffffffffffffffffffffffffff16815260200190815260200160002080548060200260200160405190810160405280929190818152602001828054801561225f57602002820191906000526020600020905b81548152602001906001019080831161224b575b50505050509050919050565b600073ffffffffffffffffffffffffffffffffffffffff16600960003373ffffffffffffffffffffffffffffffffffffffff1673ffffffffffffffffffffffffffffffffffffffff16815260200190815260200160002060000160009054906101000a900473ffffffffffffffffffffffffffffffffffffffff1673ffffffffffffffffffffffffffffffffffffffff161461233c576040517f08c379a0000000000000000000000000000000000000000000000000000000008152600401612333906164fd565b60405180910390fd5b6040518061010001604052803373ffffffffffffffffffffffffffffffffffffffff168152602001868152602001858152602001848152602001838152602001828152602001600067ffffffffffffffff81111561239d5761239c615608565b5b6040519080825280602002602001820160405280156123cb5781602001602082028036833780820191505090505b508152602001600067ffffffffffffffff8111156123ec576123eb615608565b5b60405190808252806020026020018201604052801561241a5781602001602082028036833780820191505090505b50815250600960003373ffffffffffffffffffffffffffffffffffffffff1673ffffffffffffffffffffffffffffffffffffffff16815260200190815260200160002060008201518160000160006101000a81548173ffffffffffffffffffffffffffffffffffffffff021916908373ffffffffffffffffffffffffffffffffffffffff16021790555060208201518160010190816124b991906163a8565b5060408201518160020190816124cf91906163a8565b5060608201518160030190816124e591906163a8565b5060808201518160040190816124fb91906163a8565b5060a082015181600501908161251191906163a8565b5060c082015181600601908051906020019061252e929190614e0e565b5060e082015181600701908051906020019061254b929190614e98565b509050506012600081548092919061256290616148565b91905055503373ffffffffffffffffffffffffffffffffffffffff167fc1b20826100814ba286ac576fe980df1dbbcef3d904bb81f3d69a0e8280dc114866040516125ad9190615061565b60405180910390a25050505050565b600f81815481106125cc57600080fd5b906000526020600020016000915054906101000a900473ffffffffffffffffffffffffffffffffffffffff1681565b60008060009054906101000a900473ffffffffffffffffffffffffffffffffffffffff16905090565b60606002805461263390615e03565b80601f016020809104026020016040519081016040528092919081815260200182805461265f90615e03565b80156126ac5780601f10612681576101008083540402835291602001916126ac565b820191906000526020600020905b81548152906001019060200180831161268f57829003601f168201915b5050505050905090565b3373ffffffffffffffffffffffffffffffffffffffff16600a600084815260200190815260200160002060010160009054906101000a900473ffffffffffffffffffffffffffffffffffffffff1673ffffffffffffffffffffffffffffffffffffffff161461275a576040517f08c379a000000000000000000000000000000000000000000000000000000000815260040161275190616569565b60405180910390fd5b600a600083815260200190815260200160002060060160009054906101000a900460ff16156127be576040517f08c379a00000000000000000000000000000000000000000000000000000000081526004016127b5906165d5565b60405180910390fd5b80600a600084815260200190815260200160002060020160006101000a81548173ffffffffffffffffffffffffffffffffffffffff021916908373ffffffffffffffffffffffffffffffffffffffff1602179055506001600a600084815260200190815260200160002060060160006101000a81548160ff021916908315150217905550600960008273ffffffffffffffffffffffffffffffffffffffff1673ffffffffffffffffffffffffffffffffffffffff168152602001908152602001600020600701829080600181540180825580915050600190039060005260206000200160009091909190915055600c60008273ffffffffffffffffffffffffffffffffffffffff1673ffffffffffffffffffffffffffffffffffffffff16815260200190815260200160002082908060018154018082558091505060019003906000526020600020016000909190919091505560005b6010805490508110156129d857826010828154811061293657612935616087565b5b9060005260206000200154036129c5576010600160108054905061295a91906160e5565b8154811061296b5761296a616087565b5b90600052602060002001546010828154811061298a57612989616087565b5b906000526020600020018190555060108054806129aa576129a9616119565b5b600190038181906000526020600020016000905590556129d8565b80806129d090616148565b915050612914565b508073ffffffffffffffffffffffffffffffffffffffff16827fcf346ab23a9abaabaa0eb4683b99ec1de094de5e7255af7623cbe740d4c0f16260405160405180910390a35050565b612a33612a2c613f88565b8383614307565b5050565b60096020528060005260406000206000915090508060000160009054906101000a900473ffffffffffffffffffffffffffffffffffffffff1690806001018054612a8090615e03565b80601f0160208091040260200160405190810160405280929190818152602001828054612aac90615e03565b8015612af95780601f10612ace57610100808354040283529160200191612af9565b820191906000526020600020905b815481529060010190602001808311612adc57829003601f168201915b505050505090806002018054612b0e90615e03565b80601f0160208091040260200160405190810160405280929190818152602001828054612b3a90615e03565b8015612b875780601f10612b5c57610100808354040283529160200191612b87565b820191906000526020600020905b815481529060010190602001808311612b6a57829003601f168201915b505050505090806003018054612b9c90615e03565b80601f0160208091040260200160405190810160405280929190818152602001828054612bc890615e03565b8015612c155780601f10612bea57610100808354040283529160200191612c15565b820191906000526020600020905b815481529060010190602001808311612bf857829003601f168201915b505050505090806004018054612c2a90615e03565b80601f0160208091040260200160405190810160405280929190818152602001828054612c5690615e03565b8015612ca35780601f10612c7857610100808354040283529160200191612ca3565b820191906000526020600020905b815481529060010190602001808311612c8657829003601f168201915b505050505090806005018054612cb890615e03565b80601f0160208091040260200160405190810160405280929190818152602001828054612ce490615e03565b8015612d315780601f10612d0657610100808354040283529160200191612d31565b820191906000526020600020905b815481529060010190602001808311612d1457829003601f168201915b5050505050905086565b612d46848484610e9e565b612d5a612d51613f88565b85858585614476565b50505050565b6060600860008373ffffffffffffffffffffffffffffffffffffffff1673ffffffffffffffffffffffffffffffffffffffff168152602001908152602001600020600601805480602002602001604051908101604052809291908181526020018280548015612e2457602002820191906000526020600020905b8160009054906101000a900473ffffffffffffffffffffffffffffffffffffffff1673ffffffffffffffffffffffffffffffffffffffff1681526020019060010190808311612dda575b50505050509050919050565b6060806060806060806000600f80549050905060008167ffffffffffffffff811115612e5f57612e5e615608565b5b604051908082528060200260200182016040528015612e8d5781602001602082028036833780820191505090505b50905060008267ffffffffffffffff811115612eac57612eab615608565b5b604051908082528060200260200182016040528015612edf57816020015b6060815260200190600190039081612eca5790505b50905060008367ffffffffffffffff811115612efe57612efd615608565b5b604051908082528060200260200182016040528015612f3157816020015b6060815260200190600190039081612f1c5790505b50905060008467ffffffffffffffff811115612f5057612f4f615608565b5b604051908082528060200260200182016040528015612f8357816020015b6060815260200190600190039081612f6e5790505b50905060008567ffffffffffffffff811115612fa257612fa1615608565b5b604051908082528060200260200182016040528015612fd05781602001602082028036833780820191505090505b50905060008667ffffffffffffffff811115612fef57612fee615608565b5b60405190808252806020026020018201604052801561301d5781602001602082028036833780820191505090505b50905060005b87811015613384576000600f828154811061304157613040616087565b5b9060005260206000200160009054906101000a900473ffffffffffffffffffffffffffffffffffffffff1690506000600860008373ffffffffffffffffffffffffffffffffffffffff1673ffffffffffffffffffffffffffffffffffffffff16815260200190815260200160002090508060000160009054906101000a900473ffffffffffffffffffffffffffffffffffffffff168984815181106130e9576130e8616087565b5b602002602001019073ffffffffffffffffffffffffffffffffffffffff16908173ffffffffffffffffffffffffffffffffffffffff168152505080600101805461313290615e03565b80601f016020809104026020016040519081016040528092919081815260200182805461315e90615e03565b80156131ab5780601f10613180576101008083540402835291602001916131ab565b820191906000526020600020905b81548152906001019060200180831161318e57829003601f168201915b50505050508884815181106131c3576131c2616087565b5b60200260200101819052508060020180546131dd90615e03565b80601f016020809104026020016040519081016040528092919081815260200182805461320990615e03565b80156132565780601f1061322b57610100808354040283529160200191613256565b820191906000526020600020905b81548152906001019060200180831161323957829003601f168201915b505050505087848151811061326e5761326d616087565b5b602002602001018190525080600301805461328890615e03565b80601f01602080910402602001604051908101604052809291908181526020018280546132b490615e03565b80156133015780601f106132d657610100808354040283529160200191613301565b820191906000526020600020905b8154815290600101906020018083116132e457829003601f168201915b505050505086848151811061331957613318616087565b5b6020026020010181905250806005015485848151811061333c5761333b616087565b5b602002602001018181525050806006018054905084848151811061336357613362616087565b5b6020026020010181815250505050808061337c90616148565b915050613023565b508585858585859c509c509c509c509c509c5050505050505050909192939495565b601081815481106133b657600080fd5b906000526020600020016000915090505481565b600860003373ffffffffffffffffffffffffffffffffffffffff1673ffffffffffffffffffffffffffffffffffffffff16815260200190815260200160002060040160009054906101000a900460ff16613459576040517f08c379a000000000000000000000000000000000000000000000000000000000815260040161345090616667565b60405180910390fd5b6014600081548092919061346c90616148565b919050555061347d82601454614627565b61348960145482614720565b8173ffffffffffffffffffffffffffffffffffffffff163373ffffffffffffffffffffffffffffffffffffffff166014547f6f747fdac87b156ec553ed1d5b44a6d7f348858e9ae1bf353fd667d656053857846040516134e99190615061565b60405180910390a45050565b6060601080548060200260200160405190810160405280929190818152602001828054801561354357602002820191906000526020600020905b81548152602001906001019080831161352f575b5050505050905090565b606061355882613ec3565b50600060076000848152602001908152602001600020805461357990615e03565b80601f01602080910402602001604051908101604052809291908181526020018280546135a590615e03565b80156135f25780601f106135c7576101008083540402835291602001916135f2565b820191906000526020600020905b8154815290600101906020018083116135d557829003601f168201915b50505050509050600061360361477c565b9050600081510361361857819250505061365b565b60008251111561364d5780826040516020016136359291906166c3565b6040516020818303038152906040529250505061365b565b61365684614793565b925050505b919050565b600860003373ffffffffffffffffffffffffffffffffffffffff1673ffffffffffffffffffffffffffffffffffffffff16815260200190815260200160002060040160009054906101000a900460ff166136ef576040517f08c379a00000000000000000000000000000000000000000000000000000000081526004016136e690615ffb565b60405180910390fd5b6013600081548092919061370290616148565b919050555060405180610100016040528060135481526020013373ffffffffffffffffffffffffffffffffffffffff168152602001600073ffffffffffffffffffffffffffffffffffffffff16815260200184815260200183815260200182815260200160001515815260200160001515815250600a600060135481526020019081526020016000206000820151816000015560208201518160010160006101000a81548173ffffffffffffffffffffffffffffffffffffffff021916908373ffffffffffffffffffffffffffffffffffffffff16021790555060408201518160020160006101000a81548173ffffffffffffffffffffffffffffffffffffffff021916908373ffffffffffffffffffffffffffffffffffffffff160217905550606082015181600301908161383891906163a8565b50608082015181600401908161384e91906163a8565b5060a082015181600501908161386491906163a8565b5060c08201518160060160006101000a81548160ff02191690831515021790555060e08201518160060160016101000a81548160ff021916908315150217905550905050600b60003373ffffffffffffffffffffffffffffffffffffffff1673ffffffffffffffffffffffffffffffffffffffff1681526020019081526020016000206013549080600181540180825580915050600190039060005260206000200160009091909190915055601060135490806001815401808255809150506001900390600052602060002001600090919091909150553373ffffffffffffffffffffffffffffffffffffffff166013547f9d9ec461f162f3f4fdb9f6d189bfe13c59e48d8acd23a4c3bfcf7cc0fe4e84ed856040516139849190615061565b60405180910390a3505050565b6000600860008373ffffffffffffffffffffffffffffffffffffffff1673ffffffffffffffffffffffffffffffffffffffff16815260200190815260200160002060040160009054906101000a900460ff169050919050565b6060600960008373ffffffffffffffffffffffffffffffffffffffff1673ffffffffffffffffffffffffffffffffffffffff168152602001908152602001600020600601805480602002602001604051908101604052809291908181526020018280548015613aae57602002820191906000526020600020905b8160009054906101000a900473ffffffffffffffffffffffffffffffffffffffff1673ffffffffffffffffffffffffffffffffffffffff1681526020019060010190808311613a64575b50505050509050919050565b60125481565b6000600660008473ffffffffffffffffffffffffffffffffffffffff1673ffffffffffffffffffffffffffffffffffffffff16815260200190815260200160002060008373ffffffffffffffffffffffffffffffffffffffff1673ffffffffffffffffffffffffffffffffffffffff16815260200190815260200160002060009054906101000a900460ff16905092915050565b60086020528060005260406000206000915090508060000160009054906101000a900473ffffffffffffffffffffffffffffffffffffffff1690806001018054613b9d90615e03565b80601f0160208091040260200160405190810160405280929190818152602001828054613bc990615e03565b8015613c165780601f10613beb57610100808354040283529160200191613c16565b820191906000526020600020905b815481529060010190602001808311613bf957829003601f168201915b505050505090806002018054613c2b90615e03565b80601f0160208091040260200160405190810160405280929190818152602001828054613c5790615e03565b8015613ca45780601f10613c7957610100808354040283529160200191613ca4565b820191906000526020600020905b815481529060010190602001808311613c8757829003601f168201915b505050505090806003018054613cb990615e03565b80601f0160208091040260200160405190810160405280929190818152602001828054613ce590615e03565b8015613d325780601f10613d0757610100808354040283529160200191613d32565b820191906000526020600020905b815481529060010190602001808311613d1557829003601f168201915b5050505050908060040160009054906101000a900460ff16908060050154905086565b613d5d6141bc565b600073ffffffffffffffffffffffffffffffffffffffff168173ffffffffffffffffffffffffffffffffffffffff1603613dcf5760006040517f1e4fbdf7000000000000000000000000000000000000000000000000000000008152600401613dc69190615127565b60405180910390fd5b613dd881614243565b50565b60135481565b60007f80ac58cd000000000000000000000000000000000000000000000000000000007bffffffffffffffffffffffffffffffffffffffffffffffffffffffff1916827bffffffffffffffffffffffffffffffffffffffffffffffffffffffff19161480613eac57507f5b5e139f000000000000000000000000000000000000000000000000000000007bffffffffffffffffffffffffffffffffffffffffffffffffffffffff1916827bffffffffffffffffffffffffffffffffffffffffffffffffffffffff1916145b80613ebc5750613ebb826147fc565b5b9050919050565b600080613ecf83614866565b9050600073ffffffffffffffffffffffffffffffffffffffff168173ffffffffffffffffffffffffffffffffffffffff1603613f4257826040517f7e273289000000000000000000000000000000000000000000000000000000008152600401613f399190615250565b60405180910390fd5b80915050919050565b60006005600083815260200190815260200160002060009054906101000a900473ffffffffffffffffffffffffffffffffffffffff169050919050565b600033905090565b613f9d83838360016148a3565b505050565b600080613fae84614866565b9050600073ffffffffffffffffffffffffffffffffffffffff168373ffffffffffffffffffffffffffffffffffffffff1614613ff057613fef818486614a68565b5b600073ffffffffffffffffffffffffffffffffffffffff168173ffffffffffffffffffffffffffffffffffffffff1614614081576140326000856000806148a3565b6001600460008373ffffffffffffffffffffffffffffffffffffffff1673ffffffffffffffffffffffffffffffffffffffff168152602001908152602001600020600082825403925050819055505b600073ffffffffffffffffffffffffffffffffffffffff168573ffffffffffffffffffffffffffffffffffffffff1614614104576001600460008773ffffffffffffffffffffffffffffffffffffffff1673ffffffffffffffffffffffffffffffffffffffff168152602001908152602001600020600082825401925050819055505b846003600086815260200190815260200160002060006101000a81548173ffffffffffffffffffffffffffffffffffffffff021916908373ffffffffffffffffffffffffffffffffffffffff160217905550838573ffffffffffffffffffffffffffffffffffffffff168273ffffffffffffffffffffffffffffffffffffffff167fddf252ad1be2c89b69c2b068fc378daa952ba7f163c4a11628f55a4df523b3ef60405160405180910390a4809150509392505050565b6141c4613f88565b73ffffffffffffffffffffffffffffffffffffffff166141e26125fb565b73ffffffffffffffffffffffffffffffffffffffff161461424157614205613f88565b6040517f118cdaa70000000000000000000000000000000000000000000000000000000081526004016142389190615127565b60405180910390fd5b565b60008060009054906101000a900473ffffffffffffffffffffffffffffffffffffffff169050816000806101000a81548173ffffffffffffffffffffffffffffffffffffffff021916908373ffffffffffffffffffffffffffffffffffffffff1602179055508173ffffffffffffffffffffffffffffffffffffffff168173ffffffffffffffffffffffffffffffffffffffff167f8be0079c531659141344cd1fd0a4f28419497f9722a3daafe3b4186f6b6457e060405160405180910390a35050565b600073ffffffffffffffffffffffffffffffffffffffff168273ffffffffffffffffffffffffffffffffffffffff160361437857816040517f5b08ba1800000000000000000000000000000000000000000000000000000000815260040161436f9190615127565b60405180910390fd5b80600660008573ffffffffffffffffffffffffffffffffffffffff1673ffffffffffffffffffffffffffffffffffffffff16815260200190815260200160002060008473ffffffffffffffffffffffffffffffffffffffff1673ffffffffffffffffffffffffffffffffffffffff16815260200190815260200160002060006101000a81548160ff0219169083151502179055508173ffffffffffffffffffffffffffffffffffffffff168373ffffffffffffffffffffffffffffffffffffffff167f17307eab39ab6107e8899845ad3d59bd9653f200f220920489ca2b5937696c31836040516144699190614fb6565b60405180910390a3505050565b60008373ffffffffffffffffffffffffffffffffffffffff163b1115614620578273ffffffffffffffffffffffffffffffffffffffff1663150b7a02868685856040518563ffffffff1660e01b81526004016144d5949392919061673c565b6020604051808303816000875af192505050801561451157506040513d601f19601f8201168201806040525081019061450e919061679d565b60015b614595573d8060008114614541576040519150601f19603f3d011682016040523d82523d6000602084013e614546565b606091505b50600081510361458d57836040517f64a0ae920000000000000000000000000000000000000000000000000000000081526004016145849190615127565b60405180910390fd5b805181602001fd5b63150b7a0260e01b7bffffffffffffffffffffffffffffffffffffffffffffffffffffffff1916817bffffffffffffffffffffffffffffffffffffffffffffffffffffffff19161461461e57836040517f64a0ae920000000000000000000000000000000000000000000000000000000081526004016146159190615127565b60405180910390fd5b505b5050505050565b600073ffffffffffffffffffffffffffffffffffffffff168273ffffffffffffffffffffffffffffffffffffffff16036146995760006040517f64a0ae920000000000000000000000000000000000000000000000000000000081526004016146909190615127565b60405180910390fd5b60006146a783836000613fa2565b9050600073ffffffffffffffffffffffffffffffffffffffff168173ffffffffffffffffffffffffffffffffffffffff161461471b5760006040517f73c6ac6e0000000000000000000000000000000000000000000000000000000081526004016147129190615127565b60405180910390fd5b505050565b8060076000848152602001908152602001600020908161474091906163a8565b507ff8e1a15aba9398e019f0b49df1a4fde98ee17ae345cb5f6b5e2c27f5033e8ce7826040516147709190615250565b60405180910390a15050565b606060405180602001604052806000815250905090565b606061479e82613ec3565b5060006147a961477c565b905060008151116147c957604051806020016040528060008152506147f4565b806147d384614b2c565b6040516020016147e49291906166c3565b6040516020818303038152906040525b915050919050565b60007f01ffc9a7000000000000000000000000000000000000000000000000000000007bffffffffffffffffffffffffffffffffffffffffffffffffffffffff1916827bffffffffffffffffffffffffffffffffffffffffffffffffffffffff1916149050919050565b60006003600083815260200190815260200160002060009054906101000a900473ffffffffffffffffffffffffffffffffffffffff169050919050565b80806148dc5750600073ffffffffffffffffffffffffffffffffffffffff168273ffffffffffffffffffffffffffffffffffffffff1614155b15614a105760006148ec84613ec3565b9050600073ffffffffffffffffffffffffffffffffffffffff168373ffffffffffffffffffffffffffffffffffffffff161415801561495757508273ffffffffffffffffffffffffffffffffffffffff168173ffffffffffffffffffffffffffffffffffffffff1614155b801561496a57506149688184613ac0565b155b156149ac57826040517fa9fbf51f0000000000000000000000000000000000000000000000000000000081526004016149a39190615127565b60405180910390fd5b8115614a0e57838573ffffffffffffffffffffffffffffffffffffffff168273ffffffffffffffffffffffffffffffffffffffff167f8c5be1e5ebec7d5bd14f71427d1e84f3dd0314c0f7b2291e5b200ac8c7c3b92560405160405180910390a45b505b836005600085815260200190815260200160002060006101000a81548173ffffffffffffffffffffffffffffffffffffffff021916908373ffffffffffffffffffffffffffffffffffffffff16021790555050505050565b614a73838383614bfa565b614b2757600073ffffffffffffffffffffffffffffffffffffffff168373ffffffffffffffffffffffffffffffffffffffff1603614ae857806040517f7e273289000000000000000000000000000000000000000000000000000000008152600401614adf9190615250565b60405180910390fd5b81816040517f177e802f000000000000000000000000000000000000000000000000000000008152600401614b1e9291906167ca565b60405180910390fd5b505050565b606060006001614b3b84614cbb565b01905060008167ffffffffffffffff811115614b5a57614b59615608565b5b6040519080825280601f01601f191660200182016040528015614b8c5781602001600182028036833780820191505090505b509050600082602001820190505b600115614bef578080600190039150507f3031323334353637383961626364656600000000000000000000000000000000600a86061a8153600a8581614be357614be26167f3565b5b04945060008503614b9a575b819350505050919050565b60008073ffffffffffffffffffffffffffffffffffffffff168373ffffffffffffffffffffffffffffffffffffffff1614158015614cb257508273ffffffffffffffffffffffffffffffffffffffff168473ffffffffffffffffffffffffffffffffffffffff161480614c735750614c728484613ac0565b5b80614cb157508273ffffffffffffffffffffffffffffffffffffffff16614c9983613f4b565b73ffffffffffffffffffffffffffffffffffffffff16145b5b90509392505050565b600080600090507a184f03e93ff9f4daa797ed6e38ed64bf6a1f0100000000000000008310614d19577a184f03e93ff9f4daa797ed6e38ed64bf6a1f0100000000000000008381614d0f57614d0e6167f3565b5b0492506040810190505b6d04ee2d6d415b85acef81000000008310614d56576d04ee2d6d415b85acef81000000008381614d4c57614d4b6167f3565b5b0492506020810190505b662386f26fc100008310614d8557662386f26fc100008381614d7b57614d7a6167f3565b5b0492506010810190505b6305f5e1008310614dae576305f5e1008381614da457614da36167f3565b5b0492506008810190505b6127108310614dd3576127108381614dc957614dc86167f3565b5b0492506004810190505b60648310614df65760648381614dec57614deb6167f3565b5b0492506002810190505b600a8310614e05576001810190505b80915050919050565b828054828255906000526020600020908101928215614e87579160200282015b82811115614e865782518260006101000a81548173ffffffffffffffffffffffffffffffffffffffff021916908373ffffffffffffffffffffffffffffffffffffffff16021790555091602001919060010190614e2e565b5b509050614e949190614ee5565b5090565b828054828255906000526020600020908101928215614ed4579160200282015b82811115614ed3578251825591602001919060010190614eb8565b5b509050614ee19190614ee5565b5090565b5b80821115614efe576000816000905550600101614ee6565b5090565b6000604051905090565b600080fd5b600080fd5b60007fffffffff0000000000000000000000000000000000000000000000000000000082169050919050565b614f4b81614f16565b8114614f5657600080fd5b50565b600081359050614f6881614f42565b92915050565b600060208284031215614f8457614f83614f0c565b5b6000614f9284828501614f59565b91505092915050565b60008115159050919050565b614fb081614f9b565b82525050565b6000602082019050614fcb6000830184614fa7565b92915050565b600081519050919050565b600082825260208201905092915050565b60005b8381101561500b578082015181840152602081019050614ff0565b60008484015250505050565b6000601f19601f8301169050919050565b600061503382614fd1565b61503d8185614fdc565b935061504d818560208601614fed565b61505681615017565b840191505092915050565b6000602082019050818103600083015261507b8184615028565b905092915050565b6000819050919050565b61509681615083565b81146150a157600080fd5b50565b6000813590506150b38161508d565b92915050565b6000602082840312156150cf576150ce614f0c565b5b60006150dd848285016150a4565b91505092915050565b600073ffffffffffffffffffffffffffffffffffffffff82169050919050565b6000615111826150e6565b9050919050565b61512181615106565b82525050565b600060208201905061513c6000830184615118565b92915050565b61514b81615106565b811461515657600080fd5b50565b60008135905061516881615142565b92915050565b6000806040838503121561518557615184614f0c565b5b600061519385828601615159565b92505060206151a4858286016150a4565b9150509250929050565b6151b781615083565b82525050565b6000610100820190506151d3600083018b6151ae565b6151e0602083018a615118565b6151ed6040830189615118565b81810360608301526151ff8188615028565b905081810360808301526152138187615028565b905081810360a08301526152278186615028565b905061523660c0830185614fa7565b61524360e0830184614fa7565b9998505050505050505050565b600060208201905061526560008301846151ae565b92915050565b60008060006060848603121561528457615283614f0c565b5b600061529286828701615159565b93505060206152a386828701615159565b92505060406152b4868287016150a4565b9150509250925092565b6000602082840312156152d4576152d3614f0c565b5b60006152e284828501615159565b91505092915050565b600081519050919050565b600082825260208201905092915050565b6000819050602082019050919050565b61532081615083565b82525050565b60006153328383615317565b60208301905092915050565b6000602082019050919050565b6000615356826152eb565b61536081856152f6565b935061536b83615307565b8060005b8381101561539c5781516153838882615326565b975061538e8361533e565b92505060018101905061536f565b5085935050505092915050565b600081519050919050565b600082825260208201905092915050565b6000819050602082019050919050565b600082825260208201905092915050565b60006153f182614fd1565b6153fb81856153d5565b935061540b818560208601614fed565b61541481615017565b840191505092915050565b600061542b83836153e6565b905092915050565b6000602082019050919050565b600061544b826153a9565b61545581856153b4565b935083602082028501615467856153c5565b8060005b858110156154a35784840389528151615484858261541f565b945061548f83615433565b925060208a0199505060018101905061546b565b50829750879550505050505092915050565b600081519050919050565b600082825260208201905092915050565b6000819050602082019050919050565b6154ea81614f9b565b82525050565b60006154fc83836154e1565b60208301905092915050565b6000602082019050919050565b6000615520826154b5565b61552a81856154c0565b9350615535836154d1565b8060005b8381101561556657815161554d88826154f0565b975061555883615508565b925050600181019050615539565b5085935050505092915050565b600060c082019050818103600083015261558d818961534b565b905081810360208301526155a18188615440565b905081810360408301526155b58187615440565b905081810360608301526155c98186615440565b905081810360808301526155dd8185615515565b905081810360a08301526155f18184615515565b9050979650505050505050565b600080fd5b600080fd5b7f4e487b7100000000000000000000000000000000000000000000000000000000600052604160045260246000fd5b61564082615017565b810181811067ffffffffffffffff8211171561565f5761565e615608565b5b80604052505050565b6000615672614f02565b905061567e8282615637565b919050565b600067ffffffffffffffff82111561569e5761569d615608565b5b6156a782615017565b9050602081019050919050565b82818337600083830152505050565b60006156d66156d184615683565b615668565b9050828152602081018484840111156156f2576156f1615603565b5b6156fd8482856156b4565b509392505050565b600082601f83011261571a576157196155fe565b5b813561572a8482602086016156c3565b91505092915050565b60008060006060848603121561574c5761574b614f0c565b5b600084013567ffffffffffffffff81111561576a57615769614f11565b5b61577686828701615705565b935050602084013567ffffffffffffffff81111561579757615796614f11565b5b6157a386828701615705565b925050604084013567ffffffffffffffff8111156157c4576157c3614f11565b5b6157d086828701615705565b9150509250925092565b600081519050919050565b600082825260208201905092915050565b6000819050602082019050919050565b61580f81615106565b82525050565b60006158218383615806565b60208301905092915050565b6000602082019050919050565b6000615845826157da565b61584f81856157e5565b935061585a836157f6565b8060005b8381101561588b5781516158728882615815565b975061587d8361582d565b92505060018101905061585e565b5085935050505092915050565b600060208201905081810360008301526158b2818461583a565b905092915050565b600060208201905081810360008301526158d4818461534b565b905092915050565b600080600080600060a086880312156158f8576158f7614f0c565b5b600086013567ffffffffffffffff81111561591657615915614f11565b5b61592288828901615705565b955050602086013567ffffffffffffffff81111561594357615942614f11565b5b61594f88828901615705565b945050604086013567ffffffffffffffff8111156159705761596f614f11565b5b61597c88828901615705565b935050606086013567ffffffffffffffff81111561599d5761599c614f11565b5b6159a988828901615705565b925050608086013567ffffffffffffffff8111156159ca576159c9614f11565b5b6159d688828901615705565b9150509295509295909350565b600080604083850312156159fa576159f9614f0c565b5b6000615a08858286016150a4565b9250506020615a1985828601615159565b9150509250929050565b615a2c81614f9b565b8114615a3757600080fd5b50565b600081359050615a4981615a23565b92915050565b60008060408385031215615a6657615a65614f0c565b5b6000615a7485828601615159565b9250506020615a8585828601615a3a565b9150509250929050565b600060c082019050615aa46000830189615118565b8181036020830152615ab68188615028565b90508181036040830152615aca8187615028565b90508181036060830152615ade8186615028565b90508181036080830152615af28185615028565b905081810360a0830152615b068184615028565b9050979650505050505050565b600067ffffffffffffffff821115615b2e57615b2d615608565b5b615b3782615017565b9050602081019050919050565b6000615b57615b5284615b13565b615668565b905082815260208101848484011115615b7357615b72615603565b5b615b7e8482856156b4565b509392505050565b600082601f830112615b9b57615b9a6155fe565b5b8135615bab848260208601615b44565b91505092915050565b60008060008060808587031215615bce57615bcd614f0c565b5b6000615bdc87828801615159565b9450506020615bed87828801615159565b9350506040615bfe878288016150a4565b925050606085013567ffffffffffffffff811115615c1f57615c1e614f11565b5b615c2b87828801615b86565b91505092959194509250565b600060c0820190508181036000830152615c51818961583a565b90508181036020830152615c658188615440565b90508181036040830152615c798187615440565b90508181036060830152615c8d8186615440565b90508181036080830152615ca1818561534b565b905081810360a0830152615cb5818461534b565b9050979650505050505050565b60008060408385031215615cd957615cd8614f0c565b5b6000615ce785828601615159565b925050602083013567ffffffffffffffff811115615d0857615d07614f11565b5b615d1485828601615705565b9150509250929050565b60008060408385031215615d3557615d34614f0c565b5b6000615d4385828601615159565b9250506020615d5485828601615159565b9150509250929050565b600060c082019050615d736000830189615118565b8181036020830152615d858188615028565b90508181036040830152615d998187615028565b90508181036060830152615dad8186615028565b9050615dbc6080830185614fa7565b615dc960a08301846151ae565b979650505050505050565b7f4e487b7100000000000000000000000000000000000000000000000000000000600052602260045260246000fd5b60006002820490506001821680615e1b57607f821691505b602082108103615e2e57615e2d615dd4565b5b50919050565b7f4f6e6c79206d656e746f722063616e20636f6d706c6574652070726f6a656374600082015250565b6000615e6a602083614fdc565b9150615e7582615e34565b602082019050919050565b60006020820190508181036000830152615e9981615e5d565b9050919050565b7f50726f6a656374206e6f742061737369676e6564000000000000000000000000600082015250565b6000615ed6601483614fdc565b9150615ee182615ea0565b602082019050919050565b60006020820190508181036000830152615f0581615ec9565b9050919050565b7f50726f6a65637420616c726561647920636f6d706c6574656400000000000000600082015250565b6000615f42601983614fdc565b9150615f4d82615f0c565b602082019050919050565b60006020820190508181036000830152615f7181615f35565b9050919050565b6000606082019050615f8d6000830186615118565b615f9a60208301856151ae565b615fa76040830184615118565b949350505050565b7f4d656e746f72206e6f7420617070726f76656400000000000000000000000000600082015250565b6000615fe5601383614fdc565b9150615ff082615faf565b602082019050919050565b6000602082019050818103600083015261601481615fd8565b9050919050565b7f4d656e746f7220616c726561647920617070726f766564000000000000000000600082015250565b6000616051601783614fdc565b915061605c8261601b565b602082019050919050565b6000602082019050818103600083015261608081616044565b9050919050565b7f4e487b7100000000000000000000000000000000000000000000000000000000600052603260045260246000fd5b7f4e487b7100000000000000000000000000000000000000000000000000000000600052601160045260246000fd5b60006160f082615083565b91506160fb83615083565b9250828203905081811115616113576161126160b6565b5b92915050565b7f4e487b7100000000000000000000000000000000000000000000000000000000600052603160045260246000fd5b600061615382615083565b91507fffffffffffffffffffffffffffffffffffffffffffffffffffffffffffffffff8203616185576161846160b6565b5b600182019050919050565b7f4d656e746f7220616c7265616479207265676973746572656400000000000000600082015250565b60006161c6601983614fdc565b91506161d182616190565b602082019050919050565b600060208201905081810360008301526161f5816161b9565b9050919050565b60008190508160005260206000209050919050565b60006020601f8301049050919050565b600082821b905092915050565b60006008830261625e7fffffffffffffffffffffffffffffffffffffffffffffffffffffffffffffffff82616221565b6162688683616221565b95508019841693508086168417925050509392505050565b6000819050919050565b60006162a56162a061629b84615083565b616280565b615083565b9050919050565b6000819050919050565b6162bf8361628a565b6162d36162cb826162ac565b84845461622e565b825550505050565b600090565b6162e86162db565b6162f38184846162b6565b505050565b5b818110156163175761630c6000826162e0565b6001810190506162f9565b5050565b601f82111561635c5761632d816161fc565b61633684616211565b81016020851015616345578190505b61635961635185616211565b8301826162f8565b50505b505050565b600082821c905092915050565b600061637f60001984600802616361565b1980831691505092915050565b6000616398838361636e565b9150826002028217905092915050565b6163b182614fd1565b67ffffffffffffffff8111156163ca576163c9615608565b5b6163d48254615e03565b6163df82828561631b565b600060209050601f8311600181146164125760008415616400578287015190505b61640a858261638c565b865550616472565b601f198416616420866161fc565b60005b8281101561644857848901518255600182019150602085019450602081019050616423565b868310156164655784890151616461601f89168261636e565b8355505b6001600288020188555050505b505050505050565b600060408201905081810360008301526164948185615028565b905081810360208301526164a88184615028565b90509392505050565b7f53747564656e7420616c72656164792072656769737465726564000000000000600082015250565b60006164e7601a83614fdc565b91506164f2826164b1565b602082019050919050565b60006020820190508181036000830152616516816164da565b9050919050565b7f4f6e6c79206d656e746f722063616e2061737369676e2070726f6a6563740000600082015250565b6000616553601e83614fdc565b915061655e8261651d565b602082019050919050565b6000602082019050818103600083015261658281616546565b9050919050565b7f50726f6a65637420616c72656164792061737369676e65640000000000000000600082015250565b60006165bf601883614fdc565b91506165ca82616589565b602082019050919050565b600060208201905081810360008301526165ee816165b2565b9050919050565b7f4f6e6c7920617070726f766564206d656e746f72732063616e2069737375652060008201527f6365727469666963617465730000000000000000000000000000000000000000602082015250565b6000616651602c83614fdc565b915061665c826165f5565b604082019050919050565b6000602082019050818103600083015261668081616644565b9050919050565b600081905092915050565b600061669d82614fd1565b6166a78185616687565b93506166b7818560208601614fed565b80840191505092915050565b60006166cf8285616692565b91506166db8284616692565b91508190509392505050565b600081519050919050565b600082825260208201905092915050565b600061670e826166e7565b61671881856166f2565b9350616728818560208601614fed565b61673181615017565b840191505092915050565b60006080820190506167516000830187615118565b61675e6020830186615118565b61676b60408301856151ae565b818103606083015261677d8184616703565b905095945050505050565b60008151905061679781614f42565b92915050565b6000602082840312156167b3576167b2614f0c565b5b60006167c184828501616788565b91505092915050565b60006040820190506167df6000830185615118565b6167ec60208301846151ae565b9392505050565b7f4e487b7100000000000000000000000000000000000000000000000000000000600052601260045260246000fdfea2646970667358221220a066e065218a923af280f1f43a362b222c3d4d69f49b59da1702488ca1008dda64736f6c63430008140033",
  "linkReferences": {},
  "deployedLinkReferences": {}
}