{
  "_format": "hh-sol-artifact-1",
  "contractName": "MentorDAO",
  "sourceName": "contracts/MentorDAO.sol",
  "abi": [
    {
      "inputs": [],
      "stateMutability": "nonpayable",
      "type": "constructor"
    },
    {
      "inputs": [
        {
          "internalType": "address",
          "name": "owner",
          "type": "address"
        }
      ],
      "name": "OwnableInvalidOwner",
      "type": "error"
    },
    {
      "inputs": [
        {
          "internalType": "address",
          "name": "account",
          "type": "address"
        }
      ],
      "name": "OwnableUnauthorizedAccount",
      "type": "error"
    },
    {
      "anonymous": false,
      "inputs": [
        {
          "indexed": true,
          "internalType": "address",
          "name": "mentorAddress",
          "type": "address"
        }
      ],
      "name": "MentorApproved",
      "type": "event"
    },
    {
      "anonymous": false,
      "inputs": [
        {
          "indexed": true,
          "internalType": "address",
          "name": "mentorAddress",
          "type": "address"
        },
        {
          "indexed": false,
          "internalType": "string",
          "name": "name",
          "type": "string"
        },
        {
          "indexed": false,
          "internalType": "string",
          "name": "expertise",
          "type": "string"
        }
      ],
      "name": "MentorRegistered",
      "type": "event"
    },
    {
      "anonymous": false,
      "inputs": [
        {
          "indexed": true,
          "internalType": "address",
          "name": "previousOwner",
          "type": "address"
        },
        {
          "indexed": true,
          "internalType": "address",
          "name": "newOwner",
          "type": "address"
        }
      ],
      "name": "OwnershipTransferred",
      "type": "event"
    },
    {
      "anonymous": false,
      "inputs": [
        {
          "indexed": true,
          "internalType": "uint256",
          "name": "projectId",
          "type": "uint256"
        },
        {
          "indexed": true,
          "internalType": "address",
          "name": "student",
          "type": "address"
        }
      ],
      "name": "ProjectAssigned",
      "type": "event"
    },
    {
      "anonymous": false,
      "inputs": [
        {
          "indexed": true,
          "internalType": "uint256",
          "name": "projectId",
          "type": "uint256"
        }
      ],
      "name": "ProjectCompleted",
      "type": "event"
    },
    {
      "anonymous": false,
      "inputs": [
        {
          "indexed": true,
          "internalType": "uint256",
          "name": "projectId",
          "type": "uint256"
        },
        {
          "indexed": true,
          "internalType": "address",
          "name": "mentor",
          "type": "address"
        },
        {
          "indexed": false,
          "internalType": "string",
          "name": "projectName",
          "type": "string"
        }
      ],
      "name": "ProjectCreated",
      "type": "event"
    },
    {
      "inputs": [
        {
          "internalType": "address",
          "name": "_mentorAddress",
          "type": "address"
        }
      ],
      "name": "approveMentor",
      "outputs": [],
      "stateMutability": "nonpayable",
      "type": "function"
    },
    {
      "inputs": [
        {
          "internalType": "uint256",
          "name": "_projectId",
          "type": "uint256"
        },
        {
          "internalType": "address",
          "name": "_student",
          "type": "address"
        }
      ],
      "name": "assignProject",
      "outputs": [],
      "stateMutability": "nonpayable",
      "type": "function"
    },
    {
      "inputs": [
        {
          "internalType": "uint256",
          "name": "_projectId",
          "type": "uint256"
        }
      ],
      "name": "completeProject",
      "outputs": [],
      "stateMutability": "nonpayable",
      "type": "function"
    },
    {
      "inputs": [
        {
          "internalType": "string",
          "name": "_projectName",
          "type": "string"
        },
        {
          "internalType": "string",
          "name": "_projectDescription",
          "type": "string"
        },
        {
          "internalType": "string",
          "name": "_skillArea",
          "type": "string"
        }
      ],
      "name": "createProject",
      "outputs": [],
      "stateMutability": "nonpayable",
      "type": "function"
    },
    {
      "inputs": [],
      "name": "getPendingMentors",
      "outputs": [
        {
          "internalType": "address[]",
          "name": "",
          "type": "address[]"
        }
      ],
      "stateMutability": "view",
      "type": "function"
    },
    {
      "inputs": [],
      "name": "getPendingProjects",
      "outputs": [
        {
          "internalType": "uint256[]",
          "name": "",
          "type": "uint256[]"
        }
      ],
      "stateMutability": "view",
      "type": "function"
    },
    {
      "inputs": [
        {
          "internalType": "address",
          "name": "_mentor",
          "type": "address"
        }
      ],
      "name": "getProjectsByMentor",
      "outputs": [
        {
          "internalType": "uint256[]",
          "name": "",
          "type": "uint256[]"
        },
        {
          "internalType": "string[]",
          "name": "",
          "type": "string[]"
        },
        {
          "internalType": "string[]",
          "name": "",
          "type": "string[]"
        },
        {
          "internalType": "string[]",
          "name": "",
          "type": "string[]"
        },
        {
          "internalType": "bool[]",
          "name": "",
          "type": "bool[]"
        },
        {
          "internalType": "bool[]",
          "name": "",
          "type": "bool[]"
        }
      ],
      "stateMutability": "view",
      "type": "function"
    },
    {
      "inputs": [
        {
          "internalType": "address",
          "name": "_student",
          "type": "address"
        }
      ],
      "name": "getStudentProjects",
      "outputs": [
        {
          "internalType": "uint256[]",
          "name": "",
          "type": "uint256[]"
        }
      ],
      "stateMutability": "view",
      "type": "function"
    },
    {
      "inputs": [],
      "name": "mentorCounter",
      "outputs": [
        {
          "internalType": "uint256",
          "name": "",
          "type": "uint256"
        }
      ],
      "stateMutability": "view",
      "type": "function"
    },
    {
      "inputs": [
        {
          "internalType": "address",
          "name": "",
          "type": "address"
        },
        {
          "internalType": "uint256",
          "name": "",
          "type": "uint256"
        }
      ],
      "name": "mentorProjects",
      "outputs": [
        {
          "internalType": "uint256",
          "name": "",
          "type": "uint256"
        }
      ],
      "stateMutability": "view",
      "type": "function"
    },
    {
      "inputs": [
        {
          "internalType": "address",
          "name": "",
          "type": "address"
        }
      ],
      "name": "mentors",
      "outputs": [
        {
          "internalType": "address",
          "name": "mentorAddress",
          "type": "address"
        },
        {
          "internalType": "string",
          "name": "name",
          "type": "string"
        },
        {
          "internalType": "string",
          "name": "expertise",
          "type": "string"
        },
        {
          "internalType": "string",
          "name": "email",
          "type": "string"
        },
        {
          "internalType": "bool",
          "name": "isApproved",
          "type": "bool"
        },
        {
          "internalType": "uint256",
          "name": "totalProjects",
          "type": "uint256"
        }
      ],
      "stateMutability": "view",
      "type": "function"
    },
    {
      "inputs": [],
      "name": "owner",
      "outputs": [
        {
          "internalType": "address",
          "name": "",
          "type": "address"
        }
      ],
      "stateMutability": "view",
      "type": "function"
    },
    {
      "inputs": [
        {
          "internalType": "uint256",
          "name": "",
          "type": "uint256"
        }
      ],
      "name": "pendingMentors",
      "outputs": [
        {
          "internalType": "address",
          "name": "",
          "type": "address"
        }
      ],
      "stateMutability": "view",
      "type": "function"
    },
    {
      "inputs": [
        {
          "internalType": "uint256",
          "name": "",
          "type": "uint256"
        }
      ],
      "name": "pendingProjects",
      "outputs": [
        {
          "internalType": "uint256",
          "name": "",
          "type": "uint256"
        }
      ],
      "stateMutability": "view",
      "type": "function"
    },
    {
      "inputs": [],
      "name": "projectCounter",
      "outputs": [
        {
          "internalType": "uint256",
          "name": "",
          "type": "uint256"
        }
      ],
      "stateMutability": "view",
      "type": "function"
    },
    {
      "inputs": [
        {
          "internalType": "uint256",
          "name": "",
          "type": "uint256"
        }
      ],
      "name": "projects",
      "outputs": [
        {
          "internalType": "uint256",
          "name": "id",
          "type": "uint256"
        },
        {
          "internalType": "address",
          "name": "mentor",
          "type": "address"
        },
        {
          "internalType": "address",
          "name": "student",
          "type": "address"
        },
        {
          "internalType": "string",
          "name": "projectName",
          "type": "string"
        },
        {
          "internalType": "string",
          "name": "projectDescription",
          "type": "string"
        },
        {
          "internalType": "string",
          "name": "skillArea",
          "type": "string"
        },
        {
          "internalType": "bool",
          "name": "isAssigned",
          "type": "bool"
        },
        {
          "internalType": "bool",
          "name": "isCompleted",
          "type": "bool"
        }
      ],
      "stateMutability": "view",
      "type": "function"
    },
    {
      "inputs": [
        {
          "internalType": "string",
          "name": "_name",
          "type": "string"
        },
        {
          "internalType": "string",
          "name": "_expertise",
          "type": "string"
        },
        {
          "internalType": "string",
          "name": "_email",
          "type": "string"
        }
      ],
      "name": "registerMentor",
      "outputs": [],
      "stateMutability": "nonpayable",
      "type": "function"
    },
    {
      "inputs": [],
      "name": "renounceOwnership",
      "outputs": [],
      "stateMutability": "nonpayable",
      "type": "function"
    },
    {
      "inputs": [
        {
          "internalType": "address",
          "name": "",
          "type": "address"
        },
        {
          "internalType": "uint256",
          "name": "",
          "type": "uint256"
        }
      ],
      "name": "studentProjects",
      "outputs": [
        {
          "internalType": "uint256",
          "name": "",
          "type": "uint256"
        }
      ],
      "stateMutability": "view",
      "type": "function"
    },
    {
      "inputs": [
        {
          "internalType": "address",
          "name": "newOwner",
          "type": "address"
        }
      ],
      "name": "transferOwnership",
      "outputs": [],
      "stateMutability": "nonpayable",
      "type": "function"
    }
  ],
  "bytecode": "0x60806040523480156200001157600080fd5b5033600073ffffffffffffffffffffffffffffffffffffffff168173ffffffffffffffffffffffffffffffffffffffff1603620000885760006040517f1e4fbdf70000000000000000000000000000000000000000000000000000000081526004016200007f9190620001b9565b60405180910390fd5b6200009981620000b060201b60201c565b5060006005819055506000600681905550620001d6565b60008060009054906101000a900473ffffffffffffffffffffffffffffffffffffffff169050816000806101000a81548173ffffffffffffffffffffffffffffffffffffffff021916908373ffffffffffffffffffffffffffffffffffffffff1602179055508173ffffffffffffffffffffffffffffffffffffffff168173ffffffffffffffffffffffffffffffffffffffff167f8be0079c531659141344cd1fd0a4f28419497f9722a3daafe3b4186f6b6457e060405160405180910390a35050565b600073ffffffffffffffffffffffffffffffffffffffff82169050919050565b6000620001a18262000174565b9050919050565b620001b38162000194565b82525050565b6000602082019050620001d06000830184620001a8565b92915050565b61317880620001e66000396000f3fe608060405234801561001057600080fd5b506004361061012c5760003560e01c806375f7c1dd116100ad578063c7af864211610071578063c7af864214610361578063cf7be6ec1461037f578063eed4ea8f1461039b578063f2fde38b146103d0578063f8a518ed146103ec5761012c565b806375f7c1dd1461029757806378bcba8d146102c75780638da5cb5b146102f7578063981e9c2b14610315578063bb1467f4146103315761012c565b80633a5c19cc116100f45780633a5c19cc1461020057806350fe7b901461021e57806352852e5f14610253578063675200721461026f578063715018a61461028d5761012c565b8063107046bd14610131578063195dcdee146101685780632245f152146101985780633448e66f146101b45780633a1538dc146101e4575b600080fd5b61014b60048036038101906101469190612071565b61040a565b60405161015f989796959493929190612199565b60405180910390f35b610182600480360381019061017d9190612258565b610644565b60405161018f9190612298565b60405180910390f35b6101b260048036038101906101ad9190612071565b610675565b005b6101ce60048036038101906101c99190612258565b61080f565b6040516101db9190612298565b60405180910390f35b6101fe60048036038101906101f991906122b3565b610840565b005b610208610b05565b6040516102159190612298565b60405180910390f35b610238600480360381019061023391906122b3565b610b0b565b60405161024a96959493929190612568565b60405180910390f35b61026d60048036038101906102689190612728565b61111a565b005b6102776113f7565b604051610284919061288d565b60405180910390f35b610295611485565b005b6102b160048036038101906102ac9190612071565b611499565b6040516102be91906128af565b60405180910390f35b6102e160048036038101906102dc91906122b3565b6114d8565b6040516102ee91906128ca565b60405180910390f35b6102ff61156f565b60405161030c91906128af565b60405180910390f35b61032f600480360381019061032a91906128ec565b611598565b005b61034b60048036038101906103469190612071565b61189a565b6040516103589190612298565b60405180910390f35b6103696118be565b60405161037691906128ca565b60405180910390f35b61039960048036038101906103949190612728565b611916565b005b6103b560048036038101906103b091906122b3565b611c47565b6040516103c79695949392919061292c565b60405180910390f35b6103ea60048036038101906103e591906122b3565b611e48565b005b6103f4611ece565b6040516104019190612298565b60405180910390f35b60026020528060005260406000206000915090508060000154908060010160009054906101000a900473ffffffffffffffffffffffffffffffffffffffff16908060020160009054906101000a900473ffffffffffffffffffffffffffffffffffffffff169080600301805461047f906129d1565b80601f01602080910402602001604051908101604052809291908181526020018280546104ab906129d1565b80156104f85780601f106104cd576101008083540402835291602001916104f8565b820191906000526020600020905b8154815290600101906020018083116104db57829003601f168201915b50505050509080600401805461050d906129d1565b80601f0160208091040260200160405190810160405280929190818152602001828054610539906129d1565b80156105865780601f1061055b57610100808354040283529160200191610586565b820191906000526020600020905b81548152906001019060200180831161056957829003601f168201915b50505050509080600501805461059b906129d1565b80601f01602080910402602001604051908101604052809291908181526020018280546105c7906129d1565b80156106145780601f106105e957610100808354040283529160200191610614565b820191906000526020600020905b8154815290600101906020018083116105f757829003601f168201915b5050505050908060060160009054906101000a900460ff16908060060160019054906101000a900460ff16905088565b6004602052816000526040600020818154811061066057600080fd5b90600052602060002001600091509150505481565b60006002600083815260200190815260200160002090503373ffffffffffffffffffffffffffffffffffffffff168160010160009054906101000a900473ffffffffffffffffffffffffffffffffffffffff1673ffffffffffffffffffffffffffffffffffffffff161461071e576040517f08c379a000000000000000000000000000000000000000000000000000000000815260040161071590612a4e565b60405180910390fd5b8060060160009054906101000a900460ff1661076f576040517f08c379a000000000000000000000000000000000000000000000000000000000815260040161076690612aba565b60405180910390fd5b8060060160019054906101000a900460ff16156107c1576040517f08c379a00000000000000000000000000000000000000000000000000000000081526004016107b890612b26565b60405180910390fd5b60018160060160016101000a81548160ff021916908315150217905550817f60d8df137e489b6216738e436244ca4700bd6d0c8371d3c8d9c80b54538111b960405160405180910390a25050565b6003602052816000526040600020818154811061082b57600080fd5b90600052602060002001600091509150505481565b610848611ed4565b600160008273ffffffffffffffffffffffffffffffffffffffff1673ffffffffffffffffffffffffffffffffffffffff16815260200190815260200160002060040160009054906101000a900460ff16156108d8576040517f08c379a00000000000000000000000000000000000000000000000000000000081526004016108cf90612b92565b60405180910390fd5b60018060008373ffffffffffffffffffffffffffffffffffffffff1673ffffffffffffffffffffffffffffffffffffffff16815260200190815260200160002060040160006101000a81548160ff02191690831515021790555060005b600780549050811015610abe578173ffffffffffffffffffffffffffffffffffffffff166007828154811061096d5761096c612bb2565b5b9060005260206000200160009054906101000a900473ffffffffffffffffffffffffffffffffffffffff1673ffffffffffffffffffffffffffffffffffffffff1603610aab57600760016007805490506109c79190612c10565b815481106109d8576109d7612bb2565b5b9060005260206000200160009054906101000a900473ffffffffffffffffffffffffffffffffffffffff1660078281548110610a1757610a16612bb2565b5b9060005260206000200160006101000a81548173ffffffffffffffffffffffffffffffffffffffff021916908373ffffffffffffffffffffffffffffffffffffffff1602179055506007805480610a7157610a70612c44565b5b6001900381819060005260206000200160006101000a81549073ffffffffffffffffffffffffffffffffffffffff02191690559055610abe565b8080610ab690612c73565b915050610935565b508073ffffffffffffffffffffffffffffffffffffffff167f08a5d48c91397c761935760849b81a8cb681410df32740fcd32c2e51f21633d560405160405180910390a250565b60055481565b6060806060806060806000600360008973ffffffffffffffffffffffffffffffffffffffff1673ffffffffffffffffffffffffffffffffffffffff168152602001908152602001600020805480602002602001604051908101604052809291908181526020018280548015610b9f57602002820191906000526020600020905b815481526020019060010190808311610b8b575b5050505050905060008151905060008167ffffffffffffffff811115610bc857610bc76125fd565b5b604051908082528060200260200182016040528015610bfb57816020015b6060815260200190600190039081610be65790505b50905060008267ffffffffffffffff811115610c1a57610c196125fd565b5b604051908082528060200260200182016040528015610c4d57816020015b6060815260200190600190039081610c385790505b50905060008367ffffffffffffffff811115610c6c57610c6b6125fd565b5b604051908082528060200260200182016040528015610c9f57816020015b6060815260200190600190039081610c8a5790505b50905060008467ffffffffffffffff811115610cbe57610cbd6125fd565b5b604051908082528060200260200182016040528015610cec5781602001602082028036833780820191505090505b50905060008567ffffffffffffffff811115610d0b57610d0a6125fd565b5b604051908082528060200260200182016040528015610d395781602001602082028036833780820191505090505b50905060005b868110156110f7576000600260008a8481518110610d6057610d5f612bb2565b5b6020026020010151815260200190815260200160002060405180610100016040529081600082015481526020016001820160009054906101000a900473ffffffffffffffffffffffffffffffffffffffff1673ffffffffffffffffffffffffffffffffffffffff1673ffffffffffffffffffffffffffffffffffffffff1681526020016002820160009054906101000a900473ffffffffffffffffffffffffffffffffffffffff1673ffffffffffffffffffffffffffffffffffffffff1673ffffffffffffffffffffffffffffffffffffffff168152602001600382018054610e48906129d1565b80601f0160208091040260200160405190810160405280929190818152602001828054610e74906129d1565b8015610ec15780601f10610e9657610100808354040283529160200191610ec1565b820191906000526020600020905b815481529060010190602001808311610ea457829003601f168201915b50505050508152602001600482018054610eda906129d1565b80601f0160208091040260200160405190810160405280929190818152602001828054610f06906129d1565b8015610f535780601f10610f2857610100808354040283529160200191610f53565b820191906000526020600020905b815481529060010190602001808311610f3657829003601f168201915b50505050508152602001600582018054610f6c906129d1565b80601f0160208091040260200160405190810160405280929190818152602001828054610f98906129d1565b8015610fe55780601f10610fba57610100808354040283529160200191610fe5565b820191906000526020600020905b815481529060010190602001808311610fc857829003601f168201915b505050505081526020016006820160009054906101000a900460ff161515151581526020016006820160019054906101000a900460ff1615151515815250509050806060015187838151811061103e5761103d612bb2565b5b6020026020010181905250806080015186838151811061106157611060612bb2565b5b60200260200101819052508060a0015185838151811061108457611083612bb2565b5b60200260200101819052508060c001518483815181106110a7576110a6612bb2565b5b6020026020010190151590811515815250508060e001518383815181106110d1576110d0612bb2565b5b6020026020010190151590811515815250505080806110ef90612c73565b915050610d3f565b508685858585859c509c509c509c509c509c505050505050505091939550919395565b600073ffffffffffffffffffffffffffffffffffffffff16600160003373ffffffffffffffffffffffffffffffffffffffff1673ffffffffffffffffffffffffffffffffffffffff16815260200190815260200160002060000160009054906101000a900473ffffffffffffffffffffffffffffffffffffffff1673ffffffffffffffffffffffffffffffffffffffff16146111eb576040517f08c379a00000000000000000000000000000000000000000000000000000000081526004016111e290612d07565b60405180910390fd5b6040518060c001604052803373ffffffffffffffffffffffffffffffffffffffff1681526020018481526020018381526020018281526020016000151581526020016000815250600160003373ffffffffffffffffffffffffffffffffffffffff1673ffffffffffffffffffffffffffffffffffffffff16815260200190815260200160002060008201518160000160006101000a81548173ffffffffffffffffffffffffffffffffffffffff021916908373ffffffffffffffffffffffffffffffffffffffff16021790555060208201518160010190816112cd9190612ed3565b5060408201518160020190816112e39190612ed3565b5060608201518160030190816112f99190612ed3565b5060808201518160040160006101000a81548160ff02191690831515021790555060a082015181600501559050506007339080600181540180825580915050600190039060005260206000200160009091909190916101000a81548173ffffffffffffffffffffffffffffffffffffffff021916908373ffffffffffffffffffffffffffffffffffffffff1602179055506005600081548092919061139d90612c73565b91905055503373ffffffffffffffffffffffffffffffffffffffff167fc14e42bf83a73674998a153215f928d3b78dd41101d83cac9ca5ea8f8844ff6384846040516113ea929190612fa5565b60405180910390a2505050565b6060600780548060200260200160405190810160405280929190818152602001828054801561147b57602002820191906000526020600020905b8160009054906101000a900473ffffffffffffffffffffffffffffffffffffffff1673ffffffffffffffffffffffffffffffffffffffff1681526020019060010190808311611431575b5050505050905090565b61148d611ed4565b6114976000611f5b565b565b600781815481106114a957600080fd5b906000526020600020016000915054906101000a900473ffffffffffffffffffffffffffffffffffffffff1681565b6060600460008373ffffffffffffffffffffffffffffffffffffffff1673ffffffffffffffffffffffffffffffffffffffff16815260200190815260200160002080548060200260200160405190810160405280929190818152602001828054801561156357602002820191906000526020600020905b81548152602001906001019080831161154f575b50505050509050919050565b60008060009054906101000a900473ffffffffffffffffffffffffffffffffffffffff16905090565b3373ffffffffffffffffffffffffffffffffffffffff166002600084815260200190815260200160002060010160009054906101000a900473ffffffffffffffffffffffffffffffffffffffff1673ffffffffffffffffffffffffffffffffffffffff161461163c576040517f08c379a000000000000000000000000000000000000000000000000000000000815260040161163390613028565b60405180910390fd5b6002600083815260200190815260200160002060060160009054906101000a900460ff16156116a0576040517f08c379a000000000000000000000000000000000000000000000000000000000815260040161169790613094565b60405180910390fd5b806002600084815260200190815260200160002060020160006101000a81548173ffffffffffffffffffffffffffffffffffffffff021916908373ffffffffffffffffffffffffffffffffffffffff16021790555060016002600084815260200190815260200160002060060160006101000a81548160ff021916908315150217905550600460008273ffffffffffffffffffffffffffffffffffffffff1673ffffffffffffffffffffffffffffffffffffffff16815260200190815260200160002082908060018154018082558091505060019003906000526020600020016000909190919091505560005b6008805490508110156118515782600882815481106117af576117ae612bb2565b5b90600052602060002001540361183e57600860016008805490506117d39190612c10565b815481106117e4576117e3612bb2565b5b90600052602060002001546008828154811061180357611802612bb2565b5b9060005260206000200181905550600880548061182357611822612c44565b5b60019003818190600052602060002001600090559055611851565b808061184990612c73565b91505061178d565b508073ffffffffffffffffffffffffffffffffffffffff16827fcf346ab23a9abaabaa0eb4683b99ec1de094de5e7255af7623cbe740d4c0f16260405160405180910390a35050565b600881815481106118aa57600080fd5b906000526020600020016000915090505481565b6060600880548060200260200160405190810160405280929190818152602001828054801561190c57602002820191906000526020600020905b8154815260200190600101908083116118f8575b5050505050905090565b600160003373ffffffffffffffffffffffffffffffffffffffff1673ffffffffffffffffffffffffffffffffffffffff16815260200190815260200160002060040160009054906101000a900460ff166119a5576040517f08c379a000000000000000000000000000000000000000000000000000000000815260040161199c90613100565b60405180910390fd5b600660008154809291906119b890612c73565b919050555060405180610100016040528060065481526020013373ffffffffffffffffffffffffffffffffffffffff168152602001600073ffffffffffffffffffffffffffffffffffffffff168152602001848152602001838152602001828152602001600015158152602001600015158152506002600060065481526020019081526020016000206000820151816000015560208201518160010160006101000a81548173ffffffffffffffffffffffffffffffffffffffff021916908373ffffffffffffffffffffffffffffffffffffffff16021790555060408201518160020160006101000a81548173ffffffffffffffffffffffffffffffffffffffff021916908373ffffffffffffffffffffffffffffffffffffffff1602179055506060820151816003019081611aee9190612ed3565b506080820151816004019081611b049190612ed3565b5060a0820151816005019081611b1a9190612ed3565b5060c08201518160060160006101000a81548160ff02191690831515021790555060e08201518160060160016101000a81548160ff021916908315150217905550905050600360003373ffffffffffffffffffffffffffffffffffffffff1673ffffffffffffffffffffffffffffffffffffffff1681526020019081526020016000206006549080600181540180825580915050600190039060005260206000200160009091909190915055600860065490806001815401808255809150506001900390600052602060002001600090919091909150553373ffffffffffffffffffffffffffffffffffffffff166006547f9d9ec461f162f3f4fdb9f6d189bfe13c59e48d8acd23a4c3bfcf7cc0fe4e84ed85604051611c3a9190613120565b60405180910390a3505050565b60016020528060005260406000206000915090508060000160009054906101000a900473ffffffffffffffffffffffffffffffffffffffff1690806001018054611c90906129d1565b80601f0160208091040260200160405190810160405280929190818152602001828054611cbc906129d1565b8015611d095780601f10611cde57610100808354040283529160200191611d09565b820191906000526020600020905b815481529060010190602001808311611cec57829003601f168201915b505050505090806002018054611d1e906129d1565b80601f0160208091040260200160405190810160405280929190818152602001828054611d4a906129d1565b8015611d975780601f10611d6c57610100808354040283529160200191611d97565b820191906000526020600020905b815481529060010190602001808311611d7a57829003601f168201915b505050505090806003018054611dac906129d1565b80601f0160208091040260200160405190810160405280929190818152602001828054611dd8906129d1565b8015611e255780601f10611dfa57610100808354040283529160200191611e25565b820191906000526020600020905b815481529060010190602001808311611e0857829003601f168201915b5050505050908060040160009054906101000a900460ff16908060050154905086565b611e50611ed4565b600073ffffffffffffffffffffffffffffffffffffffff168173ffffffffffffffffffffffffffffffffffffffff1603611ec25760006040517f1e4fbdf7000000000000000000000000000000000000000000000000000000008152600401611eb991906128af565b60405180910390fd5b611ecb81611f5b565b50565b60065481565b611edc61201f565b73ffffffffffffffffffffffffffffffffffffffff16611efa61156f565b73ffffffffffffffffffffffffffffffffffffffff1614611f5957611f1d61201f565b6040517f118cdaa7000000000000000000000000000000000000000000000000000000008152600401611f5091906128af565b60405180910390fd5b565b60008060009054906101000a900473ffffffffffffffffffffffffffffffffffffffff169050816000806101000a81548173ffffffffffffffffffffffffffffffffffffffff021916908373ffffffffffffffffffffffffffffffffffffffff1602179055508173ffffffffffffffffffffffffffffffffffffffff168173ffffffffffffffffffffffffffffffffffffffff167f8be0079c531659141344cd1fd0a4f28419497f9722a3daafe3b4186f6b6457e060405160405180910390a35050565b600033905090565b6000604051905090565b600080fd5b600080fd5b6000819050919050565b61204e8161203b565b811461205957600080fd5b50565b60008135905061206b81612045565b92915050565b60006020828403121561208757612086612031565b5b60006120958482850161205c565b91505092915050565b6120a78161203b565b82525050565b600073ffffffffffffffffffffffffffffffffffffffff82169050919050565b60006120d8826120ad565b9050919050565b6120e8816120cd565b82525050565b600081519050919050565b600082825260208201905092915050565b60005b8381101561212857808201518184015260208101905061210d565b60008484015250505050565b6000601f19601f8301169050919050565b6000612150826120ee565b61215a81856120f9565b935061216a81856020860161210a565b61217381612134565b840191505092915050565b60008115159050919050565b6121938161217e565b82525050565b6000610100820190506121af600083018b61209e565b6121bc602083018a6120df565b6121c960408301896120df565b81810360608301526121db8188612145565b905081810360808301526121ef8187612145565b905081810360a08301526122038186612145565b905061221260c083018561218a565b61221f60e083018461218a565b9998505050505050505050565b612235816120cd565b811461224057600080fd5b50565b6000813590506122528161222c565b92915050565b6000806040838503121561226f5761226e612031565b5b600061227d85828601612243565b925050602061228e8582860161205c565b9150509250929050565b60006020820190506122ad600083018461209e565b92915050565b6000602082840312156122c9576122c8612031565b5b60006122d784828501612243565b91505092915050565b600081519050919050565b600082825260208201905092915050565b6000819050602082019050919050565b6123158161203b565b82525050565b6000612327838361230c565b60208301905092915050565b6000602082019050919050565b600061234b826122e0565b61235581856122eb565b9350612360836122fc565b8060005b83811015612391578151612378888261231b565b975061238383612333565b925050600181019050612364565b5085935050505092915050565b600081519050919050565b600082825260208201905092915050565b6000819050602082019050919050565b600082825260208201905092915050565b60006123e6826120ee565b6123f081856123ca565b935061240081856020860161210a565b61240981612134565b840191505092915050565b600061242083836123db565b905092915050565b6000602082019050919050565b60006124408261239e565b61244a81856123a9565b93508360208202850161245c856123ba565b8060005b8581101561249857848403895281516124798582612414565b945061248483612428565b925060208a01995050600181019050612460565b50829750879550505050505092915050565b600081519050919050565b600082825260208201905092915050565b6000819050602082019050919050565b6124df8161217e565b82525050565b60006124f183836124d6565b60208301905092915050565b6000602082019050919050565b6000612515826124aa565b61251f81856124b5565b935061252a836124c6565b8060005b8381101561255b57815161254288826124e5565b975061254d836124fd565b92505060018101905061252e565b5085935050505092915050565b600060c08201905081810360008301526125828189612340565b905081810360208301526125968188612435565b905081810360408301526125aa8187612435565b905081810360608301526125be8186612435565b905081810360808301526125d2818561250a565b905081810360a08301526125e6818461250a565b9050979650505050505050565b600080fd5b600080fd5b7f4e487b7100000000000000000000000000000000000000000000000000000000600052604160045260246000fd5b61263582612134565b810181811067ffffffffffffffff82111715612654576126536125fd565b5b80604052505050565b6000612667612027565b9050612673828261262c565b919050565b600067ffffffffffffffff821115612693576126926125fd565b5b61269c82612134565b9050602081019050919050565b82818337600083830152505050565b60006126cb6126c684612678565b61265d565b9050828152602081018484840111156126e7576126e66125f8565b5b6126f28482856126a9565b509392505050565b600082601f83011261270f5761270e6125f3565b5b813561271f8482602086016126b8565b91505092915050565b60008060006060848603121561274157612740612031565b5b600084013567ffffffffffffffff81111561275f5761275e612036565b5b61276b868287016126fa565b935050602084013567ffffffffffffffff81111561278c5761278b612036565b5b612798868287016126fa565b925050604084013567ffffffffffffffff8111156127b9576127b8612036565b5b6127c5868287016126fa565b9150509250925092565b600081519050919050565b600082825260208201905092915050565b6000819050602082019050919050565b612804816120cd565b82525050565b600061281683836127fb565b60208301905092915050565b6000602082019050919050565b600061283a826127cf565b61284481856127da565b935061284f836127eb565b8060005b83811015612880578151612867888261280a565b975061287283612822565b925050600181019050612853565b5085935050505092915050565b600060208201905081810360008301526128a7818461282f565b905092915050565b60006020820190506128c460008301846120df565b92915050565b600060208201905081810360008301526128e48184612340565b905092915050565b6000806040838503121561290357612902612031565b5b60006129118582860161205c565b925050602061292285828601612243565b9150509250929050565b600060c08201905061294160008301896120df565b81810360208301526129538188612145565b905081810360408301526129678187612145565b9050818103606083015261297b8186612145565b905061298a608083018561218a565b61299760a083018461209e565b979650505050505050565b7f4e487b7100000000000000000000000000000000000000000000000000000000600052602260045260246000fd5b600060028204905060018216806129e957607f821691505b6020821081036129fc576129fb6129a2565b5b50919050565b7f4f6e6c79206d656e746f722063616e20636f6d706c6574652070726f6a656374600082015250565b6000612a386020836120f9565b9150612a4382612a02565b602082019050919050565b60006020820190508181036000830152612a6781612a2b565b9050919050565b7f50726f6a656374206e6f742061737369676e6564000000000000000000000000600082015250565b6000612aa46014836120f9565b9150612aaf82612a6e565b602082019050919050565b60006020820190508181036000830152612ad381612a97565b9050919050565b7f50726f6a65637420616c726561647920636f6d706c6574656400000000000000600082015250565b6000612b106019836120f9565b9150612b1b82612ada565b602082019050919050565b60006020820190508181036000830152612b3f81612b03565b9050919050565b7f4d656e746f7220616c726561647920617070726f766564000000000000000000600082015250565b6000612b7c6017836120f9565b9150612b8782612b46565b602082019050919050565b60006020820190508181036000830152612bab81612b6f565b9050919050565b7f4e487b7100000000000000000000000000000000000000000000000000000000600052603260045260246000fd5b7f4e487b7100000000000000000000000000000000000000000000000000000000600052601160045260246000fd5b6000612c1b8261203b565b9150612c268361203b565b9250828203905081811115612c3e57612c3d612be1565b5b92915050565b7f4e487b7100000000000000000000000000000000000000000000000000000000600052603160045260246000fd5b6000612c7e8261203b565b91507fffffffffffffffffffffffffffffffffffffffffffffffffffffffffffffffff8203612cb057612caf612be1565b5b600182019050919050565b7f4d656e746f7220616c7265616479207265676973746572656400000000000000600082015250565b6000612cf16019836120f9565b9150612cfc82612cbb565b602082019050919050565b60006020820190508181036000830152612d2081612ce4565b9050919050565b60008190508160005260206000209050919050565b60006020601f8301049050919050565b600082821b905092915050565b600060088302612d897fffffffffffffffffffffffffffffffffffffffffffffffffffffffffffffffff82612d4c565b612d938683612d4c565b95508019841693508086168417925050509392505050565b6000819050919050565b6000612dd0612dcb612dc68461203b565b612dab565b61203b565b9050919050565b6000819050919050565b612dea83612db5565b612dfe612df682612dd7565b848454612d59565b825550505050565b600090565b612e13612e06565b612e1e818484612de1565b505050565b5b81811015612e4257612e37600082612e0b565b600181019050612e24565b5050565b601f821115612e8757612e5881612d27565b612e6184612d3c565b81016020851015612e70578190505b612e84612e7c85612d3c565b830182612e23565b50505b505050565b600082821c905092915050565b6000612eaa60001984600802612e8c565b1980831691505092915050565b6000612ec38383612e99565b9150826002028217905092915050565b612edc826120ee565b67ffffffffffffffff811115612ef557612ef46125fd565b5b612eff82546129d1565b612f0a828285612e46565b600060209050601f831160018114612f3d5760008415612f2b578287015190505b612f358582612eb7565b865550612f9d565b601f198416612f4b86612d27565b60005b82811015612f7357848901518255600182019150602085019450602081019050612f4e565b86831015612f905784890151612f8c601f891682612e99565b8355505b6001600288020188555050505b505050505050565b60006040820190508181036000830152612fbf8185612145565b90508181036020830152612fd38184612145565b90509392505050565b7f4f6e6c79206d656e746f722063616e2061737369676e2070726f6a6563740000600082015250565b6000613012601e836120f9565b915061301d82612fdc565b602082019050919050565b6000602082019050818103600083015261304181613005565b9050919050565b7f50726f6a65637420616c72656164792061737369676e65640000000000000000600082015250565b600061307e6018836120f9565b915061308982613048565b602082019050919050565b600060208201905081810360008301526130ad81613071565b9050919050565b7f4d656e746f72206e6f7420617070726f76656400000000000000000000000000600082015250565b60006130ea6013836120f9565b91506130f5826130b4565b602082019050919050565b60006020820190508181036000830152613119816130dd565b9050919050565b6000602082019050818103600083015261313a8184612145565b90509291505056fea2646970667358221220c0b4fdf21e55f789f2c2a935bc55f532754b21eef8373342b8d459e7f7dd193364736f6c63430008140033",
  "linkReferences": {},
  "deployedLinkReferences": {}
}