{
  "_format": "hh-sol-artifact-1",
  "contractName": "MentorDAO",
  "sourceName": "contracts/MentorDAO.sol",
  "abi": [
    {
      "inputs": [],
      "stateMutability": "nonpayable",
      "type": "constructor"
    },
    {
      "inputs": [
        {
          "internalType": "address",
          "name": "owner",
          "type": "address"
        }
      ],
      "name": "OwnableInvalidOwner",
      "type": "error"
    },
    {
      "inputs": [
        {
          "internalType": "address",
          "name": "account",
          "type": "address"
        }
      ],
      "name": "OwnableUnauthorizedAccount",
      "type": "error"
    },
    {
      "anonymous": false,
      "inputs": [
        {
          "indexed": true,
          "internalType": "address",
          "name": "mentorAddress",
          "type": "address"
        }
      ],
      "name": "MentorApproved",
      "type": "event"
    },
    {
      "anonymous": false,
      "inputs": [
        {
          "indexed": true,
          "internalType": "address",
          "name": "mentorAddress",
          "type": "address"
        },
        {
          "indexed": false,
          "internalType": "string",
          "name": "name",
          "type": "string"
        },
        {
          "indexed": false,
          "internalType": "string",
          "name": "expertise",
          "type": "string"
        }
      ],
      "name": "MentorRegistered",
      "type": "event"
    },
    {
      "anonymous": false,
      "inputs": [
        {
          "indexed": true,
          "internalType": "address",
          "name": "previousOwner",
          "type": "address"
        },
        {
          "indexed": true,
          "internalType": "address",
          "name": "newOwner",
          "type": "address"
        }
      ],
      "name": "OwnershipTransferred",
      "type": "event"
    },
    {
      "anonymous": false,
      "inputs": [
        {
          "indexed": true,
          "internalType": "uint256",
          "name": "projectId",
          "type": "uint256"
        },
        {
          "indexed": true,
          "internalType": "address",
          "name": "student",
          "type": "address"
        }
      ],
      "name": "ProjectAssigned",
      "type": "event"
    },
    {
      "anonymous": false,
      "inputs": [
        {
          "indexed": true,
          "internalType": "uint256",
          "name": "projectId",
          "type": "uint256"
        }
      ],
      "name": "ProjectCompleted",
      "type": "event"
    },
    {
      "anonymous": false,
      "inputs": [
        {
          "indexed": true,
          "internalType": "uint256",
          "name": "projectId",
          "type": "uint256"
        },
        {
          "indexed": true,
          "internalType": "address",
          "name": "mentor",
          "type": "address"
        },
        {
          "indexed": false,
          "internalType": "string",
          "name": "projectName",
          "type": "string"
        }
      ],
      "name": "ProjectCreated",
      "type": "event"
    },
    {
      "inputs": [
        {
          "internalType": "address",
          "name": "_mentorAddress",
          "type": "address"
        }
      ],
      "name": "approveMentor",
      "outputs": [],
      "stateMutability": "nonpayable",
      "type": "function"
    },
    {
      "inputs": [
        {
          "internalType": "uint256",
          "name": "_projectId",
          "type": "uint256"
        },
        {
          "internalType": "address",
          "name": "_student",
          "type": "address"
        }
      ],
      "name": "assignProject",
      "outputs": [],
      "stateMutability": "nonpayable",
      "type": "function"
    },
    {
      "inputs": [
        {
          "internalType": "uint256",
          "name": "_projectId",
          "type": "uint256"
        }
      ],
      "name": "completeProject",
      "outputs": [],
      "stateMutability": "nonpayable",
      "type": "function"
    },
    {
      "inputs": [
        {
          "internalType": "string",
          "name": "_projectName",
          "type": "string"
        },
        {
          "internalType": "string",
          "name": "_projectDescription",
          "type": "string"
        },
        {
          "internalType": "string",
          "name": "_skillArea",
          "type": "string"
        }
      ],
      "name": "createProject",
      "outputs": [],
      "stateMutability": "nonpayable",
      "type": "function"
    },
    {
      "inputs": [
        {
          "internalType": "address",
          "name": "_mentor",
          "type": "address"
        }
      ],
      "name": "getMentorProjects",
      "outputs": [
        {
          "internalType": "uint256[]",
          "name": "",
          "type": "uint256[]"
        }
      ],
      "stateMutability": "view",
      "type": "function"
    },
    {
      "inputs": [],
      "name": "getPendingMentors",
      "outputs": [
        {
          "internalType": "address[]",
          "name": "",
          "type": "address[]"
        }
      ],
      "stateMutability": "view",
      "type": "function"
    },
    {
      "inputs": [],
      "name": "getPendingProjects",
      "outputs": [
        {
          "internalType": "uint256[]",
          "name": "",
          "type": "uint256[]"
        }
      ],
      "stateMutability": "view",
      "type": "function"
    },
    {
      "inputs": [
        {
          "internalType": "address",
          "name": "_student",
          "type": "address"
        }
      ],
      "name": "getStudentProjects",
      "outputs": [
        {
          "internalType": "uint256[]",
          "name": "",
          "type": "uint256[]"
        }
      ],
      "stateMutability": "view",
      "type": "function"
    },
    {
      "inputs": [],
      "name": "mentorCounter",
      "outputs": [
        {
          "internalType": "uint256",
          "name": "",
          "type": "uint256"
        }
      ],
      "stateMutability": "view",
      "type": "function"
    },
    {
      "inputs": [
        {
          "internalType": "address",
          "name": "",
          "type": "address"
        },
        {
          "internalType": "uint256",
          "name": "",
          "type": "uint256"
        }
      ],
      "name": "mentorProjects",
      "outputs": [
        {
          "internalType": "uint256",
          "name": "",
          "type": "uint256"
        }
      ],
      "stateMutability": "view",
      "type": "function"
    },
    {
      "inputs": [
        {
          "internalType": "address",
          "name": "",
          "type": "address"
        }
      ],
      "name": "mentors",
      "outputs": [
        {
          "internalType": "address",
          "name": "mentorAddress",
          "type": "address"
        },
        {
          "internalType": "string",
          "name": "name",
          "type": "string"
        },
        {
          "internalType": "string",
          "name": "expertise",
          "type": "string"
        },
        {
          "internalType": "string",
          "name": "email",
          "type": "string"
        },
        {
          "internalType": "bool",
          "name": "isApproved",
          "type": "bool"
        },
        {
          "internalType": "uint256",
          "name": "totalProjects",
          "type": "uint256"
        }
      ],
      "stateMutability": "view",
      "type": "function"
    },
    {
      "inputs": [],
      "name": "owner",
      "outputs": [
        {
          "internalType": "address",
          "name": "",
          "type": "address"
        }
      ],
      "stateMutability": "view",
      "type": "function"
    },
    {
      "inputs": [
        {
          "internalType": "uint256",
          "name": "",
          "type": "uint256"
        }
      ],
      "name": "pendingMentors",
      "outputs": [
        {
          "internalType": "address",
          "name": "",
          "type": "address"
        }
      ],
      "stateMutability": "view",
      "type": "function"
    },
    {
      "inputs": [
        {
          "internalType": "uint256",
          "name": "",
          "type": "uint256"
        }
      ],
      "name": "pendingProjects",
      "outputs": [
        {
          "internalType": "uint256",
          "name": "",
          "type": "uint256"
        }
      ],
      "stateMutability": "view",
      "type": "function"
    },
    {
      "inputs": [],
      "name": "projectCounter",
      "outputs": [
        {
          "internalType": "uint256",
          "name": "",
          "type": "uint256"
        }
      ],
      "stateMutability": "view",
      "type": "function"
    },
    {
      "inputs": [
        {
          "internalType": "uint256",
          "name": "",
          "type": "uint256"
        }
      ],
      "name": "projects",
      "outputs": [
        {
          "internalType": "uint256",
          "name": "id",
          "type": "uint256"
        },
        {
          "internalType": "address",
          "name": "mentor",
          "type": "address"
        },
        {
          "internalType": "address",
          "name": "student",
          "type": "address"
        },
        {
          "internalType": "string",
          "name": "projectName",
          "type": "string"
        },
        {
          "internalType": "string",
          "name": "projectDescription",
          "type": "string"
        },
        {
          "internalType": "string",
          "name": "skillArea",
          "type": "string"
        },
        {
          "internalType": "bool",
          "name": "isAssigned",
          "type": "bool"
        },
        {
          "internalType": "bool",
          "name": "isCompleted",
          "type": "bool"
        }
      ],
      "stateMutability": "view",
      "type": "function"
    },
    {
      "inputs": [
        {
          "internalType": "string",
          "name": "_name",
          "type": "string"
        },
        {
          "internalType": "string",
          "name": "_expertise",
          "type": "string"
        },
        {
          "internalType": "string",
          "name": "_email",
          "type": "string"
        }
      ],
      "name": "registerMentor",
      "outputs": [],
      "stateMutability": "nonpayable",
      "type": "function"
    },
    {
      "inputs": [],
      "name": "renounceOwnership",
      "outputs": [],
      "stateMutability": "nonpayable",
      "type": "function"
    },
    {
      "inputs": [
        {
          "internalType": "address",
          "name": "",
          "type": "address"
        },
        {
          "internalType": "uint256",
          "name": "",
          "type": "uint256"
        }
      ],
      "name": "studentProjects",
      "outputs": [
        {
          "internalType": "uint256",
          "name": "",
          "type": "uint256"
        }
      ],
      "stateMutability": "view",
      "type": "function"
    },
    {
      "inputs": [
        {
          "internalType": "address",
          "name": "newOwner",
          "type": "address"
        }
      ],
      "name": "transferOwnership",
      "outputs": [],
      "stateMutability": "nonpayable",
      "type": "function"
    }
  ],
  "bytecode": "0x60806040523480156200001157600080fd5b5033600073ffffffffffffffffffffffffffffffffffffffff168173ffffffffffffffffffffffffffffffffffffffff1603620000885760006040517f1e4fbdf70000000000000000000000000000000000000000000000000000000081526004016200007f9190620001b9565b60405180910390fd5b6200009981620000b060201b60201c565b5060006005819055506000600681905550620001d6565b60008060009054906101000a900473ffffffffffffffffffffffffffffffffffffffff169050816000806101000a81548173ffffffffffffffffffffffffffffffffffffffff021916908373ffffffffffffffffffffffffffffffffffffffff1602179055508173ffffffffffffffffffffffffffffffffffffffff168173ffffffffffffffffffffffffffffffffffffffff167f8be0079c531659141344cd1fd0a4f28419497f9722a3daafe3b4186f6b6457e060405160405180910390a35050565b600073ffffffffffffffffffffffffffffffffffffffff82169050919050565b6000620001a18262000174565b9050919050565b620001b38162000194565b82525050565b6000602082019050620001d06000830184620001a8565b92915050565b6129a680620001e66000396000f3fe608060405234801561001057600080fd5b506004361061012c5760003560e01c806378bcba8d116100ad578063c7af864211610071578063c7af86421461035c578063cf7be6ec1461037a578063eed4ea8f14610396578063f2fde38b146103cb578063f8a518ed146103e75761012c565b806378bcba8d146102925780638da5cb5b146102c25780638e12a77a146102e0578063981e9c2b14610310578063bb1467f41461032c5761012c565b80633a5c19cc116100f45780633a5c19cc1461020057806352852e5f1461021e578063675200721461023a578063715018a61461025857806375f7c1dd146102625761012c565b8063107046bd14610131578063195dcdee146101685780632245f152146101985780633448e66f146101b45780633a1538dc146101e4575b600080fd5b61014b60048036038101906101469190611af4565b610405565b60405161015f989796959493929190611c1c565b60405180910390f35b610182600480360381019061017d9190611cdb565b61063f565b60405161018f9190611d1b565b60405180910390f35b6101b260048036038101906101ad9190611af4565b610670565b005b6101ce60048036038101906101c99190611cdb565b61080a565b6040516101db9190611d1b565b60405180910390f35b6101fe60048036038101906101f99190611d36565b61083b565b005b610208610b00565b6040516102159190611d1b565b60405180910390f35b61023860048036038101906102339190611e98565b610b06565b005b610242610de3565b60405161024f9190611ffd565b60405180910390f35b610260610e71565b005b61027c60048036038101906102779190611af4565b610e85565b604051610289919061201f565b60405180910390f35b6102ac60048036038101906102a79190611d36565b610ec4565b6040516102b991906120f8565b60405180910390f35b6102ca610f5b565b6040516102d7919061201f565b60405180910390f35b6102fa60048036038101906102f59190611d36565b610f84565b60405161030791906120f8565b60405180910390f35b61032a6004803603810190610325919061211a565b61101b565b005b61034660048036038101906103419190611af4565b61131d565b6040516103539190611d1b565b60405180910390f35b610364611341565b60405161037191906120f8565b60405180910390f35b610394600480360381019061038f9190611e98565b611399565b005b6103b060048036038101906103ab9190611d36565b6116ca565b6040516103c29695949392919061215a565b60405180910390f35b6103e560048036038101906103e09190611d36565b6118cb565b005b6103ef611951565b6040516103fc9190611d1b565b60405180910390f35b60026020528060005260406000206000915090508060000154908060010160009054906101000a900473ffffffffffffffffffffffffffffffffffffffff16908060020160009054906101000a900473ffffffffffffffffffffffffffffffffffffffff169080600301805461047a906121ff565b80601f01602080910402602001604051908101604052809291908181526020018280546104a6906121ff565b80156104f35780601f106104c8576101008083540402835291602001916104f3565b820191906000526020600020905b8154815290600101906020018083116104d657829003601f168201915b505050505090806004018054610508906121ff565b80601f0160208091040260200160405190810160405280929190818152602001828054610534906121ff565b80156105815780601f1061055657610100808354040283529160200191610581565b820191906000526020600020905b81548152906001019060200180831161056457829003601f168201915b505050505090806005018054610596906121ff565b80601f01602080910402602001604051908101604052809291908181526020018280546105c2906121ff565b801561060f5780601f106105e45761010080835404028352916020019161060f565b820191906000526020600020905b8154815290600101906020018083116105f257829003601f168201915b5050505050908060060160009054906101000a900460ff16908060060160019054906101000a900460ff16905088565b6004602052816000526040600020818154811061065b57600080fd5b90600052602060002001600091509150505481565b60006002600083815260200190815260200160002090503373ffffffffffffffffffffffffffffffffffffffff168160010160009054906101000a900473ffffffffffffffffffffffffffffffffffffffff1673ffffffffffffffffffffffffffffffffffffffff1614610719576040517f08c379a00000000000000000000000000000000000000000000000000000000081526004016107109061227c565b60405180910390fd5b8060060160009054906101000a900460ff1661076a576040517f08c379a0000000000000000000000000000000000000000000000000000000008152600401610761906122e8565b60405180910390fd5b8060060160019054906101000a900460ff16156107bc576040517f08c379a00000000000000000000000000000000000000000000000000000000081526004016107b390612354565b60405180910390fd5b60018160060160016101000a81548160ff021916908315150217905550817f60d8df137e489b6216738e436244ca4700bd6d0c8371d3c8d9c80b54538111b960405160405180910390a25050565b6003602052816000526040600020818154811061082657600080fd5b90600052602060002001600091509150505481565b610843611957565b600160008273ffffffffffffffffffffffffffffffffffffffff1673ffffffffffffffffffffffffffffffffffffffff16815260200190815260200160002060040160009054906101000a900460ff16156108d3576040517f08c379a00000000000000000000000000000000000000000000000000000000081526004016108ca906123c0565b60405180910390fd5b60018060008373ffffffffffffffffffffffffffffffffffffffff1673ffffffffffffffffffffffffffffffffffffffff16815260200190815260200160002060040160006101000a81548160ff02191690831515021790555060005b600780549050811015610ab9578173ffffffffffffffffffffffffffffffffffffffff1660078281548110610968576109676123e0565b5b9060005260206000200160009054906101000a900473ffffffffffffffffffffffffffffffffffffffff1673ffffffffffffffffffffffffffffffffffffffff1603610aa657600760016007805490506109c2919061243e565b815481106109d3576109d26123e0565b5b9060005260206000200160009054906101000a900473ffffffffffffffffffffffffffffffffffffffff1660078281548110610a1257610a116123e0565b5b9060005260206000200160006101000a81548173ffffffffffffffffffffffffffffffffffffffff021916908373ffffffffffffffffffffffffffffffffffffffff1602179055506007805480610a6c57610a6b612472565b5b6001900381819060005260206000200160006101000a81549073ffffffffffffffffffffffffffffffffffffffff02191690559055610ab9565b8080610ab1906124a1565b915050610930565b508073ffffffffffffffffffffffffffffffffffffffff167f08a5d48c91397c761935760849b81a8cb681410df32740fcd32c2e51f21633d560405160405180910390a250565b60055481565b600073ffffffffffffffffffffffffffffffffffffffff16600160003373ffffffffffffffffffffffffffffffffffffffff1673ffffffffffffffffffffffffffffffffffffffff16815260200190815260200160002060000160009054906101000a900473ffffffffffffffffffffffffffffffffffffffff1673ffffffffffffffffffffffffffffffffffffffff1614610bd7576040517f08c379a0000000000000000000000000000000000000000000000000000000008152600401610bce90612535565b60405180910390fd5b6040518060c001604052803373ffffffffffffffffffffffffffffffffffffffff1681526020018481526020018381526020018281526020016000151581526020016000815250600160003373ffffffffffffffffffffffffffffffffffffffff1673ffffffffffffffffffffffffffffffffffffffff16815260200190815260200160002060008201518160000160006101000a81548173ffffffffffffffffffffffffffffffffffffffff021916908373ffffffffffffffffffffffffffffffffffffffff1602179055506020820151816001019081610cb99190612701565b506040820151816002019081610ccf9190612701565b506060820151816003019081610ce59190612701565b5060808201518160040160006101000a81548160ff02191690831515021790555060a082015181600501559050506007339080600181540180825580915050600190039060005260206000200160009091909190916101000a81548173ffffffffffffffffffffffffffffffffffffffff021916908373ffffffffffffffffffffffffffffffffffffffff16021790555060056000815480929190610d89906124a1565b91905055503373ffffffffffffffffffffffffffffffffffffffff167fc14e42bf83a73674998a153215f928d3b78dd41101d83cac9ca5ea8f8844ff638484604051610dd69291906127d3565b60405180910390a2505050565b60606007805480602002602001604051908101604052809291908181526020018280548015610e6757602002820191906000526020600020905b8160009054906101000a900473ffffffffffffffffffffffffffffffffffffffff1673ffffffffffffffffffffffffffffffffffffffff1681526020019060010190808311610e1d575b5050505050905090565b610e79611957565b610e8360006119de565b565b60078181548110610e9557600080fd5b906000526020600020016000915054906101000a900473ffffffffffffffffffffffffffffffffffffffff1681565b6060600460008373ffffffffffffffffffffffffffffffffffffffff1673ffffffffffffffffffffffffffffffffffffffff168152602001908152602001600020805480602002602001604051908101604052809291908181526020018280548015610f4f57602002820191906000526020600020905b815481526020019060010190808311610f3b575b50505050509050919050565b60008060009054906101000a900473ffffffffffffffffffffffffffffffffffffffff16905090565b6060600360008373ffffffffffffffffffffffffffffffffffffffff1673ffffffffffffffffffffffffffffffffffffffff16815260200190815260200160002080548060200260200160405190810160405280929190818152602001828054801561100f57602002820191906000526020600020905b815481526020019060010190808311610ffb575b50505050509050919050565b3373ffffffffffffffffffffffffffffffffffffffff166002600084815260200190815260200160002060010160009054906101000a900473ffffffffffffffffffffffffffffffffffffffff1673ffffffffffffffffffffffffffffffffffffffff16146110bf576040517f08c379a00000000000000000000000000000000000000000000000000000000081526004016110b690612856565b60405180910390fd5b6002600083815260200190815260200160002060060160009054906101000a900460ff1615611123576040517f08c379a000000000000000000000000000000000000000000000000000000000815260040161111a906128c2565b60405180910390fd5b806002600084815260200190815260200160002060020160006101000a81548173ffffffffffffffffffffffffffffffffffffffff021916908373ffffffffffffffffffffffffffffffffffffffff16021790555060016002600084815260200190815260200160002060060160006101000a81548160ff021916908315150217905550600460008273ffffffffffffffffffffffffffffffffffffffff1673ffffffffffffffffffffffffffffffffffffffff16815260200190815260200160002082908060018154018082558091505060019003906000526020600020016000909190919091505560005b6008805490508110156112d4578260088281548110611232576112316123e0565b5b9060005260206000200154036112c15760086001600880549050611256919061243e565b81548110611267576112666123e0565b5b906000526020600020015460088281548110611286576112856123e0565b5b906000526020600020018190555060088054806112a6576112a5612472565b5b600190038181906000526020600020016000905590556112d4565b80806112cc906124a1565b915050611210565b508073ffffffffffffffffffffffffffffffffffffffff16827fcf346ab23a9abaabaa0eb4683b99ec1de094de5e7255af7623cbe740d4c0f16260405160405180910390a35050565b6008818154811061132d57600080fd5b906000526020600020016000915090505481565b6060600880548060200260200160405190810160405280929190818152602001828054801561138f57602002820191906000526020600020905b81548152602001906001019080831161137b575b5050505050905090565b600160003373ffffffffffffffffffffffffffffffffffffffff1673ffffffffffffffffffffffffffffffffffffffff16815260200190815260200160002060040160009054906101000a900460ff16611428576040517f08c379a000000000000000000000000000000000000000000000000000000000815260040161141f9061292e565b60405180910390fd5b6006600081548092919061143b906124a1565b919050555060405180610100016040528060065481526020013373ffffffffffffffffffffffffffffffffffffffff168152602001600073ffffffffffffffffffffffffffffffffffffffff168152602001848152602001838152602001828152602001600015158152602001600015158152506002600060065481526020019081526020016000206000820151816000015560208201518160010160006101000a81548173ffffffffffffffffffffffffffffffffffffffff021916908373ffffffffffffffffffffffffffffffffffffffff16021790555060408201518160020160006101000a81548173ffffffffffffffffffffffffffffffffffffffff021916908373ffffffffffffffffffffffffffffffffffffffff16021790555060608201518160030190816115719190612701565b5060808201518160040190816115879190612701565b5060a082015181600501908161159d9190612701565b5060c08201518160060160006101000a81548160ff02191690831515021790555060e08201518160060160016101000a81548160ff021916908315150217905550905050600360003373ffffffffffffffffffffffffffffffffffffffff1673ffffffffffffffffffffffffffffffffffffffff1681526020019081526020016000206006549080600181540180825580915050600190039060005260206000200160009091909190915055600860065490806001815401808255809150506001900390600052602060002001600090919091909150553373ffffffffffffffffffffffffffffffffffffffff166006547f9d9ec461f162f3f4fdb9f6d189bfe13c59e48d8acd23a4c3bfcf7cc0fe4e84ed856040516116bd919061294e565b60405180910390a3505050565b60016020528060005260406000206000915090508060000160009054906101000a900473ffffffffffffffffffffffffffffffffffffffff1690806001018054611713906121ff565b80601f016020809104026020016040519081016040528092919081815260200182805461173f906121ff565b801561178c5780601f106117615761010080835404028352916020019161178c565b820191906000526020600020905b81548152906001019060200180831161176f57829003601f168201915b5050505050908060020180546117a1906121ff565b80601f01602080910402602001604051908101604052809291908181526020018280546117cd906121ff565b801561181a5780601f106117ef5761010080835404028352916020019161181a565b820191906000526020600020905b8154815290600101906020018083116117fd57829003601f168201915b50505050509080600301805461182f906121ff565b80601f016020809104026020016040519081016040528092919081815260200182805461185b906121ff565b80156118a85780601f1061187d576101008083540402835291602001916118a8565b820191906000526020600020905b81548152906001019060200180831161188b57829003601f168201915b5050505050908060040160009054906101000a900460ff16908060050154905086565b6118d3611957565b600073ffffffffffffffffffffffffffffffffffffffff168173ffffffffffffffffffffffffffffffffffffffff16036119455760006040517f1e4fbdf700000000000000000000000000000000000000000000000000000000815260040161193c919061201f565b60405180910390fd5b61194e816119de565b50565b60065481565b61195f611aa2565b73ffffffffffffffffffffffffffffffffffffffff1661197d610f5b565b73ffffffffffffffffffffffffffffffffffffffff16146119dc576119a0611aa2565b6040517f118cdaa70000000000000000000000000000000000000000000000000000000081526004016119d3919061201f565b60405180910390fd5b565b60008060009054906101000a900473ffffffffffffffffffffffffffffffffffffffff169050816000806101000a81548173ffffffffffffffffffffffffffffffffffffffff021916908373ffffffffffffffffffffffffffffffffffffffff1602179055508173ffffffffffffffffffffffffffffffffffffffff168173ffffffffffffffffffffffffffffffffffffffff167f8be0079c531659141344cd1fd0a4f28419497f9722a3daafe3b4186f6b6457e060405160405180910390a35050565b600033905090565b6000604051905090565b600080fd5b600080fd5b6000819050919050565b611ad181611abe565b8114611adc57600080fd5b50565b600081359050611aee81611ac8565b92915050565b600060208284031215611b0a57611b09611ab4565b5b6000611b1884828501611adf565b91505092915050565b611b2a81611abe565b82525050565b600073ffffffffffffffffffffffffffffffffffffffff82169050919050565b6000611b5b82611b30565b9050919050565b611b6b81611b50565b82525050565b600081519050919050565b600082825260208201905092915050565b60005b83811015611bab578082015181840152602081019050611b90565b60008484015250505050565b6000601f19601f8301169050919050565b6000611bd382611b71565b611bdd8185611b7c565b9350611bed818560208601611b8d565b611bf681611bb7565b840191505092915050565b60008115159050919050565b611c1681611c01565b82525050565b600061010082019050611c32600083018b611b21565b611c3f602083018a611b62565b611c4c6040830189611b62565b8181036060830152611c5e8188611bc8565b90508181036080830152611c728187611bc8565b905081810360a0830152611c868186611bc8565b9050611c9560c0830185611c0d565b611ca260e0830184611c0d565b9998505050505050505050565b611cb881611b50565b8114611cc357600080fd5b50565b600081359050611cd581611caf565b92915050565b60008060408385031215611cf257611cf1611ab4565b5b6000611d0085828601611cc6565b9250506020611d1185828601611adf565b9150509250929050565b6000602082019050611d306000830184611b21565b92915050565b600060208284031215611d4c57611d4b611ab4565b5b6000611d5a84828501611cc6565b91505092915050565b600080fd5b600080fd5b7f4e487b7100000000000000000000000000000000000000000000000000000000600052604160045260246000fd5b611da582611bb7565b810181811067ffffffffffffffff82111715611dc457611dc3611d6d565b5b80604052505050565b6000611dd7611aaa565b9050611de38282611d9c565b919050565b600067ffffffffffffffff821115611e0357611e02611d6d565b5b611e0c82611bb7565b9050602081019050919050565b82818337600083830152505050565b6000611e3b611e3684611de8565b611dcd565b905082815260208101848484011115611e5757611e56611d68565b5b611e62848285611e19565b509392505050565b600082601f830112611e7f57611e7e611d63565b5b8135611e8f848260208601611e28565b91505092915050565b600080600060608486031215611eb157611eb0611ab4565b5b600084013567ffffffffffffffff811115611ecf57611ece611ab9565b5b611edb86828701611e6a565b935050602084013567ffffffffffffffff811115611efc57611efb611ab9565b5b611f0886828701611e6a565b925050604084013567ffffffffffffffff811115611f2957611f28611ab9565b5b611f3586828701611e6a565b9150509250925092565b600081519050919050565b600082825260208201905092915050565b6000819050602082019050919050565b611f7481611b50565b82525050565b6000611f868383611f6b565b60208301905092915050565b6000602082019050919050565b6000611faa82611f3f565b611fb48185611f4a565b9350611fbf83611f5b565b8060005b83811015611ff0578151611fd78882611f7a565b9750611fe283611f92565b925050600181019050611fc3565b5085935050505092915050565b600060208201905081810360008301526120178184611f9f565b905092915050565b60006020820190506120346000830184611b62565b92915050565b600081519050919050565b600082825260208201905092915050565b6000819050602082019050919050565b61206f81611abe565b82525050565b60006120818383612066565b60208301905092915050565b6000602082019050919050565b60006120a58261203a565b6120af8185612045565b93506120ba83612056565b8060005b838110156120eb5781516120d28882612075565b97506120dd8361208d565b9250506001810190506120be565b5085935050505092915050565b60006020820190508181036000830152612112818461209a565b905092915050565b6000806040838503121561213157612130611ab4565b5b600061213f85828601611adf565b925050602061215085828601611cc6565b9150509250929050565b600060c08201905061216f6000830189611b62565b81810360208301526121818188611bc8565b905081810360408301526121958187611bc8565b905081810360608301526121a98186611bc8565b90506121b86080830185611c0d565b6121c560a0830184611b21565b979650505050505050565b7f4e487b7100000000000000000000000000000000000000000000000000000000600052602260045260246000fd5b6000600282049050600182168061221757607f821691505b60208210810361222a576122296121d0565b5b50919050565b7f4f6e6c79206d656e746f722063616e20636f6d706c6574652070726f6a656374600082015250565b6000612266602083611b7c565b915061227182612230565b602082019050919050565b6000602082019050818103600083015261229581612259565b9050919050565b7f50726f6a656374206e6f742061737369676e6564000000000000000000000000600082015250565b60006122d2601483611b7c565b91506122dd8261229c565b602082019050919050565b60006020820190508181036000830152612301816122c5565b9050919050565b7f50726f6a65637420616c726561647920636f6d706c6574656400000000000000600082015250565b600061233e601983611b7c565b915061234982612308565b602082019050919050565b6000602082019050818103600083015261236d81612331565b9050919050565b7f4d656e746f7220616c726561647920617070726f766564000000000000000000600082015250565b60006123aa601783611b7c565b91506123b582612374565b602082019050919050565b600060208201905081810360008301526123d98161239d565b9050919050565b7f4e487b7100000000000000000000000000000000000000000000000000000000600052603260045260246000fd5b7f4e487b7100000000000000000000000000000000000000000000000000000000600052601160045260246000fd5b600061244982611abe565b915061245483611abe565b925082820390508181111561246c5761246b61240f565b5b92915050565b7f4e487b7100000000000000000000000000000000000000000000000000000000600052603160045260246000fd5b60006124ac82611abe565b91507fffffffffffffffffffffffffffffffffffffffffffffffffffffffffffffffff82036124de576124dd61240f565b5b600182019050919050565b7f4d656e746f7220616c7265616479207265676973746572656400000000000000600082015250565b600061251f601983611b7c565b915061252a826124e9565b602082019050919050565b6000602082019050818103600083015261254e81612512565b9050919050565b60008190508160005260206000209050919050565b60006020601f8301049050919050565b600082821b905092915050565b6000600883026125b77fffffffffffffffffffffffffffffffffffffffffffffffffffffffffffffffff8261257a565b6125c1868361257a565b95508019841693508086168417925050509392505050565b6000819050919050565b60006125fe6125f96125f484611abe565b6125d9565b611abe565b9050919050565b6000819050919050565b612618836125e3565b61262c61262482612605565b848454612587565b825550505050565b600090565b612641612634565b61264c81848461260f565b505050565b5b8181101561267057612665600082612639565b600181019050612652565b5050565b601f8211156126b55761268681612555565b61268f8461256a565b8101602085101561269e578190505b6126b26126aa8561256a565b830182612651565b50505b505050565b600082821c905092915050565b60006126d8600019846008026126ba565b1980831691505092915050565b60006126f183836126c7565b9150826002028217905092915050565b61270a82611b71565b67ffffffffffffffff81111561272357612722611d6d565b5b61272d82546121ff565b612738828285612674565b600060209050601f83116001811461276b5760008415612759578287015190505b61276385826126e5565b8655506127cb565b601f19841661277986612555565b60005b828110156127a15784890151825560018201915060208501945060208101905061277c565b868310156127be57848901516127ba601f8916826126c7565b8355505b6001600288020188555050505b505050505050565b600060408201905081810360008301526127ed8185611bc8565b905081810360208301526128018184611bc8565b90509392505050565b7f4f6e6c79206d656e746f722063616e2061737369676e2070726f6a6563740000600082015250565b6000612840601e83611b7c565b915061284b8261280a565b602082019050919050565b6000602082019050818103600083015261286f81612833565b9050919050565b7f50726f6a65637420616c72656164792061737369676e65640000000000000000600082015250565b60006128ac601883611b7c565b91506128b782612876565b602082019050919050565b600060208201905081810360008301526128db8161289f565b9050919050565b7f4d656e746f72206e6f7420617070726f76656400000000000000000000000000600082015250565b6000612918601383611b7c565b9150612923826128e2565b602082019050919050565b600060208201905081810360008301526129478161290b565b9050919050565b600060208201905081810360008301526129688184611bc8565b90509291505056fea2646970667358221220e3c934976baff666c57680a33bcbf6bcc254025f0283a5cbf4ed0fb1d59fd6b564736f6c63430008140033",
  "linkReferences": {},
  "deployedLinkReferences": {}
}